:04000000FEEFFFF020
:10260000004C6563742E204D6174726978203478B3
:0326100034000093
:10261400026E0250F00B036E02C501F50F0E011697
:102624000138F00B046E0350C312C384060E016E0E
:10263400300EE82EFED7012EFCD700D0C394060E30
:10264400016E300EE82EFED7012EFCD700D00350C9
:10265400FF0AC3160450C312C384060E016E300E63
:10266400E82EFED7012EFCD700D0C394060E016ECF
:10267400300EE82EFED7012EFCD700D00450FF0AFE
:10268400C3161200000E0A6E57EF13F00A50062408
:10269400086E000E0720096E08C5F6F409C5F7F4A4
:1026A4000800F550F3EC13F00A2A0A500624086EC9
:1026B400000E0720096E08C5F6F409C5F7F40800F2
:1026C400F5500009D8A469EF13F06BEF13F048EF4D
:1026D40013F01200076E000E086E0750D8A475EFB1
:1026E40013F077EF13F07BEF13F0800E086E88EF92
:1026F40013F00704D8A481EF13F083EF13F087EFEE
:1027040013F0C00E086E88EF13F000F00650082690
:102714000850F9EC13F01200E1EC13F0CCEC13F0D8
:10272400000E066E000E6CEC13F0010E066E260E03
:10273400076E44EC13F0080EC31A040E0C6E0C0E54
:102744000B6E340EE82EFED70B2EFCD70C2EFAD7C8
:102754009DEF13F0FEEFFFF00001AD518F0B600908
:10276400AD6F01C5D9F402C5DAF4DF50036EAD5183
:102774000318F00B0318AD6F20EE01F00150D926B9
:102784000250DA22DF50036EB1510318F00B031824
:10279400B16F1200FFEC13F0010EF9EC13F0020E0E
:1027A400F9EC13F0060EF9EC13F00C0EF9EC13F03F
:1027B400100EF9EC13F02C0EF9EC13F01200000ECD
:1027C400046E050E056E040E016E050E026EAEEC6F
:1027D40013F01200000EF86E260EF76E00018EEF55
:1027E40013F0056EC38005500AEC13F01200056E59
:1027F400C39005500AEC13F01200000ECB6EC39286
:022804001200C0
:020000040001F9
:04FFFC00ECEF13F023
:020000040020DA
:10000000FF0FFF0FFF0FFF0FFF0FFF0FFF0FFF0F80
:10001000FF0FFF0FFF0FFF0FFF0FFF0FFF0FFF0F70
:10002000FF0FFF0FFF0FFF0FFF0FFF0FFF0FFF0F60
:10003000FF0FFF0FFF0FFF0FFF0FFF0FFF0FFF0F50
:020000040030CA
:0A0000008CD5E7C79FFFFFFFFFFF4D
:00000001FF
