:0400000081EF00F09C
:1000080040004000400040004000400040004000E8
:1000180040004000400040004000400040004000D8
:1000280040004000400040004000400040004000C8
:1000380040004000400040004000400040004000B8
:1000480040004000400040004000400040004000A8
:100058004000400040004000400040004000400098
:100068004000400040004000400040004000400088
:100078004000400040004000400040004000400078
:100088004000400040004000400040004000400068
:100098004000400040004000400040004000400058
:1000A8005B0040004000400040004000400040002D
:1000B8004000400040004000400040004000400038
:1000C8004000400040004000400040004000400028
:1000D8004000400040004000400040004000400018
:1000E8004000400040004000400040004000400008
:1000F8004000400040004000FF00D3EF00F0000146
:10010800AD518F0B6009AD6F01C5D9F402C5DAF4A2
:10011800DF50036EAD510318F00B0318AD6F20EEDE
:1001280001F00150D9260250DA22DF50036EB15196
:100138000318F00B0318B16F1200C8EC00F0DDECE7
:1001480000F0E5EC00F0080EC01A9C0E066ED70E03
:10015800E82EFED7062EFCD700F0A7EF00F081EFBF
:0201680000F0A5
:10016C00B8A0BBEF00F0BDEF00F0C7EF00F0A8A007
:10017C00C2EF00F0C4EF00F0C7EF00F0080EC31A96
:10018C00B8901100000E046E070E056E040E016E81
:10019C00050E026E83EC00F012000401080E5D6F78
:1001AC00000E5E6F000E5F6F0001A1EF00F0CB96AA
:1001BC00C386C896C09604010895C7841200B890EF
:0A01CC00A880D68AD68ED6941200C1
:020000040020DA
:10000000FF0FFF0FFF0FFF0FFF0FFF0FFF0FFF0F80
:10001000FF0FFF0FFF0FFF0FFF0FFF0FFF0FFF0F70
:10002000FF0FFF0FFF0FFF0FFF0FFF0FFF0FFF0F60
:10003000FF0FFF0FFF0FFF0FFF0FFF0FFF0FFF0F50
:020000040030CA
:0A0000008CD5EFC79FFFFFFFFFFF45
:00000001FF
