:04000000FEEFFFF020
:020000040001F9
:10FCA00000015EEFFEF0000E046E020E056E040E03
:10FCB000016E050E026E6BECFEF0120053ECFEF0CE
:10FCC00089ECFEF0290E0201766F260E296F67EF90
:10FCD000FEF0FEEFFFF00001AD518F0B6009AD6F3C
:10FCE00001C5D9F402C5DAF4DF50036EAD51031833
:10FCF000F00B0318AD6F20EE01F00150D926025031
:10FD0000DA22DF50036EB1510318F00B0318B16F04
:10FD10001200000E196E250E176E800E166E000E64
:10FD2000226E000E1C6E000E186E010E1D6E010E6E
:10FD30001B6E010E1A6E000E1F6E000E206E000E5E
:10FD4000216E000E1E6E160E0E6E050E0F6EFCEC72
:10FD5000FEF01200000E096E000E0A6E000E0B6E11
:10FD6000000E0C6E0550061007100810D8B4BBEF3B
:10FD7000FEF0BDEFFEF0F3EFFEF0010E0D6EC7EFEB
:10FD8000FEF0D89005360636073608360D2A08AE3E
:10FD9000CCEFFEF0CEEFFEF0C1EFFEF0D8900936CA
:10FDA0000A360B360C360550015C065002580750D7
:10FDB000035808500458D8A0E0EFFEF0E2EFFEF040
:10FDC000EBEFFEF00550015E0650025A0750035A51
:10FDD0000850045A0980D89008320732063205329A
:10FDE0000D2ECEEFFEF009C501F50AC502F50BC5D3
:10FDF00003F50CC504F51200000E0201C96F000ED8
:10FE0000C76F000ED16F000ED26F000ED36F20EEC1
:10FE100002F00E50D9260F50DA22DF50106E000E7D
:10FE200010B0800E106E1050D11320EE03F00E5063
:10FE3000D9260F50DA22DF50106E060E116ED890C0
:10FE40001036112E1FEFFFF01050D11320EE04F0EA
:10FE50000E50D9260F50DA22DF50106E050E116EAB
:10FE6000D8901036112E30EFFFF01050D11320EE45
:10FE700005F00E50D9260F50DA22DF50106E1038E0
:10FE8000F00BD11320EE06F00E50D9260F50DA22D7
:10FE9000DF50D11320EE07F00E50D9260F50DA2292
:10FEA000DF50106E000E10B0800E106E1050D21386
:10FEB00020EE08F00E50D9260F50DA22DF50106ED7
:10FEC0001038F00BD21320EE09F00E50D9260F5047
:10FED000DA22DF50106E060E116ED8901036112EF9
:10FEE0006DEFFFF01050D31320EE0AF00E50D9261C
:10FEF0000F50DA22DF50106ED8901036D8901034A0
:10FF0000D31320EE0BF00E50D9260F50DA22DF501B
:10FF1000106E1038F00BD31320EE0CF00E50D926D3
:10FF20000F50DA22DF50D313D1AF99EFFFF09BEFE0
:10FF3000FFF0CDEFFFF0000E016E090E026E3D0ED8
:10FF4000036E000E046E0EC5D9F40FC5DAF4DEC4DC
:10FF500010F5DDC411F51050126E1150136E146AB5
:10FF6000156A020ED8901236133614361536E82E5E
:10FF7000B2EFFFF012C505F513C506F514C507F578
:10FF800015C508F5AAECFEF0FF0E01240201D46F9E
:10FF9000FF0E0220D56FFDEFFFF0000E016E090E7F
:10FFA000026E3D0E036E000E046E0EC5D9F40FC531
:10FFB000DAF4DEC410F5DDC411F51050126E1150E4
:10FFC000136E146A156A040ED8901236133614365E
:10FFD0001536E82EE4EFFFF012C505F513C506F55A
:10FFE00014C507F515C508F5AAECFEF0FF0E0124AF
:10FFF0000201D46FFF0E0220D56F120050EFFEF009
:020000040020DA
:10000000FF0FFF0FFF0FFF0FFF0FFF0FFF0FFF0F80
:10001000FF0FFF0FFF0FFF0FFF0FFF0FFF0FFF0F70
:10002000FF0FFF0FFF0FFF0FFF0FFF0FFF0FFF0F60
:10003000FF0FFF0FFF0FFF0FFF0FFF0FFF0FFF0F50
:020000040030CA
:0A0000008CD5EFC79FFFFFFFFFFF45
:00000001FF
