:04000000FEEFFFF020
:020000040001F9
:10FF6600CB96C38612000001CBEFFFF0D69AD68E51
:10FF7600A792A790B792B7901200000E046E020ED9
:10FF8600056E040E016E050E026EDEECFFF0120029
:10FF9600C0ECFFF0B9ECFFF0B3ECFFF0080EC31AAB
:10FFA600820E066EDE0EE82EFED7062EFCD7D1EFA9
:10FFB600FFF0FEEFFFF00001AD518F0B6009AD6F52
:10FFC600610004F4D9F4610008F4DAF4DF50036E3A
:10FFD600AD510318F00B0318AD6F20EE01F0015080
:10FFE600D9260250DA22DF50036EB1510318F00B06
:0AFFF6000318B16F1200B6EFFFF020
:020000040020DA
:10000000FF0FFF0FFF0FFF0FFF0FFF0FFF0FFF0F80
:10001000FF0FFF0FFF0FFF0FFF0FFF0FFF0FFF0F70
:10002000FF0FFF0FFF0FFF0FFF0FFF0FFF0FFF0F60
:10003000FF0FFF0FFF0FFF0FFF0FFF0FFF0FFF0F50
:020000040030CA
:0A0000008CD5EFC79FFFFFFFFFFF45
:00000001FF
