:04000000FEEFFFF020
:1026000000486F6C6121202D205541525433202DFC
:10261000205049433138463537513433200A0D00B4
:0126200000B9
:10262200000E076E000E066E27EF13F0065002240E
:10263200046E07500320056E04C5F6F405C5F7F4D1
:102642000800F550A0EC13F0064A072A06500224AF
:10265200046E07500320056E04C5F6F405C5F7F4B1
:102662000800F5500009D8A439EF13F03BEF13F03E
:1026720017EF13F01200ABEC13F0C5EC13F0B6EC4D
:1026820013F060EC13F0290E0201766F260E296F0B
:10269200010E026E260E036E11EC13F0080EC31A21
:1026A200020E096E450E086EAA0EE82EFED7082EFF
:1026B200FCD7092EFAD74FEF13F0FEEFFFF0000E12
:1026C2000201C96F000EC76F000ED16F000ED26FEC
:1026D200D19FD19DD18BD189D151D28FD299D1AFF6
:1026E20075EF13F077EF13F07DEF13F0000ED56F57
:1026F200670ED46F81EF13F0000ED56F190ED46FF1
:1027020012000001AD518F0B6009AD6F01C5D9F404
:1027120002C5DAF4DF50036EAD510318F00B031853
:10272200AD6F20EE01F00150D9260250DA22DF50BF
:10273200036EB1510318F00B0318B16F1200016E52
:1027420001C5C9F2B7A2A8EF13F0AAEF13F0A3EFE5
:1027520013F01200000E046E020E056E040E016EDE
:10276200050E026E82EC13F01200CB96C386CB905C
:10277200C39004012893CB821200000EF86E260E3D
:10278200F76E00013CEF13F0D69AD68EA792A7906F
:06279200B792B79012009F
:020000040001F9
:04FFFC00BEEF13F051
:020000040020DA
:10000000FF0FFF0FFF0FFF0FFF0FFF0FFF0FFF0F80
:10001000FF0FFF0FFF0FFF0FFF0FFF0FFF0FFF0F70
:10002000FF0FFF0FFF0FFF0FFF0FFF0FFF0FFF0F60
:10003000FF0FFF0FFF0FFF0FFF0FFF0FFF0FFF0F50
:020000040030CA
:0A0000008CD5EFC79FFFFFFFFFFF45
:00000001FF
