:04000000FEEFFFF020
:020000040001F9
:10FF7200CB96C38612000001CAEFFFF0000E046E9A
:10FF8200050E056E040E016E050E026EE0ECFFF02A
:10FF92001200BFECFFF0B9ECFFF0080EC31A030E1B
:10FFA200076E080E066E770EE82EFED7062EFCD7D9
:10FFB200072EFAD700F0CEEFFFF0FEEFFFF00001C0
:10FFC200AD518F0B6009AD6F01C5D9F402C5DAF4EA
:10FFD200DF50036EAD510318F00B0318AD6F20EE26
:10FFE20001F00150D9260250DA22DF50036EB151DE
:0EFFF2000318F00B0318B16F1200BCEFFFF004
:020000040020DA
:10000000FF0FFF0FFF0FFF0FFF0FFF0FFF0FFF0F80
:10001000FF0FFF0FFF0FFF0FFF0FFF0FFF0FFF0F70
:10002000FF0FFF0FFF0FFF0FFF0FFF0FFF0FFF0F60
:10003000FF0FFF0FFF0FFF0FFF0FFF0FFF0FFF0F50
:020000040030CA
:0A0000008CD5EFC79FFFFFFFFFFF45
:00000001FF
