:0400000081EF00F09C
:1000080040004000400040004000400040004000E8
:1000180040004000400040004000400040004000D8
:1000280040004000400040004000400040004000C8
:1000380040004000400040004000400040005200A6
:1000480040004000400040004000400040004000A8
:100058004000400040004000400040004000400098
:100068004000400040004000400040004000400088
:100078004000400040004000400040004000400078
:100088004000400040004000400040004000400068
:100098004000400040004000400040004000400058
:1000A8004000400040004000400040004000400048
:1000B8004000400040004000400040004000400038
:1000C8004000400040004000400040004000400028
:1000D8004000400040004000400040004000400018
:1000E8004000400040004000400040004000400008
:1000F8004000400040004000FF00E6EF00F0000133
:10010800AD518F0B6009AD6F610004F4D9F4610043
:1001180008F4DAF4DF50036EAD510318F00B03183E
:10012800AD6F20EE01F00150D9260250DA22DF50DF
:0E013800036EB1510318F00B0318B16F1200E3
:10014800B1AEA9EF00F0ABEF00F0BAEF00F0A1AE4E
:10015800B0EF00F0B2EF00F0BAEF00F0080EC31AEB
:100168000B0E0301196FDC0E186FB19E110003010D
:100178001A8F1A89F00E1A171B511F0B40091B6F93
:100188001B991B51F00B03091B6F0B0E196FDC0E2B
:10019800186F1200DBEC00F0F5EC00F0F0EC00F06A
:1001A800BBEC00F000F0D6EF00F081EF00F0000E9D
:1001B800046E020E056E040E016E050E026E83ECCF
:1001C80000F012000401080E5D6F000E5E6F000E55
:1001D8005F6F0001CEEF00F0D68ED69AA18EB19E49
:0801E8001200CB96C386120041
:020000040020DA
:10000000FF0FFF0FFF0FFF0FFF0FFF0FFF0FFF0F80
:10001000FF0FFF0FFF0FFF0FFF0FFF0FFF0FFF0F70
:10002000FF0FFF0FFF0FFF0FFF0FFF0FFF0FFF0F60
:10003000FF0FFF0FFF0FFF0FFF0FFF0FFF0FFF0F50
:020000040030CA
:0A0000008CD5EFC79FFFFFFFFFFF45
:00000001FF
