:04000000FEEFFFF020
:020000040001F9
:10FF2400C7880401089909891200407924301912FC
:10FF340002780010000E0401286F000ECB6E120030
:10FF4400F00E0001AD17AD518F0B6009AD6FB151CB
:10FF5400F00B0509B16F12002E0EF66EFF0EF76E50
:10FF6400010EF86E01EE01F110EE0AF00900F5C47D
:10FF7400EEF4E550E150FAE10001C1EFFFF0A2EC2C
:10FF8400FFF09CECFFF092ECFFF0000E0D6E010E02
:10FF94000D24D96EDA6A050EDA22DF50C36E0B0E19
:10FFA4000C6E260E0B6E5E0EE82EFED70B2EFCD7C3
:10FFB4000C2EFAD7CFB8E1EFFFF0E3EFFFF0F0EF4C
:10FFC400FFF00D2A0D50800A760FD8A0ECEFFFF059
:10FFD400EEEFFFF0C9EFFFF0C7EFFFF00D060DBE27
:10FFE400F8EFFFF0F6EFFFF0C9EFFFF0090E0D6E2A
:0CFFF400C9EFFFF0FEEFFFF0AEEFFFF0F2
:020000040020DA
:10000000FF0FFF0FFF0FFF0FFF0FFF0FFF0FFF0F80
:10001000FF0FFF0FFF0FFF0FFF0FFF0FFF0FFF0F70
:10002000FF0FFF0FFF0FFF0FFF0FFF0FFF0FFF0F60
:10003000FF0FFF0FFF0FFF0FFF0FFF0FFF0FFF0F50
:020000040030CA
:0A0000008CDDE7C79FFFFFFFFFFF45
:00000001FF
