:04000000FEEFFFF020
:020000040001F9
:10FF7000CB96C38612000001C9EFFFF0000E046E9D
:10FF8000020E056E040E016E050E026EDEECFFF031
:10FF90001200BEECFFF0B8ECFFF0080EC31A020E20
:10FFA000076E450E066EAA0EE82EFED7062EFCD76B
:10FFB000072EFAD7CDEFFFF0FEEFFFF00001AD51B5
:10FFC0008F0B6009AD6F610004F4D9F4610008F48F
:10FFD000DAF4DF50036EAD510318F00B0318AD6F68
:10FFE00020EE01F00150D9260250DA22DF50036ED4
:10FFF000B1510318F00B0318B16F1200BBEFFFF003
:020000040020DA
:10000000FF0FFF0FFF0FFF0FFF0FFF0FFF0FFF0F80
:10001000FF0FFF0FFF0FFF0FFF0FFF0FFF0FFF0F70
:10002000FF0FFF0FFF0FFF0FFF0FFF0FFF0FFF0F60
:10003000FF0FFF0FFF0FFF0FFF0FFF0FFF0FFF0F50
:020000040030CA
:0A0000008CD5EFC79FFFFFFFFFFF45
:00000001FF
