:040000000DEF00F010
:0400080039EF1DF0BF
:06001800FF0064EF20F080
:1025000000563D252D3375252520543D252D337549
:0F251000005046204D4F544F522052504D000066
:102520002B50800B346E2B502B243A6E2AAE9BEF2F
:1025300012F09DEF12F09EEF12F03A803A50D8B4AC
:10254000A4EF12F0A6EF12F0B9EF12F03A28D8A4D7
:10255000ACEF12F0AEEF12F0B6EF12F0000E286EF4
:10256000000E296E000E2A6E000E2B6E2A8EC1EF11
:1025700012F0000E286E000E296E000E2A6E000E5C
:102580002B6E2F50800B341A2F502F24396E2EAE05
:10259000CCEF12F0CEEF12F0CFEF12F039803950BD
:1025A000D8B4D5EF12F0D7EF12F0EAEF12F03928D5
:1025B000D8A4DDEF12F0DFEF12F0E7EF12F0000E1B
:1025C0002C6E000E2D6E000E2E6E000E2F6E2E8EB7
:1025D000F2EF12F0000E2C6E000E2D6E000E2E6E1D
:1025E000000E2F6E3950D8B4F8EF12F0FAEF12F057
:1025F00002EF13F03A50D8A400EF13F002EF13F0FB
:102600000CEF13F0000E286E000E296E000E2A6EDD
:10261000000E2B6EB6EF14F02E5028026100CCF3A2
:102620003FF56100D0F340F53F50356E366A376AAA
:10263000386A40503B6E3C6A3D6A3E6A2D50290222
:102640006100CCF33FF56100D0F340F53F503526F3
:10265000000E36223722382240503B26000E3C2204
:102660003D223E222C502A026100CCF33FF561004E
:10267000D0F340F53F503526000E3622372238225F
:1026800040503B26000E3C223D223E2237C538F505
:1026900036C537F535C536F5356A2C502902610047
:1026A000CCF33FF56100D0F340F53F503526405064
:1026B0003622000E3722000E38222D5028026100EB
:1026C000CCF33FF56100D0F340F53F503526405044
:1026D0003622000E3722000E382237C538F536C5AF
:1026E00037F535C536F5356A2C5028026100CCF334
:1026F0003FF56100D0F340F53F503526405036227B
:10270000000E3722000E38222E5029026100CCF331
:102710003FF56100D0F340F53F503B2640503C224E
:10272000000E3D22000E3E222D502A026100CCF305
:102730003FF56100D0F340F53F503B2640503C222E
:10274000000E3D22000E3E222E502A026100CCF3E4
:102750003FF56100D0F340F53F50306E4050316E90
:10276000326A336A32C533F531C532F530C531F5D9
:10277000306A30503B2631503C2232503D2233509B
:102780003E2235C530F536C531F537C532F538C589
:1027900033F5190ED1EF13F0D89033323232313293
:1027A0003032E82ECCEF13F030503B2631503C2233
:1027B00032503D2233503E2237C538F536C537F505
:1027C00035C536F5356A39503AC530F5316A3026A7
:1027D000000E3122820E30243F6EFF0E3120406EFB
:1027E00007EF14F0D8903B363C363D363E3638AED7
:1027F000FCEF13F0FEEF13F0FFEF13F03B80D890E7
:1028000035363636373638363F06D8A040063DAE28
:102810000CEF14F00EEF14F0F2EF13F0000E396E1F
:1028200038AE15EF14F017EF14F03BEF14F0FF0E75
:102830003514306EFF0E3614316EFF0E3714326EC3
:102840007F0E3814336E3050311032103310D8B43C
:102850002CEF14F02EEF14F032EF14F0010E396E5D
:102860003BEF14F03BA037EF14F039EF14F03BEFDF
:1028700014F02EEF14F03950D8B441EF14F043EFB8
:1028800014F067EF14F0010E3B26000E3C223D22AF
:102890003E223EA04EEF14F050EF14F067EF14F01C
:1028A0003BC530F53CC531F53DC532F53EC533F588
:1028B0003334333232323132303230C53BF531C508
:1028C0003CF532C53DF533C53EF53F4A402A40BE92
:1028D00072EF14F0405008E13F28D8A072EF14F0D6
:1028E00074EF14F07EEF14F0000E3B6E000E3C6EA1
:1028F000800E3D6E7F0E3E6EACEF14F040BE8BEF4F
:1029000014F0405006E13F04D8B089EF14F08BEF8B
:1029100014F097EF14F0000E3B6E000E3C6E000EAC
:102920003D6E000E3E6E000E346EACEF14F03FC5EF
:102930003AF5FF0E3B16FF0E3C167F0E3D16000EBD
:102940003E163AA0A6EF14F0A8EF14F0A9EF14F089
:102950003D8ED8903A303E6E34503E123BC528F53D
:102960003CC529F53DC52AF53EC52BF51200610091
:10297000F8F4D9F46100FCF4DAF4DEC4F6F4DDC452
:10298000F7F4000EF86E0800F550250AD8A4CBEF36
:1029900014F0CDEF14F07FEF16F06100F8F4D9F4E5
:1029A0006100FCF4DAF4DE2A000EDD22000E0501DF
:1029B000736F000E726F72C576F573C577F5746923
:1029C0007569000E4F6E000E4E6E38EF15F0050162
:1029D00076816100F8F4D9F46100FCF4DAF4DE2ABF
:1029E000000EDD2238EF15F005017683E9EF14F0D3
:1029F00005017685E9EF14F005017687E9EF14F01B
:102A000005017689E9EF14F0000E4F6E010E4E6E4F
:102A100038EF15F06100F8F4D9F46100FCF4DAF451
:102A2000DEC4F6F4DDC4F7F4000EF86E0800F550CD
:102A3000426E436A4350000AD8B421EF15F004EF08
:102A400015F04250200AD8B4FCEF14F0030AD8B4B1
:102A500000EF15F0080AD8B4F8EF14F0060AD8B45D
:102A6000E7EF14F01D0AD8B4F4EF14F004EF15F0FA
:102A70004E504F10D8B43FEF15F041EF15F00AEF6C
:102A800015F0050176A147EF15F049EF15F04AEF73
:102A900015F076936100F8F4D9F46100FCF4DAF4EF
:102AA000DEC4F6F4DDC4F7F4000EF86E0800F5504D
:102AB0002A0AD8A45EEF15F060EF15F093EF15F039
:102AC0006100F8F4D9F46100FCF4DAF4DE2A000EB7
:102AD000DD22610000F5D9F4610004F5DAF461004B
:102AE0007CF342F5020EDE2661007CF343F5000E16
:102AF000DD22610008F5D9F461000CF5DAF461001B
:102B000078F372F5610074F373F573BF8CEF15F011
:102B10008AEF15F0E0EF15F07681726D731FD8B073
:102B2000732BE0EF15F06100F8F4D9F46100FCF4C8
:102B3000DAF4610078F308F5610074F309F56FECDD
:102B400019F008C572F509C573F5B0EF15F061000D
:102B5000F8F4D9F46100FCF4DAF4DE2A000EDD2288
:102B6000D00E426EFF0E436E6100F8F4D9F461009E
:102B7000FCF4DAF4DEC4F6F4DDC4F7F4000EF86E0B
:102B80000800F550446E456A4250442643504522A1
:102B900045500AE10A0E445CD8A0D1EF15F0D4EFFD
:102BA00015F0010ED5EF15F0000E506E516A505021
:102BB0005110D8A4DEEF15F0E0EF15F0A7EF15F0F7
:102BC0006100F8F4D9F46100FCF4DAF4DEC4F6F440
:102BD000DDC4F7F4000EF86E0800F550750AD8A4AD
:102BE000F4EF15F0F6EF15F041EF16F06100F8F490
:102BF000D9F46100FCF4DAF4DE2A000EDD22610073
:102C000000F5D9F4610004F5DAF461007CF342F5D3
:102C1000020EDE2661007CF343F5000EDD2261002A
:102C200008F5D9F461000CF5DAF4610078F344F5A5
:102C3000610074F345F544C546F545C547F5486A56
:102C4000496A4A6A4B6A4C6A4D6A3CC51CF53DC5E7
:102C50001DF546C51EF547C51FF548C520F549C5F4
:102C600021F54AC522F54BC523F54CC524F54DC5C4
:102C700025F56EEC18F01CC53CF51DC53DF5A0EF23
:102C800016F06100F8F4D9F46100FCF4DAF4DEC463
:102C9000F6F4DDC4F7F4000EF86E0800F550250ACE
:102CA000D8A455EF16F057EF16F070EF16F061004C
:102CB000F8F4D9F46100FCF4DAF4DE2A000EDD2227
:102CC000000E026E250E016E3CC503F53DC504F5F0
:102CD000CDEC1CF0000E3D6E010E3C6EA0EF16F028
:102CE0006100F8F4D9F46100FCF4DAF4DE2A000E95
:102CF000DD22000E3D6E000E3C6EA0EF16F061006E
:102D0000F8F4D9F46100FCF4DAF4DEC4F6F4DDC4BE
:102D1000F7F4000EF86E0800F550016E026A3CC52B
:102D200003F53DC504F5CDEC1CF06100F8F4D9F4D1
:102D30006100FCF4DAF4DE2A000EDD226AEF16F000
:102D400012001250800B1F6E12501224266E11AE0C
:102D5000ACEF16F0AEEF16F0AFEF16F0268026506F
:102D6000D8B4B5EF16F0B7EF16F0CCEF16F0262872
:102D7000D8A4BDEF16F0BFEF16F0C7EF16F0000EA7
:102D80000F6E000E106E000E116E000E126E118E80
:102D9000000E126ED4EF16F0000E0F6E000E106EC5
:102DA000000E116E000E126E1650800B1F1A165078
:102DB0001624276E15AEDFEF16F0E1EF16F0E2EF06
:102DC00016F027802750D8B4E8EF16F0EAEF16F097
:102DD000FFEF16F02728D8A4F0EF16F0F2EF16F068
:102DE000FAEF16F0000E136E000E146E000E156E44
:102DF000000E166E158E000E166E07EF17F0000E01
:102E0000136E000E146E000E156E000E166E13502B
:102E1000141015101610D8A410EF17F012EF17F0B9
:102E20002AEF17F0000E0F6E000E106E000E116EDE
:102E3000000E126E800E11127F0E12121F5012120F
:102E40000FC50FF510C510F511C511F512C512F516
:102E50006DEF18F02650D8A430EF17F032EF17F0CE
:102E60003CEF17F0000E0F6E000E106E000E116E8C
:102E7000000E126E6DEF18F0275026C517F5186A70
:102E8000175E000E185A7F0E1724206E000E1820B1
:102E9000216E0FC51BF510C51CF511C51DF512C51A
:102EA0001EF5000E0F6E000E106E000E116E000E5D
:102EB000126E000E226E000E236E000E246E000EA7
:102EC000256E000E276E9DEF17F02750D8B46BEFDC
:102ED00017F06DEF17F084EF17F0D8901B361C3603
:102EE0001D361E36D8900F3610361136123625AEE6
:102EF0007CEF17F07EEF17F07FEF17F00F80D89080
:102F0000223623362436253613501B5C14501C58A9
:102F100015501D5816501E58D8A091EF17F093EF7A
:102F200017F09CEF17F0258C13501B5E14501C5AA1
:102F300015501D5A16501E5A272A190E2764A3EF42
:102F400017F0A5EF17F065EF17F01B501C101D10C0
:102F50001E10D8B4AEEF17F0B0EF17F0C8EF17F0AF
:102F60002280C8EF17F0D8900F361036113612367F
:102F700025AEBDEF17F0BFEF17F0C0EF17F00F80D1
:102F8000D89022362336243625362006D8A02106AE
:102F900011AECDEF17F0CFEF17F0B3EF17F0000E33
:102FA000276E25AED6EF17F0D8EF17F0FCEF17F02D
:102FB000FF0E2214176EFF0E2314186EFF0E24143A
:102FC000196E7F0E25141A6E1750181019101A104A
:102FD000D8B4EDEF17F0EFEF17F0F3EF17F0010EA5
:102FE000276EFCEF17F00FA0F8EF17F0FAEF17F0CD
:102FF000FCEF17F0EFEF17F02750D8B402EF18F0FE
:1030000004EF18F028EF18F0010E0F26000E102222
:103010001122122212A00FEF18F011EF18F028EF72
:1030200018F00FC517F510C518F511C519F512C51B
:103030001AF51A341A3219321832173217C50FF529
:1030400018C510F519C511F51AC512F5204A212A1F
:1030500021BE33EF18F0215008E12028D8A033EF2B
:1030600018F035EF18F040EF18F0000E216E2068D0
:10307000000E0F6E000E106E000E116E000E126E1E
:1030800021BE4DEF18F0215006E12004D8B04BEFDF
:1030900018F04DEF18F05BEF18F0000E216E000EE7
:1030A000206E000E0F6E000E106E000E116E000EE0
:1030B000126E000E1F6E20C526F526A062EF18F0D6
:1030C00064EF18F067EF18F0118E68EF18F0119E9A
:1030D000D8902630126E1EEF17F01200050175BF52
:1030E00074EF18F076EF18F077EF18F0769375BF5D
:1030F00084EF18F0755106E17405D8B082EF18F02E
:1031000084EF18F08AEF18F0000E2F6E010E2E6E6D
:103110008EEF18F074C52EF575C52FF572C530F514
:1031200073C531F51EC532F51FC533F520C534F51D
:1031300021C535F522C536F523C537F524C538F543
:1031400025C539F5000E3B6E1F0E3A6E000EA16FBD
:1031500020EF19F03A06D8A03B06820E3A24D96E29
:10316000050E3B20DA6E32C501F533C502F534C5D4
:1031700003F535C504F536C505F537C506F538C57B
:1031800007F539C508F50A0E096E000E0A6E000E25
:103190000B6E000E0C6E000E0D6E000E0E6E000E0D
:1031A0000F6E000E106EA2EC1DF001C526F502C5D3
:1031B00027F503C528F504C529F505C52AF506C573
:1031C0002BF507C52CF508C52DF52650300FDF6E01
:1031D0002E06D8A02F063006D8A0310632C501F53C
:1031E00033C502F534C503F535C504F536C505F517
:1031F00037C506F538C507F539C508F50A0E096E55
:10320000000E0A6E000E0B6E000E0C6E000E0D6EA0
:10321000000E0E6E000E0F6E000E106E55EC1CF0C0
:1032200001C532F502C533F503C534F504C535F5DE
:1032300005C536F506C537F507C538F508C539F5AE
:103240003A503B10D8B427EF19F029EF19F05AEF94
:1032500019F0325033103410351036103710381042
:103260003910D8A436EF19F038EF19F0AAEF18F09A
:103270002FBE45EF19F02F5006E12E04D8B043EFD2
:1032800019F045EF19F0AAEF18F031BE50EF19F020
:10329000315008E13004D8A050EF19F052EF19F086
:1032A0005AEF19F0050176B358EF19F05AEF19F0FB
:1032B000AAEF18F01CC511F51DC512F5820E3A24AF
:1032C000136E050E3B20146E30C515F531C516F58D
:1032D0000AEC1EF011C51CF512C51DF51200000EFA
:1032E000166E000E156E000E0F6E000E0E6E7BEF4A
:1032F00019F0084A092A010E146E610020F4F6F450
:10330000610024F4F7F4000EF86E0800F550200A6E
:10331000D8B48DEF19F08FEF19F0B0EF19F0F70E68
:103320000A6EFF0E0B6E610020F4F6F4610024F4C7
:10333000F7F4000EF86E0800F5500C6E0D6A0A5096
:103340000C260B500D220D5009E1050E0C5CD8A087
:10335000ACEF19F0AEEF19F0B0EF19F0000E146EEB
:1033600014C510F5116A10501110D8A4BAEF19F055
:10337000BCEF19F079EF19F0C6EF19F0000E0F6EDF
:10338000010E0E6E084A092A03EF1AF0610020F4BC
:10339000F6F4610024F4F7F4000EF86E0800F5501E
:1033A0000A6E0B6A0B50000AD8B4D9EF19F003EF7C
:1033B0001AF00A502B0AD8B4C2EF19F0060AD8B492
:1033C000BEEF19F003EF1AF015C501F516C502F5A9
:1033D000000E046E0A0E036E4FEC20F0610020F424
:1033E000F6F4610024F4F7F4000EF86E0800F550CE
:1033F000015E000E025A300E0124156E000E0220EE
:10340000166EC2EF19F0D00E0A6EFF0E0B6E610041
:1034100020F4F6F4610024F4F7F4000EF86E0800CE
:10342000F5500C6E0D6A0A500C260B500D220D50F3
:103430000AE10A0E0C5CD8A020EF1AF023EF1AF074
:10344000010E24EF1AF0000E126E136A12501310C0
:10345000D8A42DEF1AF02FEF1AF0E4EF19F00E5068
:103460000F10D8A436EF1AF038EF1AF046EF1AF022
:1034700015C50AF516C50BF50A1E0B1E0A4A0B2ABE
:103480000AC508F50BC509F54AEF1AF015C508F588
:1034900016C509F51200096E0950D8B452EF1AF09A
:1034A00054EF1AF076EF1AF004BE5BEF1AF059EF02
:1034B0001AF076EF1AF001C505F502C506F503C549
:1034C00007F504C508F5051E061E071E081E052A79
:1034D000000E06220722082205C50BF506C50CF5CD
:1034E00007C50DF508C50EF57EEF1AF001C50BF501
:1034F00002C50CF503C50DF504C50EF5015002100B
:1035000003100410D8A487EF1AF089EF1AF093EF94
:103510001AF0000E016E000E026E000E036E000E19
:10352000046E24EF1BF0960E0A6E9DEF1AF00A2A25
:10353000D8900E320D320C320B32000E0B14056E89
:10354000000E0C14066E000E0D14076EFE0E0E1407
:10355000086E0550061007100810D8A4B2EF1AF034
:10356000B4EF1AF097EF1AF0C2EF1AF00A2A010E20
:103570000B26000E0C220D220E22D8900E320D3298
:103580000C320B32000E0B14056E000E0C14066E7E
:10359000000E0D14076EFF0E0E14086E0550061077
:1035A00007100810D8A4D7EF1AF0D9EF1AF0B6EF29
:1035B0001AF0E1EF1AF00A06D8900B360C360D36E9
:1035C0000E360DBEE6EF1AF0E8EF1AF0F0EF1AF043
:1035D000020E0A60EEEF1AF0F0EF1AF0DBEF1AF0CD
:1035E0000AB0F5EF1AF0F7EF1AF0F8EF1AF00D9EA7
:1035F000D8900A320AC505F5066A076A086A05C541
:1036000008F5076A066A056A05500B1206500C1287
:1036100007500D1208500E120950D8B412EF1BF0CB
:1036200014EF1BF01CEF1BF004BE1BEF1BF019EF97
:103630001BF01CEF1BF00E8E0BC501F50CC502F53F
:103640000DC503F50EC504F5120084EC20F0020E42
:10365000066E000E92EC1FF0110E066E250E076E20
:103660006DEC1EF00301F381F3B139EF1BF03BEF7A
:103670001BF034EF1BF0EA516000ACFF5AF55B6AB7
:103680005AC55BF55A6A5A105C6E5B505D6E000E4F
:103690002C6E000E2D6EC80E2E6E420E2F6E000E7A
:1036A000136EF00E146E7F0E156E450E166E5CC511
:1036B00001F55DC502F5036A046A000E4BEC1AF0D1
:1036C00001C50FF502C510F503C511F504C512F5C6
:1036D000A1EC16F00FC528F510C529F511C52AF57E
:1036E00012C52BF590EC12F028C541F529C542F51D
:1036F0002AC543F52BC544F5D2EC1BF041505E6E54
:10370000D69E05017E5178277F5179237A4B7B2BFA
:10371000D68E7B5109E1040E7A5DD8A092EF1BF0A2
:1037200094EF1BF0AAEF1BF078C55AF579C55BF54D
:10373000D8905B325A32D8905B325A325AC57CF5F7
:103740005BC57DF5000E7B6F000E7A6F000E796F02
:10375000000E786F5F50D8B4B0EF1BF0B2EF1BF0E3
:1037600032EF1BF0A20EB26F050EB36F010EB46FF5
:10377000250EB56F5EC5B6F5B76B7CC5B8F57DC5D2
:10378000B9F51EEC1FF0000E066E010E92EC1FF054
:10379000A20E066E050E076E6DEC1EF032EF1BF0EA
:1037A0000DEF00F0433444344A6E4A50D8A4DBEFA6
:1037B0001BF0DDEF1BF0E7EF1BF0000E416E000E7B
:1037C000426E000E436E000E446E54EF1CF041C575
:1037D00045F542C546F543C547F544C548F5200EB5
:1037E000F7EF1BF0D8904832473246324532E82E88
:1037F000F2EF1BF04550496E438EFF0E4116FF0E4F
:103800004216FF0E4316000E4416960E4A5E4ABE3E
:103810000EEF1CF00CEF1CF024EF1CF04A50800A55
:10382000970FD8B016EF1CF018EF1CF01AEF1CF031
:10383000DDEF1BF0D89044324332423241324A3EEF
:103840001AEF1CF03CEF1CF01F0E4A642AEF1CF02C
:103850002CEF1CF034EF1CF0DDEF1BF0D89041365C
:103860004236433644364A064A50D8A43AEF1CF052
:103870003CEF1CF02EEF1CF04950D8B442EF1CF086
:1038800044EF1CF04CEF1CF0441E431E421E416CE2
:10389000000E42224322442241C541F542C542F571
:1038A00043C543F544C544F5120021EE11F1070E5E
:1038B000DE6AE806FDE209500A100B100C100D102C
:1038C0000E100F101010D8B468EF1CF06AEF1CF047
:1038D000BCEF1CF0010E196E78EF1CF0D890093681
:1038E0000A360B360C360D360E360F361036192AC0
:1038F00010AE7DEF1CF07FEF1CF06EEF1CF0D89047
:103900001136123613361436153616361736183663
:103910000950015C0A5002580B5003580C500458CF
:103920000D5005580E5006580F50075810500858A3
:10393000D8A09DEF1CF09FEF1CF0B0EF1CF00950D9
:10394000015E0A50025A0B50035A0C50045A0D5093
:10395000055A0E50065A0F50075A1050085A118037
:10396000D89010320F320E320D320C320B320A3236
:103970000932192E7FEF1CF011C501F512C502F5B1
:1039800013C503F514C504F515C505F516C506F5EB
:1039900017C507F518C508F5120003500410D8B470
:1039A000D4EF1CF0D6EF1CF0DFEF1CF00350041036
:1039B000D8A4DDEF1CF0DFEF1CF0E4EF1CF00150A9
:1039C000C2EC20F038EF1DF020EE04F00350D926B1
:1039D0000450DA22DE50DE10D8B4F1EF1CF0F3EF21
:1039E0001CF00EEF1DF020EE04F00350D926045019
:1039F000DA2210EE02F00350E1260450E222DE50FB
:103A0000E65CE650800A096EDE50800A0958D8B09C
:103A10000CEF1DF00EEF1DF038EF1DF020EE02F060
:103A20000350D9260450DA22610078F305F56100CD
:103A300074F306F561000CF4D9F4610010F4DAF4C3
:103A4000610078F307F5610074F308F50550072469
:103A5000D96E06500820DA6E610004F4DFF420EE1F
:103A600002F00350D9260450DA22DE2A000EDD22AD
:103A70001200B1AE3EEF1DF040EF1DF08FEF1DF0D4
:103A8000010E05016827000E69236A236B236C234E
:103A90006D236E236F23010E6027000E61236223C6
:103AA00063236423652366236723804B812B815125
:103AB00009E1320E805DD8A060EF1DF062EF1DF0CD
:103AC00071EF1DF05F50D8B468EF1DF06BEF1DF083
:103AD000010E6CEF1DF0000E5F6E000E816F000E88
:103AE000806F6F516E116D116C116B116A110BE1CA
:103AF000F40E685D010E6959D8A081EF1DF083EFC7
:103B00001DF08BEF1DF0080EC31A21EE68F1070EB1
:103B1000DE6AE806FDE2060E0301186FB19EAFA053
:103B200094EF1DF096EF1DF0A1EF1DF060C57EF53E
:103B300061C57FF521EE60F1070EDE6AE806FDE261
:103B4000AF90110009500A100B100C100D100E1040
:103B50000F101010D8B4AFEF1DF0B1EF1DF0F9EF5A
:103B60001DF0010E116EBFEF1DF0D89009360A3618
:103B70000B360C360D360E360F361036112A10AEB7
:103B8000C4EF1DF0C6EF1DF0B5EF1DF00950015C4C
:103B90000A5002580B5003580C5004580D50055849
:103BA0000E5006580F50075810500858D8A0DBEF99
:103BB0001DF0DDEF1DF0EDEF1DF00950015E0A5024
:103BC000025A0B50035A0C50045A0D50055A0E500D
:103BD000065A0F50075A1050085AD89010320F3218
:103BE0000E320D320C320B320A320932112EC6EF70
:103BF0001DF001C501F502C502F503C503F504C5B5
:103C000004F505C505F506C506F507C507F508C59C
:103C100008F51200050176A110EF1EF012EF1EF05C
:103C20001CEF1EF013C50AF514C50BF511C50CF5F4
:103C300012C50DF570EC1FF016BE21EF1EF023EF3C
:103C40001EF029EF1EF015C51AF516C51BF52DEF50
:103C50001EF0000E1B6E000E1A6E000E196E000E86
:103C6000186E3FEF1EF0000E026E200E016E11C5A1
:103C700003F512C504F5CDEC1CF0184A192A1A50A8
:103C8000185C1950800A176E1B50800A1758D8A06C
:103C90004CEF1EF04EEF1EF033EF1EF0050176B133
:103CA00054EF1EF056EF1EF060EF1EF013C50AF53C
:103CB00014C50BF511C50CF512C50DF570EC1FF010
:103CC00013C501F514C502F516EC20F01A500124B5
:103CD000116E1B500220126E1200000E0A6E8DEF44
:103CE0001EF00A500624086E000E0720096E6100BF
:103CF00020F4F6F4610024F4F7F4000EF86E240EBC
:103D0000F76403D00800F55005D0F6C4E1F4F7C419
:103D1000E2F4E750BCEC20F00A2A0A500624086EB0
:103D2000000E0720096E610020F4F6F4610024F40F
:103D3000F7F4000EF86E240EF76403D00800F55077
:103D400005D0F6C4E1F4F7C4E2F4E7500009D8A4C2
:103D5000ACEF1EF0AEEF1EF071EF1EF01200026E1F
:103D60000250F00B036E02C501F50F0E011601386B
:103D7000F00B046E0350C312C384060E016E300EA6
:103D8000E82EFED7012EFCD700D0C394060E016E9C
:103D9000300EE82EFED7012EFCD700D00350FF0ACC
:103DA000C3160450C312C384060E016E300EE82EF3
:103DB000FED7012EFCD700D0C394060E016E300E44
:103DC000E82EFED7012EFCD700D00450FF0AC31600
:103DD000120054C558F555C559F5000E0501716F0F
:103DE000000E706F07EF1FF052C53CF553C53DF54F
:103DF000580E3E6E050E3F6E56C540F557C541F54F
:103E0000B7EC14F03C50050170273D507123610060
:103E100060F5F6F4610064F5F7F4000EF86E080042
:103E2000F5500009D8A417EF1FF019EF1FF0F4EFB9
:103E30001EF070C552F571C553F51200B60E05019E
:103E4000BA6F050EBB6FB2C5BCF5B3C5BDF5000EAC
:103E5000BF6F000EBE6F000EC16F000EC06FBC0EB4
:103E6000526E050E536EB4C554F5B5C555F5BA0E70
:103E7000566E050E576EE9EC1EF00501BE51B225D7
:103E8000D96EBF51B321DA6E000EDF6E1200010E43
:103E9000076E200E01180210D8B451EF1FF053EF37
:103EA0001FF06CEF1FF0F70E036EFF0E046E01C5DE
:103EB00005F502C506F503500526045006220650F6
:103EC00009E1050E055CD8A068EF1FF06AEF1FF04E
:103ED0006CEF1FF0000E076E07C501F5026A1200B5
:103EE000000E106E000E0F6E81EF1FF00EC501F573
:103EF000026A0CC503F50DC504F5CDEC1CF00F4AA4
:103F0000102A0F500A24D96E10500B20DA6EDF50A1
:103F10000E6E0E50D8A48FEF1FF091EF1FF076EFCA
:103F20001FF01200076E000E086E0750D8A49BEF1A
:103F30001FF09DEF1FF0A1EF1FF0800E086EAEEF97
:103F40001FF00704D8A4A7EF1FF0A9EF1FF0ADEFF3
:103F50001FF0C00E086EAEEF1FF000F006500826EE
:103F60000850B6EC20F01200000E0301F36F000EB3
:103F7000F46F000EF56FF39FF39DF399F391010E2B
:103F8000FA6FF385F899FC0EF817000EEC6FC680F7
:103F900004010081000E0301F26F000EF16F000EAC
:103FA000EF6F000EEE6FF38F1200AFEC20F0020EF9
:103FB000076E040E066EBA0EE82EFED7062EFCD74C
:103FC000072EFAD700D0010EB6EC20F0020EB6ECA8
:103FD00020F0060EB6EC20F00C0EB6EC20F0100E21
:103FE000B6EC20F02C0EB6EC20F012000001AD5122
:103FF0008F0B6009AD6F610004F4D9F4610008F41F
:10400000DAF4DF50036EAD510318F00B0318AD6FF7
:1040100020EE01F00150D9260250DA22DF50036E63
:10402000B1510318F00B0318B16F120001C503F56D
:1040300002C504F51EEF20F0014A022A610004F4D3
:10404000D9F4610008F4DAF4DF50D8A42AEF20F0A4
:104050002CEF20F01CEF20F00350015C016E0450A7
:104060000258026E1200D00E036EFF0E046E01C5E0
:1040700005F502C506F50350052604500622065034
:104080000AE10A0E055CD8A048EF20F04BEF20F0C3
:10409000010E4CEF20F0000E016E026A120001507A
:1040A00003026100CCF305F56100D0F306F5015081
:1040B0000402F350062602500302F350062605C5FB
:1040C00001F506C502F5120001EE60F1520EEE6A2E
:1040D000E806FDE15F6A0401080E5D6F000E5E6F89
:1040E000000E5F6F000125EF1BF0000E03011A6F39
:1040F000000E1B6F1A9F1A991A511B8D1B891B8565
:10410000060E186F1A8F120091EC20F09CEC20F034
:1041100075EC20F0B4EC1FF0A6EC20F0D5EC1FF00D
:104120001200050E056E000E046E040E016E050EE3
:10413000026EF6EC1FF01200000ED66ED68ED69AE6
:10414000AF909F80D690B19EA18E1200CB960401B5
:104150002897C396C68400950891C7801200000E68
:10416000CB6E000E0401286FC3921200056EC3903F
:104170000550AFEC1EF01200056EC3800550AFEC89
:064180001EF01200120007
:020000040020DA
:10000000FF0FFF0FFF0FFF0FFF0FFF0FFF0FFF0F80
:10001000FF0FFF0FFF0FFF0FFF0FFF0FFF0FFF0F70
:10002000FF0FFF0FFF0FFF0FFF0FFF0FFF0FFF0F60
:10003000FF0FFF0FFF0FFF0FFF0FFF0FFF0FFF0F50
:020000040030CA
:0A0000008CD5E7C79FFFFFFFFFFF4D
:00000001FF
