:040000000DEF00F010
:040008002FEF24F0C2
:06001800FF007FEF2AF05B
:1026000000563D252D3375252520523D252D332E91
:10261000306672706D004D4F544F522053544F50DE
:1026200050454421005046204D4F544F52205250A7
:102630004D004A756C696F204D6F74746100433DA5
:10264000252D332E33664100696E66006E616E0083
:012650000089
:10265200000E0501816F52C582F553C583F554C53D
:1026620084F555C585F585BF3BEF13F039EF13F0BF
:102672004FEF13F0010E816F82C504F583C505F596
:1026820084C506F585C507F500EC2BF004C582F577
:1026920005C583F506C584F507C585F5000E050158
:1026A200876F000E866FECC571F5EDC572F581512D
:1026B200D8B45EEF13F060EF13F074EF13F08151B2
:1026C200D8A466EF13F068EF13F06EEF13F0000E6C
:1026D200676F2B0E666F72EF13F0000E676F2D0E91
:1026E200666F66C581F582C504F583C505F584C5A7
:1026F20006F585C507F5C7EC25F004040510D8A436
:1027020085EF13F087EF13F0BAEF13F00501815153
:10271200D8B48EEF13F090EF13F099EF13F081C558
:1027220000F67107D8A07207000E876F010E866F40
:10273200000E8625046E060E8721056E480E066E73
:10274200260E076E19EC2AF00501FD0E7127FF0E09
:10275200722350C514F551C515F5000E166E060EFE
:10276200176E71C518F572C519F58BEC27F024EFB9
:1027720018F082C504F583C505F584C506F585C53F
:1027820007F5C7EC25F004500510D8A4CBEF13F0E1
:10279200CDEF13F0EDEF13F005018151D8B4D4EF72
:1027A20013F0D6EF13F0DFEF13F081C500F67107D7
:1027B200D8A07207000E876F010E866F000E862565
:1027C200046E060E8721056E4C0E066E260E076EEF
:1027D20019EC2AF0A5EF13F0000E0501886F000E28
:1027E200896F800E8A6F3F0E8B6F000E706F000E26
:1027F2006F6F82C504F583C505F584C506F585C5E9
:1028020007F5000E086E000E096E000E0A6E000E2D
:102812000B6EE0EC27F0D8B011EF14F013EF14F0C8
:10282200F2EF14F020EF14F073C588F574C589F542
:1028320075C58AF576C58BF505016F4B702B88C57A
:102842002BF589C52CF58AC52DF58BC52EF5000E05
:102852002F6E000E306E200E316E410E326EA5ECE0
:102862001CF02BC573F52CC574F52DC575F52EC559
:1028720076F505017351825D046E74518359056EBC
:1028820075518459066E76518559076EE7EC28F02A
:1028920007BE57EF14F007500610051009E1020EAB
:1028A200045CD8A057EF14F059EF14F015EF14F0B0
:1028B20073C544F574C545F575C546F576C547F546
:1028C20082C548F583C549F584C54AF585C54BF5EA
:1028D20045EC25F0D8A070EF14F072EF14F015EF6C
:1028E20014F005018851825D046E89518359056E89
:1028F2008A518459066E8B518559076EE7EC28F090
:1029020007BE91EF14F007500610051007E1020E02
:10291200045CD8B08FEF14F091EF14F0D9EF14F0FB
:1029220088C582F589C583F58AC584F58BC585F589
:10293200F2EF14F088C512F589C513F58AC514F5AE
:102942008BC515F5000E166E000E176E200E186E52
:10295200410E196EBAEC1EF012C588F513C589F541
:1029620014C58AF515C58BF505016F07D8A0700748
:102972008851825D046E89518359056E8A5184594A
:10298200066E8B518559076EE7EC28F007BED7EF2C
:1029920014F007500610051007E1020E045CD8B0CF
:1029A200D5EF14F0D7EF14F0D9EF14F091EF14F043
:1029B20082C544F583C545F584C546F585C547F509
:1029C20088C548F589C549F58AC54AF58BC54BF5D1
:1029D20045EC25F0D8A0F0EF14F0F2EF14F09BEFE5
:1029E20014F056C569F569C56AF50501EFBFFCEF3C
:1029F20014F0FEEF14F004EF15F0EEC562F5EFC52A
:102A020063F508EF15F0000E636F060E626F62C584
:102A12006DF563C56EF56D4B6E2B660E6A19D8A403
:102A220015EF15F017EF15F037EF15F070BF1EEF29
:102A320015F01CEF15F02AEF15F0000E886F000E4E
:102A4200896F800E8A6F3F0E8B6F000E706F000EC3
:102A52006F6F670E6919D8B431EF15F033EF15F0C7
:102A620037EF15F06F516D2770516E23000E786F9E
:102A7200000E776F82C579F583C57AF584C57BF53B
:102A820085C57CF588C573F589C574F58AC575F564
:102A92008BC576F5C8EF15F079C512F57AC513F531
:102AA2007BC514F57CC515F588C516F589C517F5DE
:102AB2008AC518F58BC519F5BAEC1EF012C52BF5AF
:102AC20013C52CF514C52DF515C52EF54CEC22F0C9
:102AD2002BC57DF52CC57EF52DC57FF52EC580F560
:102AE2007DC544F57EC545F57FC546F580C547F5EC
:102AF200C2EC24F044C56BF545C56CF579C544F5C7
:102B02007AC545F57BC546F57CC547F57DC52FF5EC
:102B12007EC530F57FC531F580C532F588C52BF508
:102B220089C52CF58AC52DF58BC52EF5A5EC1CF0B3
:102B32002BC548F52CC549F52DC54AF52EC54BF5D3
:102B4200F6EC29F044C579F545C57AF546C57BF51D
:102B520047C57CF588C512F589C513F58AC514F5F4
:102B62008BC515F5000E166E000E176E200E186E30
:102B7200410E196EBAEC1EF012C588F513C589F51F
:102B820014C58AF515C58BF50501774B782B6D5168
:102B9200775D7851800A576E6E51800A5758D8A0D7
:102BA200D5EF15F0D7EF15F04DEF15F088C52BF5E1
:102BB20089C52CF58AC52DF58BC52EF5000E2F6E15
:102BC200000E306EA00E316E400E326EA5EC1CF07F
:102BD2002BC57DF52CC57EF52DC57FF52EC580F55F
:102BE20079C544F57AC545F57BC546F57CC547F5FB
:102BF2007DC548F57EC549F57FC54AF580C54BF5CB
:102C020045EC25F0D8B008EF16F00AEF16F015EFF4
:102C120016F0000E05017D6F000E7E6F000E7F6FB5
:102C2200000E806F3EEF16F079C504F57AC505F502
:102C32007BC506F57CC507F57DC508F57EC509F59A
:102C42007FC50AF580C50BF5E0EC27F0D8A02CEF84
:102C520016F02EEF16F03EEF16F005016BB134EFD1
:102C620016F036EF16F03EEF16F0000E7D6F000EF6
:102C72007E6F000E7F6F000E806F82C504F583C5E4
:102C820005F584C506F585C507F57DC508F57EC53C
:102C920009F57FC50AF580C50BF525EC18F004C5CA
:102CA20079F505C57AF506C57BF507C57CF579C5C5
:102CB20044F57AC545F57BC546F57CC547F5000E5A
:102CC2002F6E000E306E200E316E410E326E73C5C5
:102CD2002BF574C52CF575C52DF576C52EF5A5EC2D
:102CE2001CF02BC548F52CC549F52DC54AF52EC556
:102CF2004BF545EC25F0D8A081EF16F083EF16F0E6
:102D0200ACEF16F005016F4B702B73C52BF574C534
:102D12002CF575C52DF576C52EF5000E2F6E000E1D
:102D2200306E200E316E410E326EA5EC1CF02BC5BA
:102D320073F52CC574F52DC575F52EC576F5660EA1
:102D420005016A19D8A4A8EF16F0AAEF16F0ACEFA5
:102D520016F06D4B6E2B73C588F574C589F575C574
:102D62008AF576C58BF56FC560F570C561F5000E05
:102D72000501686F000E656F000E646F000E786FBC
:102D8200000E776FAAEF17F079C512F57AC513F521
:102D92007BC514F57CC515F588C516F589C517F5EB
:102DA2008AC518F58BC519F5BAEC1EF012C52BF5BC
:102DB20013C52CF514C52DF515C52EF54CEC22F0D6
:102DC2002BC57DF52CC57EF52DC57FF52EC580F56D
:102DD2007DC544F57EC545F57FC546F580C547F5F9
:102DE200C2EC24F045BE01EF17F0455007E10A0E90
:102DF200445CD8B0FFEF16F001EF17F011EF17F0B7
:102E02007DC544F57EC545F57FC546F580C547F5C8
:102E1200C2EC24F044C56BF545C56CF516EF17F00E
:102E2200000E05016C6F090E6B6F05016851D8A485
:102E32001DEF17F01FEF17F047EF17F061BF26EFF6
:102E420017F024EF17F047EF17F0000E8625D96E22
:102E5200060E8721DA6E2E0EDF6E864B872B7107E8
:102E6200D8A07207010E686F47EF17F0000E862593
:102E7200D96E060E8721DA6E300EDF6E864B872BF7
:102E82007107D8A072076407D8A06507645165115D
:102E9200D8A44EEF17F050EF17F037EF17F0000EEF
:102EA2008625D96E060E8721DA6E6B51300FDF6EE2
:102EB200864B872B7107D8A0720779C544F57AC56E
:102EC20045F57BC546F57CC547F57DC52FF57EC525
:102ED20030F57FC531F580C532F588C52BF589C53A
:102EE2002CF58AC52DF58BC52EF5A5EC1CF02BC54E
:102EF20048F52CC549F52DC54AF52EC54BF5F6EC1E
:102F020029F044C579F545C57AF546C57BF547C52F
:102F12007CF588C512F589C513F58AC514F58BC5EC
:102F220015F5000E166E000E176E200E186E410E6D
:102F3200196EBAEC1EF012C588F513C589F514C5D1
:102F42008AF515C58BF505016007D8A06107774B97
:102F5200782B6D51775D7851800A576E6E51800AD9
:102F62005758D8B0B7EF17F0B9EF17F0C7EF17F00F
:102F720087BFC5EF17F0875109E14B0E865DD8A0D8
:102F8200C5EF17F0C7EF17F0C5EF16F0000E786F18
:102F92004F0E776F000E7725D96E060E7821DA6E06
:102FA200DF6A000E576E060E586E8651575E8751C5
:102FB200585A77515724046E78515820056E000EE6
:102FC200066E060E076E86C508F587C509F5CEECB6
:102FD20029F005018651775D866F87517859876F91
:102FE2008151D8A4F7EF17F0FAEF17F0010EFBEFBB
:102FF20017F0000E776F786B8151D8B403EF18F099
:1030020005EF18F010EF18F08607D8A08707000E1A
:103012008625D96E060E8721DA6E81C5DFF47751D7
:10302200715F7851725B50C514F551C515F5000EEC
:103032008625166E060E8721176E71C518F572C5A4
:1030420019F58BEC27F012000750800B106E075019
:103052000724126E06AE30EF18F032EF18F033EF9D
:1030620018F012801250D8B439EF18F03BEF18F074
:1030720050EF18F01228D8A441EF18F043EF18F0DF
:103082004BEF18F0000E046E000E056E000E066E79
:10309200000E076E068E000E076E58EF18F0000E37
:1030A200046E000E056E000E066E000E076E0B50CB
:1030B200800B116E10501118D8B462EF18F064EF43
:1030C20018F065EF18F0108C0B500B24116E0AAE3D
:1030D2006DEF18F06FEF18F070EF18F011801150CB
:1030E200D8B476EF18F078EF18F08DEF18F01128B9
:1030F200D8A47EEF18F080EF18F088EF18F0000ED9
:10310200086E000E096E000E0A6E000E0B6E0A8E1D
:10311200000E0B6E95EF18F0000E086E000E096E91
:10312200000E0A6E000E0B6E1250115CD8B09CEFAE
:1031320018F09EEF18F0C5EF18F010ACA3EF18F0DE
:10314200A5EF18F0A7EF18F0800E101A12C513F5AC
:1031520011C512F513C511F504C513F508C504F51B
:1031620013C508F505C513F509C505F513C509F518
:1031720006C513F50AC506F513C50AF507C513F505
:103182000BC507F513C50BF5000E136E125011C5D2
:103192000CF50D6A0C5E000E0D5A0DBEDAEF18F03A
:1031A2000D5009E11A0E0C5CD8A0DAEF18F0DCEF32
:1031B20018F013EF19F00450051006100710D8A4E8
:1031C200E5EF18F0E8EF18F0010EE9EF18F0000E45
:1031D200136E000E046E000E056E000E066E000EDB
:1031E200076E11C512F51CEF19F013A0FBEF18F0D2
:1031F200FDEF18F003EF19F0D89013300109136EA8
:1032020005EF19F0D890133204A00AEF19F00CEF71
:1032120019F00DEF19F0138E07340732063205321A
:103222000432122A1150125CD8A01AEF19F01CEFC6
:1032320019F0F6EF18F010BC21EF19F023EF19F096
:1032420063EF19F01250D8A429EF19F02BEF19F0FF
:1032520035EF19F0000E046E000E056E000E066EBC
:10326200000E076E84EF1AF008500426095005225A
:103272000A5006220B50072207A042EF19F044EF32
:1032820019F0F0EF19F013A049EF19F04BEF19F014
:1032920051EF19F0D89013300109136E53EF19F062
:1032A200D890133204A058EF19F05AEF19F05BEFDF
:1032B20019F0138E07340732063205320432122A0D
:1032C200F0EF19F00850045C095005580A500658EE
:1032D2000750800A0C6E0B50800A0C58D8B074EF5D
:1032E20019F076EF19F0A1EF19F00450085C0C6E9A
:1032F200055009580D6E06500A580E6E07500B58AD
:103302000F6EFF0E0C24046EFF0E0D20056EFF0ED5
:103312000E20066EFF0E0F20076E800E101A136C21
:103322001350D8A497EF19F099EF19F0A9EF19F0FB
:10333200010E0426000E052206220722A9EF19F02B
:103342000850045E0950055A0A50065A0B50075A93
:103352000450051006100710D8A4B2EF19F0B4EF0C
:1033620019F0E9EF19F01350D8A4BAEF19F0BCEF35
:1033720019F0E9EF19F0000E046E000E056E000E52
:10338200066E000E076E84EF1AF0D89004360536EA
:103392000636073613AED0EF19F0D2EF19F0D3EF9D
:1033A20019F0048013A0D8EF19F0DAEF19F0DEEF6C
:1033B20019F0D8801336E0EF19F0D8901336125076
:1033C200D8B4E6EF19F0E8EF19F0E9EF19F01206B8
:1033D20006AEEEEF19F0F0EF19F0C6EF19F0000E9D
:1033E200116E13AEF7EF19F0F9EF19F011EF1AF0B1
:1033F20013C50CF57F0E0C16D8B402EF1AF004EFC9
:103402001AF008EF1AF0010E116E11EF1AF004A073
:103412000DEF1AF00FEF1AF011EF1AF004EF1AF095
:103422001150D8B417EF1AF019EF1AF044EF1AF04E
:10343200010E0426000E05220622072207A024EF11
:103442001AF026EF1AF044EF1AF004C50CF505C580
:103452000DF506C50EF507C50FF50F340F320E3206
:103462000D320C320CC504F50DC505F50EC506F579
:103472000FC507F51228D8B441EF1AF043EF1AF03E
:1034820044EF1AF0122A1228D8B44AEF1AF04CEF7D
:103492001AF054EF1AF01250D8A452EF1AF054EF67
:1034A2001AF066EF1AF0000E046E000E056E000EA2
:1034B200066E000E076E1250D8A462EF1AF064EF87
:1034C2001AF066EF1AF0000E106E12A06BEF1AF0EF
:1034D2006DEF1AF070EF1AF0068E71EF1AF0069E79
:1034E200D8901230076E10AE79EF1AF07BEF1AF017
:1034F2007CEF1AF0078E04C504F505C505F506C56F
:1035020006F507C507F512008EC5D9F48FC5DAF4A2
:10351200DEC4F6F4DDC4F7F4000EF86E0800F550D0
:10352200250AD8A497EF1AF099EF1AF08EEF1CF043
:103532008EC5D9F48FC5DAF4DE2A000EDD22000E24
:103542000501ED6F000EEC6FECC559F5EE69EF6900
:10355200000E956F000E946FDBEF1AF059808EC546
:10356200D9F48FC5DAF4DE2A000EDD22DBEF1AF081
:10357200000E956F010E946FDBEF1AF08EC5D9F431
:103582008FC5DAF4DEC4F6F4DDC4F7F4000EF86E8B
:103592000800F550926F936B9351000AD8B4D4EFA0
:1035A2001AF0B9EF1AF092512D0AD8B4AFEF1AF00F
:1035B200B9EF1AF094519511D8B4E2EF1AF0E4EF92
:1035C2001AF0BFEF1AF08EC50AF58FC50BF590C53C
:1035D2000CF591C50DF5BFEC26F00AC5ECF50BC54F
:1035E200EDF50501EDBFFAEF1AF0F8EF1AF0FFEF73
:1035F2001AF05980EC6DED1FD8B0ED2B8EC5D9F4C1
:103602008FC5DAF4DEC4F6F4DDC4F7F4000EF86E0A
:103612000800F5502E0AD8A411EF1BF013EF1BF08F
:1036220028EF1BF08EC5D9F48FC5DAF4DE2A000E1E
:10363200DD228EC50AF58FC50BF590C50CF591C537
:103642000DF5BFEC26F00AC5EEF50BC5EFF58EC5FC
:10365200D9F48FC5DAF4DEC49BF5DDC49CF59BC5B5
:10366200F6F49CC5F7F4000EF86E0800F550750AE2
:10367200D8A43EEF1BF040EF1BF089EF1BF090C582
:10368200D9F491C5DAF4DFC492F5020EDE26DFC466
:1036920093F5000EDD2292C5D9F493C5DAF4DEC4A7
:1036A20096F5DDC497F5010E05019B25926F000E7C
:1036B2009C21936F8EC5D9F48FC5DAF492C5DEF4DE
:1036C20093C5DDF471EF1BF08CC51FF58DC520F598
:1036D20096C521F597C522F546EC26F0A4EF1CF01D
:1036E2009BC5F6F49CC5F7F4000EF86E0800F55081
:1036F200926F936B9351000AD8B482EF1BF089EF5B
:103702001BF09251750AD8B465EF1BF089EF1BF0DC
:103712008EC5D9F48FC5DAF4DEC49BF5DDC49CF501
:103722009BC5F6F49CC5F7F4000EF86E0800F5C4CC
:103732009AF5A8EF1BF09B4B9C2BC2EF1BF06C0E73
:103742009A6FC2EF1BF0000E9A6FC2EF1BF00501D9
:103752009A51926F936B9351000AD8B4B3EF1BF056
:10376200A4EF1BF092514C0AD8B49CEF1BF02A0A2A
:10377200D8B4A0EF1BF00A0AD8B49CEF1BF0A4EF58
:103782001BF09BC5F6F49CC5F7F4000EF86E08001A
:10379200F550660AD8A4D0EF1BF0D2EF1BF05EEF13
:1037A2001CF008EF1CF090C5D9F491C5DAF4DFC41F
:1037B20092F5040EDE26DFC493F5000EDD2292C5DB
:1037C200D9F493C5DAF4DEC496F5DEC497F5DEC407
:1037D20098F5DEC499F51DEF1CF090C5D9F491C59A
:1037E200DAF4DFC492F5040EDE26DFC493F5000E90
:1037F200DD2292C5D9F493C5DAF4DEC496F5DEC4AF
:1038020097F5DEC498F5DEC499F51DEF1CF09A51C8
:10381200926F936B9351000AD8B412EF1CF01DEF14
:103822001CF092514C0AD8B4EEEF1BF0200AD8B427
:10383200D4EF1BF01DEF1CF0010E9B25926F000EC2
:103842009C21936F8EC5D9F48FC5DAF492C5DEF44C
:1038520093C5DDF446EF1CF08CC550F58DC551F5CE
:1038620096C552F597C553F598C554F599C555F5C2
:103872009BC5F6F49CC5F7F4000EF86E0800F5C47B
:1038820056F529EC13F0A4EF1CF09BC5F6F49CC589
:10389200F7F4000EF86E0800F550926F936B935197
:1038A200000AD8B457EF1CF05EEF1CF09251660A82
:1038B200D8B42DEF1CF05EEF1CF08EC5D9F48FC585
:1038C200DAF4DEC4F6F4DDC4F7F4000EF86E080094
:1038D200F550250AD8A470EF1CF072EF1CF085EFAA
:1038E2001CF08EC5D9F48FC5DAF4DE2A000EDD2273
:1038F200000E056E250E046E8CC506F58DC507F506
:1039020026EC27F0A4EF1CF08EC5D9F48FC5DAF4AB
:10391200DE2A000EDD22A4EF1CF08EC5D9F48FC57D
:10392200DAF4DEC4F6F4DDC4F7F4000EF86E080033
:10393200F550046E056A8CC506F58DC507F526ECB3
:1039420027F085EF1CF012002E50800B376E2E50A0
:103952002E243D6E2DAEB0EF1CF0B2EF1CF0B3EF93
:103962001CF03D803D50D8B4B9EF1CF0BBEF1CF009
:10397200CEEF1CF03D28D8A4C1EF1CF0C3EF1CF021
:10398200CBEF1CF0000E2B6E000E2C6E000E2D6E77
:10399200000E2E6E2D8ED6EF1CF0000E2B6E000E3A
:1039A2002C6E000E2D6E000E2E6E3250800B371ACA
:1039B20032503224386E31AEE1EF1CF0E3EF1CF0EE
:1039C200E4EF1CF038803850D8B4EAEF1CF0ECEF8A
:1039D2001CF0FFEF1CF03828D8A4F2EF1CF0F4EF33
:1039E2001CF0FCEF1CF0000E2F6E000E306E000E6D
:1039F200316E000E326E318E07EF1DF0000E2F6E0B
:103A0200000E306E000E316E000E326E3850D8B499
:103A12000DEF1DF00FEF1DF017EF1DF03D50D8A474
:103A220015EF1DF017EF1DF021EF1DF0000E2B6EAC
:103A3200000E2C6E000E2D6E000E2E6EB9EF1EF0D3
:103A420031502B02F3C442F5F4C443F54250396EAF
:103A52003A6A3B6A3C6A43503E6E3F6A406A416A38
:103A620030502C02F3C442F5F4C443F542503926D7
:103A7200000E3A223B223C2243503E26000E3F22B9
:103A8200402241222F502D02F3C442F5F4C443F5E3
:103A920042503926000E3A223B223C2243503E2617
:103AA200000E3F22402241223BC53CF53AC53BF580
:103AB20039C53AF5396A2F502C02F3C442F5F4C4E1
:103AC20043F54250392643503A22000E3B22000E63
:103AD2003C2230502B02F3C442F5F4C443F5425069
:103AE200392643503A22000E3B22000E3C223BC5AF
:103AF2003CF53AC53BF539C53AF5396A2F502B02E8
:103B0200F3C442F5F4C443F54250392643503A22F5
:103B1200000E3B22000E3C2231502C02F3C442F52F
:103B2200F4C443F542503E2643503F22000E402249
:103B3200000E412230502D02F3C442F5F4C443F585
:103B420042503E2643503F22000E4022000E4122A8
:103B520031502D02F3C442F5F4C443F54250336EA2
:103B62004350346E356A366A35C536F534C535F597
:103B720033C534F5336A33503E2634503F22355034
:103B820040223650412239C533F53AC534F53BC59A
:103B920035F53CC536F5190ED4EF1DF0D890363206
:103BA200353234323332E82ECFEF1DF033503E2619
:103BB20034503F2235504022365041223BC53CF51D
:103BC2003AC53BF539C53AF5396A38503DC533F542
:103BD200346A3326000E3422820E3324426EFF0EE4
:103BE2003420436E0AEF1EF0D8903E363F36403600
:103BF20041363CAEFFEF1DF001EF1EF002EF1EF06A
:103C02003E80D89039363A363B363C364206D8A00A
:103C1200430640AE0FEF1EF011EF1EF0F5EF1DF060
:103C2200000E386E3CAE18EF1EF01AEF1EF03EEF9B
:103C32001EF0FF0E3914336EFF0E3A14346EFF0E6F
:103C42003B14356E7F0E3C14366E335034103510F3
:103C52003610D8B42FEF1EF031EF1EF035EF1EF004
:103C6200010E386E3EEF1EF03EA03AEF1EF03CEF22
:103C72001EF03EEF1EF031EF1EF03850D8B444EF84
:103C82001EF046EF1EF06AEF1EF0010E3E26000EF9
:103C92003F224022412241A051EF1EF053EF1EF07D
:103CA2006AEF1EF03EC533F53FC534F540C535F524
:103CB20041C536F53634363235323432333233C5D5
:103CC2003EF534C53FF535C540F536C541F5424AA6
:103CD200432A43BE75EF1EF0435008E14228D8A0A4
:103CE20075EF1EF077EF1EF081EF1EF0000E3E6EB4
:103CF200000E3F6E800E406E7F0E416EAFEF1EF0E3
:103D020043BE8EEF1EF0435006E14204D8B08CEF62
:103D12001EF08EEF1EF09AEF1EF0000E3E6E000EA9
:103D22003F6E000E406E000E416E000E376EAFEF1A
:103D32001EF042C53DF5FF0E3E16FF0E3F167F0EEA
:103D42004016000E41163DA0A9EF1EF0ABEF1EF08B
:103D5200ACEF1EF0408ED8903D30416E375041128C
:103D62003EC52BF53FC52CF540C52DF541C52EF5B9
:103D720012001550800B226E15501524296E14AEB8
:103D8200C5EF1EF0C7EF1EF0C8EF1EF029802950C4
:103D9200D8B4CEEF1EF0D0EF1EF0E5EF1EF02928CA
:103DA200D8A4D6EF1EF0D8EF1EF0E0EF1EF0000E02
:103DB200126E000E136E000E146E000E156E148E2F
:103DC200000E156EEDEF1EF0000E126E000E136E59
:103DD200000E146E000E156E1950800B221A195027
:103DE20019242A6E18AEF8EF1EF0FAEF1EF0FBEF60
:103DF2001EF02A802A50D8B401EF1FF003EF1FF003
:103E020018EF1FF02A28D8A409EF1FF00BEF1FF0BC
:103E120013EF1FF0000E166E000E176E000E186ED6
:103E2200000E196E188E000E196E20EF1FF0000E94
:103E3200166E000E176E000E186E000E196E1650DA
:103E4200171018101910D8A429EF1FF02BEF1FF02C
:103E520043EF1FF0000E126E000E136E000E146E72
:103E6200000E156E800E14127F0E151222501512BE
:103E720012C512F513C513F514C514F515C515F5BC
:103E820086EF20F02950D8A449EF1FF04BEF1FF026
:103E920055EF1FF0000E126E000E136E000E146E20
:103EA200000E156E86EF20F02A5029C51AF51B6AFE
:103EB2001A5E000E1B5A7F0E1A24236E000E1B2060
:103EC200246E12C51EF513C51FF514C520F515C5C0
:103ED20021F5000E126E000E136E000E146E000E0F
:103EE200156E000E256E000E266E000E276E000E59
:103EF200286E000E2A6EB6EF1FF02A50D8B484EF57
:103F02001FF086EF1FF09DEF1FF0D8901E361F3670
:103F120020362136D890123613361436153628AE8E
:103F220095EF1FF097EF1FF098EF1FF01280D890D7
:103F3200253626362736283616501E5C17501F584F
:103F42001850205819502158D8A0AAEF1FF0ACEFF2
:103F52001FF0B5EF1FF0288C16501E5E17501F5A27
:103F62001850205A1950215A2A2A190E2A64BCEFD5
:103F72001FF0BEEF1FF07EEF1FF01E501F1020102B
:103F82002110D8B4C7EF1FF0C9EF1FF0E1EF1FF007
:103F92002580E1EF1FF0D89012361336143615360D
:103FA20028AED6EF1FF0D8EF1FF0D9EF1FF0128026
:103FB200D89025362636273628362306D8A024065A
:103FC20014AEE6EF1FF0E8EF1FF0CCEF1FF0000E8B
:103FD2002A6E28AEEFEF1FF0F1EF1FF015EF20F081
:103FE200FF0E25141A6EFF0E26141B6EFF0E2714E9
:103FF2001C6E7F0E28141D6E1A501B101C101D10F3
:10400200D8B406EF20F008EF20F00CEF20F0010EFC
:104012002A6E15EF20F012A011EF20F013EF20F01E
:1040220015EF20F008EF20F02A50D8B41BEF20F053
:104032001DEF20F041EF20F0010E1226000E132298
:104042001422152215A028EF20F02AEF20F041EFCC
:1040520020F012C51AF513C51BF514C51CF515C5BC
:104062001DF51D341D321C321B321A321AC512F5CF
:104072001BC513F51CC514F51DC515F5234A242AC5
:1040820024BE4CEF20F0245008E12328D8A04CEFA6
:1040920020F04EEF20F059EF20F0000E246E23683E
:1040A200000E126E000E136E000E146E000E156ED0
:1040B20024BE66EF20F0245006E12304D8B064EF5A
:1040C20020F066EF20F074EF20F0000E246E000E58
:1040D200236E000E126E000E136E000E146E000E92
:1040E200156E000E226E23C529F529A07BEF20F064
:1040F2007DEF20F080EF20F0148E81EF20F0149EEF
:10410200D8902930156E37EF1FF0120061EC2BF0BA
:10411200C18E010EB8EC2BF0020E096E000E5DECA2
:104122002AF0250E096E260E0A6E35EC28F0020ED4
:10413200096E010E5DEC2AF0320E096E260E0A6E31
:1041420035EC28F0520E0501BE6F2B0EBD6F000E2E
:10415200E82EFED7BD2FFCD7BE2FFAD700F0010EF6
:10416200B8EC2BF0000E1CEC2BF004C5D2F505C503
:10417200D3F5010E1CEC2BF004C5CFF505C5D0F527
:10418200000E166EF00E176E7F0E186E450E196E2B
:10419200CFC504F5D0C505F5066A076A000E55ECD1
:1041A20023F004C512F505C513F506C514F507C5B8
:1041B20015F5BAEC1EF012C52BF513C52CF514C576
:1041C2002DF515C52EF5000E2F6E000E306EA00EC9
:1041D200316E400E326EA5EC1CF02BC5BFF52CC51E
:1041E200C0F52DC5C1F52EC5C2F5000E2F6E000E0D
:1041F200306EC80E316E420E326E000E166EF00E2A
:10420200176E7F0E186E450E196ED2C504F5D3C512
:1042120005F5066A076A000E55EC23F004C512F58F
:1042220005C513F506C514F507C515F5BAEC1EF05C
:1042320012C52BF513C52CF514C52DF515C52EF594
:10424200A5EC1CF02BC544F52CC545F52DC546F54E
:104252002EC547F5C2EC24F044500501D16FD2C5FA
:10426200BDF5D3C5BEF5D890BD37BE37D890BD37A2
:10427200BE37D890BD350301406F0501BE3503013D
:10428200416FD69E0501F451F027F551F123F24B0F
:10429200F32BD68EF35109E1040EF25DD8A054EF50
:1042A20021F056EF21F06EEF21F0F0C5BDF5F1C51A
:1042B200BEF5D890BE33BD33D890BE33BD33060EA3
:1042C200BD25F96F000EBE21FA6F000EF36F000ECE
:1042D200F26F000EF16F000EF06F5A50D8B474EF07
:1042E20021F076EF21F0B3EF20F0880EF95D130E86
:1042F200FA59D8A07FEF21F081EF21F09FEF21F052
:10430200010EB8EC2BF0010E096E000E5DEC2AF0E6
:10431200160E096E260E0A6E35EC28F0C080150EB8
:104322000501BE6F4B0EBD6FBE0EE82EFED7BD2F30
:10433200FCD7BE2FFAD700F0B3EF20F06F0E2F6E2E
:10434200120E306E830E316E3A0E326EF9C504F5DE
:10435200FAC505F5066A076A000E55EC23F004C596
:104362002BF505C52CF506C52DF507C52EF5A5ECD3
:104372001CF02BC516F52CC517F52DC518F52EC545
:1043820019F5000E126E000E136E800E146E3F0EA3
:10439200156EBAEC1EF012C5C7F513C5C8F514C5E3
:1043A200C9F515C5CAF5C7C52BF5C8C52CF5C9C5CC
:1043B2002DF5CAC52EF5000E2F6E000E306E700E52
:1043C200316E420E326EA5EC1CF02BC5C3F52CC526
:1043D200C4F52DC5C5F52EC5C6F5600E0501A56F40
:1043E200060EA66F010EA76F260EA86FD1C5A9F5FE
:1043F200AA6BC3C5ABF5C4C5ACF5C5C5ADF5C6C59D
:10440200AEF5A6EC29F0BFC512F5C0C513F5C1C5BE
:1044120014F5C2C515F5000E166E000E176E200EAD
:10442200186E410E196EBAEC1EF012C5CBF513C50B
:10443200CCF514C5CDF515C5CEF5500E0501A56F09
:10444200060EA66F3E0EA76F260EA86FCBC5A9F566
:10445200CCC5AAF5CDC5ABF5CEC5ACF5A6EC29F019
:10446200000E096E000E5DEC2AF0600E096E060E5B
:104472000A6E35EC28F0000E096E010E5DEC2AF092
:10448200500E096E060E0A6E35EC28F0C090B3EF9E
:1044920020F00DEF00F0E4C53BF5E5C53CF5E6C5BF
:1044A2003DF5E7C53EF52BC53BF52CC53CF52DC5C5
:1044B2003DF52EC53EF5810E2F6EFF0E306E3BC5CB
:1044C20031F53CC532F53DC533F53EC534F5180E20
:1044D20070EF22F0D8903432333232323132E82E59
:1044E2006BEF22F031502F24396E000E30203A6EDD
:1044F2003ABE85EF22F03A5009E1170E395CD8A096
:1045020085EF22F087EF22F091EF22F02BC52BF5F9
:104512002CC52CF52DC52DF52EC52EF554EF23F007
:104522003ABE96EF22F098EF22F008EF23F039C559
:104532002FF5FF0E306EFF0E316E7F0E326E000EC3
:10454200336E2F66A7EF22F0AFEF22F0333433320F
:104552003232313230322F2EA2EF22F030C535F511
:1045620031C536F532C537F533C538F535503B140C
:104572002F6E36503C14306E37503D14316E385029
:104582003E14326E2F50301031103210D8A4CCEFBE
:1045920022F0CEEF22F0D0EF22F087EF22F03BC5DF
:1045A2002FF53CC530F53DC531F53EC532F5200E3F
:1045B200E0EF22F0D8903232313230322F32E82E10
:1045C200DBEF22F02F50301031103210D8B4ECEF64
:1045D20022F0EEEF22F0F6EF22F035503B26365075
:1045E2003C2237503D2238503E22351C2F6E361C5D
:1045F200306E371C316E381C326E2F503B163050E5
:104602003C1631503D1632503E164CEF23F03BC55E
:104612002FF53CC530F53DC531F53EC532F5200ECE
:1046220018EF23F0D8903232313230322F32E82E66
:1046320013EF23F02F50301031103210D8A424EF92
:1046420023F026EF23F030EF23F0000E3B6E000E36
:104652003C6E000E3D6E000E3E6E4CEF23F0D89085
:104662003B342F6E3C34306E3D34316E3E34326E0C
:104672002F50301031103210D8B442EF23F044EFF3
:1046820023F04CEF23F0000E3B6E000E3C6E800ECA
:104692003D6EBF0E3E6E3BC52BF53CC52CF53DC5B0
:1046A2002DF53EC52EF512000C6E0C50D8B45CEF01
:1046B20023F05EEF23F080EF23F007BE65EF23F0D7
:1046C20063EF23F080EF23F004C508F505C509F573
:1046D20006C50AF507C50BF5081E091E0A1E0B1EA4
:1046E200082A000E09220A220B2208C50EF509C566
:1046F2000FF50AC510F50BC511F588EF23F004C5B7
:104702000EF505C50FF506C510F507C511F50450E0
:10471200051006100710D8A491EF23F093EF23F0B1
:104722009DEF23F0000E046E000E056E000E066E65
:10473200000E076E2EEF24F0960E0D6EA7EF23F0FB
:104742000D2AD890113210320F320E32000E0E1492
:10475200086E000E0F14096E000E10140A6EFE0E83
:1047620011140B6E085009100A100B10D8A4BCEFDC
:1047720023F0BEEF23F0A1EF23F0CCEF23F00D2ABC
:10478200010E0E26000E0F2210221122D890113295
:1047920010320F320E32000E0E14086E000E0F147D
:1047A200096E000E10140A6EFF0E11140B6E0850E3
:1047B20009100A100B10D8A4E1EF23F0E3EF23F065
:1047C200C0EF23F0EBEF23F00D06D8900E360F3634
:1047D2001036113610BEF0EF23F0F2EF23F0FAEFAD
:1047E20023F0020E0D60F8EF23F0FAEF23F0E5EF6D
:1047F20023F00DB0FFEF23F001EF24F002EF24F0DD
:10480200109ED8900D320DC508F5096A0A6A0B6A26
:1048120008C50BF50A6A096A086A08500E1209509F
:104822000F120A5010120B5011120C50D8B41CEF78
:1048320024F01EEF24F026EF24F007BE25EF24F02B
:1048420023EF24F026EF24F0118E0EC504F50FC5D8
:1048520005F510C506F511C507F51200B1AE34EF26
:1048620024F036EF24F0C1EF24F0010E0501DC271D
:10487200000EDD23DE23DF23E023E123E223E32313
:10488200010ED427000ED523D623D723D823D9232C
:10489200DA23DB23F64BF72BF75109E1320EF65DF3
:1048A200D8A056EF24F058EF24F067EF24F05A50C6
:1048B200D8B45EEF24F061EF24F0010E62EF24F031
:1048C200000E5A6E000EF76F000EF66FE351E21102
:1048D200E111E011DF11DE11DD1109E1FA0EDC5DFB
:1048E200D8A076EF24F078EF24F080EF24F0080EC1
:1048F200C31A21EEDCF1070EDE6AE806FDE24CEC9B
:1049020029F00009D8B488EF24F08AEF24F096EF5A
:1049120024F0D4C5F4F5D5C5F5F521EED4F1070E92
:10492200DE6AE806FDE2BDEF24F00501DB51DA1193
:10493200D911D811D711D6110BE1880ED45D130EFF
:10494200D559D8A0A7EF24F0A9EF24F0BDEF24F0A9
:10495200880ED46F130ED56F000ED66F000ED76F70
:10496200000ED86F000ED96F000EDA6F000EDB6FEB
:10497200D4C5F9F5D5C5FAF5060E0301186FB19E37
:104982001100463447344D6E4D50D8A4CBEF24F07D
:10499200CDEF24F0D7EF24F0000E446E000E456EEA
:1049A200000E466E000E476E44EF25F044C548F5F2
:1049B20045C549F546C54AF547C54BF5200EE7EF13
:1049C20024F0D8904B324A3249324832E82EE2EF94
:1049D20024F048504C6E468EFF0E4416FF0E4516CC
:1049E200FF0E4616000E4716960E4D5E4DBEFEEFAA
:1049F20024F0FCEF24F014EF25F04D50800A970FBD
:104A0200D8B006EF25F008EF25F00AEF25F0CDEF3C
:104A120024F0D89047324632453244324D3E0AEFB6
:104A220025F02CEF25F01F0E4D641AEF25F01CEF38
:104A320025F024EF25F0CDEF24F0D890443645360A
:104A4200463647364D064D50D8A42AEF25F02CEFB6
:104A520025F01EEF25F04C50D8B432EF25F034EF9C
:104A620025F03CEF25F0471E461E451E446C000E05
:104A720045224622472244C544F545C545F546C56B
:104A820046F547C547F51200000E44144C6E000E61
:104A920045144D6E800E46144E6E7F0E47144F6EB7
:104AA2004C504D104E104F10D8A45AEF25F05CEF29
:104AB20025F064EF25F0000E446E000E456E000EE8
:104AC200466E000E476E000E48144C6E000E4914DE
:104AD2004D6E800E4A144E6E7F0E4B144F6E4C502C
:104AE2004D104E104F10D8A479EF25F07BEF25F032
:104AF20083EF25F0000E486E000E496E000E4A6EDE
:104B0200000E4B6E47AE88EF25F08AEF25F093EF4B
:104B120025F0446C451ED8B0452A461ED8B0462A18
:104B2200800E47564BAE98EF25F09AEF25F0A3EF93
:104B320025F0486C491ED8B0492A4A1ED8B04A2AE4
:104B4200800E4B56000E441A000E451A000E461AED
:104B5200800E471A000E481A000E491A000E4A1A11
:104B6200800E4B1A4850445C495045584A504658AA
:104B72004B504758D8B0C0EF25F0C2EF25F0C5EF33
:104B820025F0D890C6EF25F0D8801200E8C50EF5C2
:104B9200E9C50FF5EAC510F5EBC511F504C50EF52B
:104BA20005C50FF506C510F507C511F50EC508F5C3
:104BB2000FC509F510C50AF511C50BF5180EE7EF7B
:104BC20025F0D8900B320A3209320832E82EE2EF91
:104BD20025F008500C6E0D6A0C500D10D8A4F4EF9D
:104BE20025F0F6EF25F016EF26F0D8900E34086E79
:104BF2000F34096E10340A6E11340B6E085009100E
:104C02000A100B10D8A408EF26F00AEF26F010EFD6
:104C120026F0000E056E020E046E45EF26F0000E21
:104C2200056E030E046E45EF26F00C280D10D8A475
:104C32001DEF26F01FEF26F041EF26F00EC508F516
:104C42000FC509F510C50AF511C50BF5090ED89067
:104C5200083609360A360B36E82E28EF26F00850B9
:104C620009100A100B10D8B439EF26F03CEF26F0E9
:104C7200010E3DEF26F0000E046E056A45EF26F0A8
:104C8200000E056E040E046E12000501EFBF4EEF1A
:104C920026F04CEF26F054EF26F0000E266E010EA1
:104CA200256E58EF26F0EEC525F5EFC526F5ECC5C5
:104CB20023F5EDC524F5000E286E4F0E276E000E6B
:104CC20006014F6F8FEF26F02706D8A02806000EA8
:104CD2002724D96E060E2820DA6E21C504F522C5D6
:104CE20005F5000E076E0A0E066E1AEC29F0045046
:104CF200300FDF6E2506D8A026062306D8A024068C
:104D020021C504F522C505F5000E076E0A0E066ED2
:104D120073EC28F004C521F505C522F527502810AB
:104D2200D8B496EF26F098EF26F0AEEF26F0215099
:104D32002210D8A49FEF26F0A1EF26F065EF26F00F
:104D420026BEAEEF26F0265006E12504D8B0ACEF21
:104D520026F0AEEF26F065EF26F01FC514F520C54C
:104D620015F5000E2724166E060E2820176E23C591
:104D720018F524C519F58BEC27F01200000E126EFF
:104D8200000E116E0AC5D9F40BC5DAF4DEC4F6F4CE
:104D9200DDC4F7F4000EF86E0800F5502A0AD8A414
:104DA200D5EF26F0D7EF26F00BEF27F00AC5D9F49E
:104DB2000BC5DAF4DE2A000EDD220CC5D9F40DC5CE
:104DC200DAF4DFC40EF5020EDE26DFC40FF5000EA4
:104DD200DD220EC5D9F40FC5DAF4DEC411F5DDC447
:104DE20012F521EF27F011C504F512C505F5000EE5
:104DF200076E0A0E066E4EEC2BF010500424116E54
:104E0200000E0520126E0AC5D9F40BC5DAF4DE2AAB
:104E1200000EDD220AC5D9F40BC5DAF4DEC4F6F4BD
:104E2200DDC4F7F4000EF86E0800F550D00F106ED6
:104E3200090E10641FEF27F021EF27F0F4EF26F0A0
:104E420011C50AF512C50BF5120006500710D8B4A9
:104E52002DEF27F02FEF27F038EF27F0065007103D
:104E6200D8A436EF27F038EF27F03DEF27F00450B3
:104E7200C4EC2BF08AEF27F020EE0AF00650D92678
:104E82000750DA22DE50DE10D8B44AEF27F04CEF9A
:104E920027F067EF27F020EE0AF00650D9260750D8
:104EA200DA2210EE03F00650E1260750E222DE502D
:104EB200E65CE650800A0C6EDE50800A0C58D8B0D0
:104EC20065EF27F067EF27F08AEF27F020EE03F077
:104ED2000650D9260750DA22DEC408F5DDC409F5EA
:104EE20006C5D9F407C5DAF4DEC40AF5DDC40BF54C
:104EF20008500A24D96E09500B20DA6E04C5DFF47B
:104F020020EE03F00650D9260750DA22DE2A000EE0
:104F1200DD22120059A090EF27F092EF27F09CEFCC
:104F220027F016C50DF517C50EF514C50FF515C5F5
:104F320010F53BEC2AF019BEA1EF27F0A3EF27F002
:104F4200A9EF27F018C51DF519C51EF5ADEF27F01D
:104F5200000E1E6E000E1D6E000E1C6E000E1B6EED
:104F6200BFEF27F0000E056E200E046E14C506F585
:104F720015C507F526EC27F01B4A1C2A1D501B5CA1
:104F82001C50800A1A6E1E50800A1A58D8A0CCEF04
:104F920027F0CEEF27F0B3EF27F059B0D3EF27F089
:104FA200D5EF27F0DFEF27F016C50DF517C50EF583
:104FB20014C50FF515C510F53BEC2AF01200000ED2
:104FC20004140C6E000E05140D6E800E06140E6E87
:104FD2007F0E07140F6E0C500D100E100F10D8A478
:104FE200F5EF27F0F7EF27F0FFEF27F0000E046E42
:104FF200000E056E000E066E000E076E000E0814FF
:105002000C6E000E09140D6E800E0A140E6E7F0EC9
:105012000B140F6E0C500D100E100F10D8A414EFBD
:1050220028F016EF28F01EEF28F0000E086E000E92
:10503200096E000E0A6E000E0B6E085004180FE186
:10504200095005180CE10A50061809E10B5007181F
:10505200D8B42EEF28F030EF28F033EF28F0D890B4
:1050620034EF28F0D8801200000E0D6E53EF28F0B6
:105072000D5009240B6E000E0A200C6E0BC5F6F4BF
:105082000CC5F7F4000EF86E250EF76403D0080085
:10509200F55005D0F6C4E9F4F7C4EAF4EF50BEECDB
:1050A2002BF00D2A0D5009240B6E000E0A200C6EF7
:1050B2000BC5F6F40CC5F7F4000EF86E250EF76476
:1050C20003D00800F55005D0F6C4E9F4F7C4EAF4B9
:1050D200EF500009D8A470EF28F072EF28F039EFF2
:1050E20028F01200000E0A6E000E096E065007101C
:1050F200D8B47EEF28F080EF28F0A8EF28F0010E58
:10510200086E88EF28F0D89006360736082A07AED0
:105112008DEF28F08FEF28F084EF28F0D890093631
:105122000A360650045C07500558D8A09BEF28F0B9
:105132009DEF28F0A2EF28F00650045E0750055AB2
:105142000980D89007320632082E8FEF28F009C561
:1051520004F50AC505F51200056E0550F00B066E42
:1051620005C504F50F0E04160438F00B076E065041
:10517200C312C384060E046E300EE82EFED7042E30
:10518200FCD700D0C394060E046E300EE82EFED774
:10519200042EFCD700D00650FF0AC3160750C312D4
:1051A200C384060E046E300EE82EFED7042EFCD702
:1051B20000D0C394060E046E300EE82EFED7042EE5
:1051C200FCD700D00750FF0AC316120007BEF6EF45
:1051D20028F007500610051006E10404D8B0F4EFD9
:1051E20028F0F6EF28F011EF29F004C508F505C5FF
:1051F20009F506C50AF507C50BF5081E091E0A1EA4
:105202000B1E082A000E09220A220B2208C504F5E9
:1052120009C505F50AC506F50BC507F519EF29F00D
:1052220004C504F505C505F506C506F507C507F568
:10523200120006500710D8B421EF29F023EF29F00D
:1052420047EF29F0010E086E2BEF29F0D8900636B1
:105252000736082A07AE30EF29F032EF29F027EFA0
:1052620029F00650045C07500558D8A03BEF29F0FE
:105272003DEF29F041EF29F00650045E0750055A30
:10528200D89007320632082E32EF29F004C504F511
:1052920005C505F51200000E036ECFB053EF29F0DD
:1052A20056EF29F0010E57EF29F0000E036E000EA3
:1052B200026E5B50D8B460EF29F062EF29F06CEF18
:1052C20029F00350D8A468EF29F06AEF29F06CEFB7
:1052D20029F0010E026E0250D8A472EF29F075EF88
:1052E20029F0010E76EF29F0000E016E03C55BF581
:1052F200015012009FC5A3F5A0C5A4F590EF29F0B7
:105302009DC58CF59EC58DF5A30E05018E6F050E0C
:105312008F6FA1C590F5A2C591F585EC1AF0A3C5D2
:10532200F6F4A4C5F7F4000EF86E0800F550000973
:10533200D8A49EEF29F0A0EF29F081EF29F0000E0A
:1053420005019E6F000E9D6F1200A90E0501AF6F41
:10535200050EB06FA5C5B1F5A6C5B2F5000EB56FC5
:10536200000EB46F000EBC6F000EBB6FB10E9D6FCE
:10537200050E9E6FA7C59FF5A8C5A0F5AF0EA16F3C
:10538200050EA26F7BEC29F00501B451A525D96E5B
:10539200B551A621DA6EDF6A120006C50DF507C502
:1053A2000EF504C50BF505C50CF5E8EF29F00DC5A2
:1053B200D9F40EC5DAF4DF500A6E0D4A0E2A0BC577
:1053C200D9F40CC5DAF40AC5DFF40B4A0C2A080634
:1053D200D8A00906082806E10928D8A4F3EF29F085
:1053E200F5EF29F0D8EF29F01200000E481A000E4E
:1053F200491A000E4A1A800E4B1A44C504F545C5D7
:1054020005F546C506F547C507F548C508F549C57A
:1054120009F54AC50AF54BC50BF525EC18F004C58C
:1054220044F505C545F506C546F507C547F512001D
:1054320006C508F507C509F504C50AF505C50BF546
:1054420008C5F6F409C5F7F4084A092A000EF86EF1
:105452000AC5D9F40BC5DAF40A4A0B2A0800F5C4C6
:10546200DFF4DF50D8A438EF2AF03AEF2AF021EF28
:105472002AF01200000E136E000E126E4CEF2AF08C
:1054820011C504F5056A0FC506F510C507F526EC2A
:1054920027F0124A132A12500D24D96E13500E20EF
:1054A200DA6EDF50116E1150D8A45AEF2AF05CEF79
:1054B2002AF041EF2AF012000A6E000E0B6E0A501B
:1054C200D8A466EF2AF068EF2AF06CEF2AF0800E7B
:1054D2000B6E79EF2AF00A04D8A472EF2AF074EF67
:1054E2002AF078EF2AF0C00E0B6E79EF2AF000F066
:1054F20009500B260B50B8EC2BF012008A0EF66EF8
:10550200570EF76E000EF86E0900F5C45BF501EE5A
:1055120000F2700EEE6AE806FDE101EED4F1270E0C
:10552200EE6AE806FDE15A6A596A0401080E5D6FE7
:10553200000E5E6F000E5F6F000187EF20F0000E1D
:105542000301F36F000EF46F000EF56FF39FF39DEE
:10555200F399F391010EFA6FF385F899FC0EF8179F
:10556200000EEC6FC68004010081000E0301F26F91
:10557200000EF16F000EEF6F000EEE6FF38F120050
:10558200B1EC2BF0020E0A6E040E096EBA0EE82E72
:10559200FED7092EFCD70A2EFAD700D0010EB8EC9E
:1055A2002BF0020EB8EC2BF0060EB8EC2BF00C0E22
:1055B200B8EC2BF0100EB8EC2BF02C0EB8EC2BF054
:1055C20012000001AD518F0B6009AD6F04C5D9F413
:1055D20005C5DAF4DF50066EAD510618F00B061859
:1055E200AD6F20EE01F00450D9260550DA22DF50CB
:1055F200066EB1510618F00B0618B16F1200045076
:10560200051006100710D8B409EF2BF00BEF2BF0A2
:1056120013EF2BF0000E041A000E051A000E061AE4
:10562200800E071A04C504F505C505F506C506F57D
:1056320007C507F512000A6E0AC5ECF30301F381F0
:10564200F3B126EF2BF028EF2BF021EF2BF0EA51EC
:10565200EBC306F5076A06C507F5066A0610086E6B
:105662000750096E08C504F509C505F51200000EBC
:105672000301426F000E416F000E406F000E4C6F2F
:10568200428F42890C0E42134C81150E0201126F99
:1056920004011083C892C092120004500602F3C49F
:1056A20008F5F4C409F504500702F3500926055021
:1056B2000602F350092608C504F509C505F51200CE
:1056C2009FEC2BF0AAEC2BF082EC2BF0A0EC2AF052
:1056D20091EC2BF0C1EC2AF072EC2BF038EC2BF0B1
:1056E2001200000E0301246F000E256F000E276FBB
:1056F200010E266F249F248B2451630E236F248F67
:105702001200000E03011A6F000E1B6F1A9F1A99E6
:105712001A511B8D1B891B85060E186F1A8F1200DA
:10572200CB9604012897C396C68400950891C7803A
:10573200189FC99EC8901091C0901200050E086E65
:10574200000E076E070E046E050E056EE2EC2AF0DF
:105752001200000ED66ED68ED69AB19EA18E12007F
:10576200000ECB6E000E0401286FC3921200086E69
:10577200C3900850ADEC28F01200086EC3800850A8
:09578200ADEC28F0120012000148
:020000040020DA
:10000000FF0FFF0FFF0FFF0FFF0FFF0FFF0FFF0F80
:10001000FF0FFF0FFF0FFF0FFF0FFF0FFF0FFF0F70
:10002000FF0FFF0FFF0FFF0FFF0FFF0FFF0FFF0F60
:10003000FF0FFF0FFF0FFF0FFF0FFF0FFF0FFF0F50
:020000040030CA
:0A0000008CD5E7C79FFFFFFFFFFF4D
:00000001FF
