:040000000DEF00F010
:04000800C0EF28F02D
:06001800FF00AEEF2FF027
:1025000000563D252D3375252520523D252D332E92
:10251000306672706D004D4F544F522053544F50DF
:1025200050454421005046204D4F544F52205250A8
:102530004D004A756C696F204D6F74746100433DA6
:10254000252D332E33664100494E46004E414E0044
:10255000696E66006E616E006C660000000E05011B
:10256000806F000E7F6F52C591F553C592F554C52B
:1025700093F555C594F594BFC2EF12F0C0EF12F079
:10258000D8EF12F0000E806F010E7F6F91C504F539
:1025900092C505F593C506F594C507F5F2EC30F044
:1025A00004C591F505C592F506C593F507C594F5E3
:1025B000000E0501986F000E976FE1C583F5E2C527
:1025C00084F57F518011D8A4E8EF12F0EAEF12F001
:1025D000F1EF12F05BA4EFEF12F0F1EF12F00BEF5E
:1025E00013F07F518011D8A4F8EF12F0FAEF12F037
:1025F00000EF13F0000E666F2B0E656F04EF13F003
:10260000000E666F2D0E656F65C514F6974B982BFF
:102610008307D8A0840791C504F592C505F593C535
:1026200006F594C507F55CEC2AF004040510D8A45F
:102630001CEF13F01EEF13F075EF13F0BF0E050142
:10264000606FFF0E616F5650626F636B605162275F
:102650006151632363510AE11A0E625DD8A033EF22
:1026600013F036EF13F0010E37EF13F0000E676F23
:10267000686B67516811D8B440EF13F042EF13F064
:1026800050EF13F0140E9725046E060E9821056E78
:10269000480E066E250E076EC9EC2EF05CEF13F0A7
:1026A000140E9725046E060E9821056E500E066EC8
:1026B000250E076EC9EC2EF00501FD0E8327FF0ED7
:1026C000842350C514F551C515F5140E166E060E6B
:1026D000176E83C518F584C519F506EC2DF014C5E1
:1026E00050F515C551F5DCEF18F091C504F592C50C
:1026F00005F593C506F594C507F55CEC2AF0045082
:102700000510D8A486EF13F088EF13F0C8EF13F08C
:10271000BF0E0501606FFF0E616F5650626F636BF5
:10272000605162276151632363510AE11A0E625DB1
:10273000D8A09DEF13F0A0EF13F0010EA1EF13F05E
:10274000000E696F6A6B69516A11D8B4AAEF13F071
:10275000ACEF13F0BAEF13F0140E9725046E060ECB
:102760009821056E4C0E066E250E076EC9EC2EF0F4
:102770005CEF13F0140E9725046E060E9821056E7B
:10278000540E066E250E076EC9EC2EF05CEF13F0AA
:10279000000E0501996F000E9A6F800E9B6F3F0E21
:1027A0009C6F000E966F000E956F91C504F592C553
:1027B00005F593C506F594C507F5000E086E000EE5
:1027C000096E000E0A6E000E0B6EBFEC2DF0D8B035
:1027D000ECEF13F0EEEF13F071EF14F00DEF14F0D7
:1027E00099C52BF59AC52CF59BC52DF59CC52EF5E5
:1027F000000E2F6E000E306E200E316E410E326EC6
:102800004AEC1FF02BC599F52CC59AF52DC59BF503
:102810002EC59CF50501954B962B91C544F592C5A7
:1028200045F593C546F594C547F5000E2F6E000E8D
:10283000306E200E316E410E326E99C52BF59AC561
:102840002CF59BC52DF59CC52EF54AEC1FF02BC52C
:1028500048F52CC549F52DC54AF52EC54BF5DAECE2
:1028600029F0D8B036EF14F038EF14F0F0EF13F091
:1028700058EF14F099C512F59AC513F59BC514F5D8
:102880009CC515F5000E166E000E176E200E186E04
:10289000410E196E71EC21F012C599F513C59AF528
:1028A00014C59BF515C59CF505019507D8A096079D
:1028B00091C544F592C545F593C546F594C547F5D0
:1028C00099C548F59AC549F59BC54AF59CC54BF590
:1028D000DAEC29F0D8A06FEF14F071EF14F03AEFB2
:1028E00014F056C50AF50B6AFCEC2EF00A500501EF
:1028F000866F86C585F5670E8619D8A482EF14F019
:1029000084EF14F0AAEF14F059505A10D8A48BEFAA
:1029100014F08DEF14F091EF14F0000E5A6E010ECA
:10292000596E5ABE9EEF14F05A5006E15904D8B0C1
:102930009CEF14F09EEF14F0A4EF14F0000E826FE1
:10294000060E816FB3EF14F059C581F55AC582F5B3
:10295000B3EF14F05ABEAFEF14F0B1EF14F09EEFE6
:1029600014F0A4EF14F0670E8619D8A4BAEF14F08F
:10297000BCEF14F0EBEF14F096AFCAEF14F0FC0EBE
:10298000955DFF0E9659D8A0C8EF14F0CAEF14F069
:10299000E9EF14F0FF0E606FFF0E616F81C562F505
:1029A00082C563F560516227615163239551625D71
:1029B0006351800A646F9651800A6459D8A0E3EF8E
:1029C00014F0E5EF14F0E9EF14F0660E856FEBEF0D
:1029D00014F0650E856F81C577F582C578F5670EB1
:1029E0008619D8A4F6EF14F0F8EF14F008EF15F0FC
:1029F000660E8519D8A4FFEF14F001EF15F00AEF69
:102A000015F096BF08EF15F006EF15F00AEF15F078
:102A1000774B782B660E8519D8A411EF15F013EFBC
:102A200015F033EF15F096BF1AEF15F018EF15F00B
:102A300026EF15F0000E996F000E9A6F800E9B6FB7
:102A40003F0E9C6F000E966F000E956F670E8619F5
:102A5000D8B42DEF15F02FEF15F033EF15F0955199
:102A6000772796517823000E906F000E8F6F91C5D7
:102A700087F592C588F593C589F594C58AF599C5FA
:102A800079F59AC57AF59BC57BF59CC57CF5C4EFB5
:102A900015F087C512F588C513F589C514F58AC5E3
:102AA00015F599C516F59AC517F59BC518F59CC57A
:102AB00019F571EC21F012C52BF513C52CF514C5D1
:102AC0002DF515C52EF501EC25F02BC58BF52CC584
:102AD0008CF52DC58DF52EC58EF58BC544F58CC5B1
:102AE00045F58DC546F58EC547F557EC29F044C52B
:102AF0007DF545C57EF587C544F588C545F589C58D
:102B000046F58AC547F599C52FF59AC530F59BC599
:102B100031F59CC532F58BC52BF58CC52CF58DC5D3
:102B20002DF58EC52EF54AEC1FF02BC548F52CC5AA
:102B300049F52DC54AF52EC54BF5D2EC2FF044C50D
:102B400087F545C588F546C589F547C58AF599C510
:102B500012F59AC513F59BC514F59CC515F5000E25
:102B6000166E000E176E200E186E410E196E71EC67
:102B700021F012C599F513C59AF514C59BF515C535
:102B80009CF505018F4B902B77518F5D9051800AFA
:102B9000606F7851800A6059D8A0D1EF15F0D3EF5B
:102BA00015F049EF15F099C52BF59AC52CF59BC585
:102BB0002DF59CC52EF5000E2F6E000E306EA00E6A
:102BC000316E400E326E4AEC1FF02BC58BF52CC5D2
:102BD0008CF52DC58DF52EC58EF587C544F588C5B8
:102BE00045F589C546F58AC547F58BC548F58CC5B9
:102BF00049F58DC54AF58EC54BF5DAEC29F0D8B00C
:102C000004EF16F006EF16F011EF16F0000E0501B6
:102C10008B6F000E8C6F000E8D6F000E8E6F3AEF73
:102C200016F087C504F588C505F589C506F58AC57A
:102C300007F58BC508F58CC509F58DC50AF58EC558
:102C40000BF5BFEC2DF0D8A028EF16F02AEF16F008
:102C50003AEF16F005017DB130EF16F032EF16F0C5
:102C60003AEF16F0000E8B6F000E8C6F000E8D6F1A
:102C7000000E8E6F91C504F592C505F593C506F556
:102C800094C507F58BC508F58CC509F58DC50AF502
:102C90008EC50BF5EAEC1CF004C587F505C588F573
:102CA00006C589F507C58AF587C544F588C545F584
:102CB00089C546F58AC547F5000E2F6E000E306EA9
:102CC000200E316E410E326E79C52BF57AC52CF58A
:102CD0007BC52DF57CC52EF54AEC1FF02BC548F5BC
:102CE0002CC549F52DC54AF52EC54BF5DAEC29F072
:102CF000D8A07DEF16F07FEF16F0A8EF16F00501D3
:102D0000954B962B79C52BF57AC52CF57BC52DF502
:102D10007CC52EF5000E2F6E000E306E200E316E2B
:102D2000410E326E4AEC1FF02BC579F52CC57AF5B1
:102D30002DC57BF52EC57CF5660E05018519D8A439
:102D4000A4EF16F0A6EF16F0A8EF16F0774B782B4D
:102D500079C599F57AC59AF57BC59BF57CC59CF537
:102D6000650E05018519D8B4B8EF16F0BAEF16F064
:102D7000C0EF16F095C575F596C576F5C4EF16F05B
:102D8000000E766F000E756F000E746F000E736F7D
:102D9000000E726F000E716F000E906F000E8F6F3D
:102DA000C0EF17F087C512F588C513F589C514F56E
:102DB0008AC515F599C516F59AC517F59BC518F579
:102DC0009CC519F571EC21F012C52BF513C52CF536
:102DD00014C52DF515C52EF501EC25F02BC58BF589
:102DE0002CC58CF52DC58DF52EC58EF58BC544F5FE
:102DF0008CC545F58DC546F58EC547F557EC29F0D0
:102E000044C57DF545C57EF55BB809EF17F00BEFBE
:102E100017F029EF17F005017D517E11D8A413EFAB
:102E200017F015EF17F029EF17F0670E8619D8A4E1
:102E30001CEF17F01EEF17F029EF17F076BF25EF04
:102E400017F023EF17F029EF17F0714B722B74EF87
:102E500017F0050173517411D8A431EF17F033EF57
:102E600017F05DEF17F076BF3AEF17F038EF17F075
:102E70005DEF17F0140E9725D96E060E9821DA6EC5
:102E80002E0EDF6E974B982B8307D8A08407000E79
:102E9000746F010E736F5DEF17F0140E9725D96EE6
:102EA000060E9821DA6E300EDF6E974B982B830753
:102EB000D8A084077107D8A0720771517211D8A4E5
:102EC00064EF17F066EF17F04DEF17F0140E97252B
:102ED000D96E060E9821DA6E7D51300FDF6E974B5A
:102EE000982B8307D8A0840787C544F588C545F586
:102EF00089C546F58AC547F599C52FF59AC530F5B8
:102F00009BC531F59CC532F58BC52BF58CC52CF5D1
:102F10008DC52DF58EC52EF54AEC1FF02BC548F555
:102F20002CC549F52DC54AF52EC54BF5D2EC2FF031
:102F300044C587F545C588F546C589F547C58AF571
:102F400099C512F59AC513F59BC514F59CC515F5E1
:102F5000000E166E000E176E200E186E410E196EC2
:102F600071EC21F012C599F513C59AF514C59BF5BE
:102F700015C59CF505017507D8A076078F4B902BDA
:102F800077518F5D9051800A606F7851800A605947
:102F9000D8B0CDEF17F0CFEF17F0DDEF17F098BFF7
:102FA000DBEF17F0985109E14B0E975DD8A0DBEFEE
:102FB00017F0DDEF17F0D2EF16F073517411D8A4AB
:102FC000E4EF17F0E6EF17F0F7EF17F05BA8EBEF81
:102FD00017F0EDEF17F0F7EF17F0140E9725D96EF5
:102FE000060E9821DA6E2E0EDF6E974B982B140E7C
:102FF0009725D96E060E9821DA6E000EDF6E650EEB
:103000008519D8A406EF18F008EF18F061EF13F057
:10301000000E906F4F0E8F6F140E8F25D96E060E17
:103020009021DA6E000EDF6E000E806F000E7F6F53
:1030300096BF1FEF18F01DEF18F027EF18F0000EE5
:10304000806F010E7F6F956D961FD8B0962B000E86
:10305000826F020E816F58EF18F08F07D8A090078B
:10306000140E8F25D96E060E9021DA6E95C504F5E3
:1030700096C505F5000E076E0A0E066E67EC2DF07C
:103080000450300FDF6E95C504F596C505F5000EAA
:10309000076E0A0E066EA4EC2CF004C595F505C566
:1030A00096F505018107D8A082078307D8A0840779
:1030B00095519611D8A45FEF18F061EF18F02DEF3D
:1030C00018F082BF6EEF18F0825106E18105D8B08A
:1030D0006CEF18F06EEF18F02DEF18F08F07D8A0F6
:1030E00090077F518011D8A478EF18F07AEF18F08C
:1030F00080EF18F0000E6C6F2B0E6B6F84EF18F0E2
:10310000000E6C6F2D0E6B6F140E8F25D96E060E90
:103110009021DA6E6100ACF5DFF48307D8A0840754
:103120008F07D8A09007BF0E606FFF0E616F5650DB
:10313000626F636B605162276151632363510AE1DF
:103140001A0E625DD8A0A7EF18F0AAEF18F0010ED2
:10315000ABEF18F0000E6F6F706B6F517011D8A449
:10316000B4EF18F0B6EF18F0BCEF18F0000E6E6F69
:10317000650E6D6FC0EF18F0000E6E6F450E6D6F2F
:10318000140E8F25D96E060E9021DA6E6100B4F50B
:10319000DFF48307D8A08407140E9725046E060E6B
:1031A0009821056E140E8F25066E060E9021076E6F
:1031B000C9EC2EF061EF13F0120061007CF6D9F437
:1031C000610080F6DAF4DEC4F6F4DDC4F7F4000E34
:1031D000F86E0800F550250AD8A4F1EF18F0F3EFC7
:1031E00018F0C8EF1CF061007CF6D9F4610080F69D
:1031F000DAF4DE2A000EDD22000E0501E26F000E79
:10320000E16FE1C55BF5E2C55CF559685A68000EEF
:10321000B06F000EAF6F59EF19F05B8061007CF664
:10322000D9F4610080F6DAF4DE2A000EDD2259EFCF
:1032300019F05B820EEF19F05B840EEF19F05B86DC
:103240000EEF19F05B880EEF19F0000EB06F010E53
:10325000AF6F59EF19F061007CF6D9F4610080F688
:10326000DAF4DEC4F6F4DDC4F7F4000EF86E0800FC
:10327000F550A36FA46BA451000AD8B442EF19F023
:1032800025EF19F0A351200AD8B41FEF19F0030A53
:10329000D8B422EF19F0080AD8B41CEF19F0060AC6
:1032A000D8B40DEF19F01D0AD8B419EF19F025EFB5
:1032B00019F0AF51B011D8B460EF19F062EF19F006
:1032C0002BEF19F05BA067EF19F069EF19F06AEFC7
:1032D00019F05B9261007CF6D9F4610080F6DAF4B3
:1032E000DEC4F6F4DDC4F7F4000EF86E0800F55005
:1032F0002A0AD8A47EEF19F080EF19F0B3EF19F085
:1033000061007CF6D9F4610080F6DAF4DE2A000E62
:10331000DD22610084F6D9F4610088F6DAF46100F8
:103320007CF3A3F5020EDE2661007CF3A4F5000E0B
:10333000DD2261008CF6D9F4610090F6DAF46100C8
:1033400078F3E1F5610074F3E2F5E2BFACEF19F058
:10335000AAEF19F001EF1AF05B80E16DE21FD8B01F
:10336000E22B01EF1AF061007CF6D9F4610080F6DF
:10337000DAF4610078F30BF5610074F30CF50AECF4
:1033800027F00BC5E1F50CC5E2F5D0EF19F06100AF
:103390007CF6D9F4610080F6DAF4DE2A000EDD2234
:1033A000D00E0501A36FFF0EA46F61007CF6D9F467
:1033B000610080F6DAF4DEC4F6F4DDC4F7F4000E42
:1033C000F86E0800F550A56FA66BA351A527A45170
:1033D000A623A6510AE10A0EA55DD8A0F2EF19F0C6
:1033E000F5EF19F0010EF6EF19F0000EB16FB26BA8
:1033F000B151B211D8A4FFEF19F001EF1AF0C7EFE5
:1034000019F061007CF6D9F4610080F6DAF4DEC4CC
:10341000F6F4DDC4F7F4000EF86E0800F5502E0A3D
:10342000D8A415EF1AF017EF1AF0AFEF1AF0000E4C
:103430005A6E000E596E61007CF6D9F4610080F678
:10344000DAF4DE2A000EDD2261007CF6D9F4610098
:1034500080F6DAF4DEC4F6F4DDC4F7F4000EF86E9C
:103460000800F5502A0AD8A438EF1AF03AEF1AF0FB
:1034700061EF1AF061007CF6D9F4610080F6DAF4AD
:10348000DE2A000EDD22610084F6D9F4610088F6A0
:10349000DAF461007CF3A3F5020EDE2661007CF312
:1034A000A4F5000EDD2261008CF6D9F4610090F6DF
:1034B000DAF4610078F359F5610074F35AF5AFEF6F
:1034C0001AF061007CF6D9F4610080F6DAF461004C
:1034D00078F30BF5610074F30CF50AEC27F00BC5DB
:1034E00059F50CC55AF57EEF1AF061007CF6D9F457
:1034F000610080F6DAF4DE2A000EDD22D00E05012E
:10350000A36FFF0EA46F61007CF6D9F4610080F612
:10351000DAF4DEC4F6F4DDC4F7F4000EF86E080049
:10352000F550A56FA66BA351A527A451A623A651BC
:103530000AE10A0EA55DD8A0A0EF1AF0A3EF1AF0D9
:10354000010EA4EF1AF0000EB36FB46BB351B411B7
:10355000D8A4ADEF1AF0AFEF1AF075EF1AF06100D2
:103560007CF6D9F4610080F6DAF4DEC4F6F4DDC44A
:10357000F7F4000EF86E0800F5500A6E0B6AFCECCA
:103580002EF00A500501BB6FBB51D8B4CAEF1AF038
:10359000CCEF1AF016EF1BF061007CF6D9F4610055
:1035A00080F6DAF4610078F3A3F5610074F3A4F512
:1035B000010EA327000EA42361008CF6F6F461002F
:1035C00090F6F7F4000EF86E0800F5500A6E0B6ADC
:1035D000FCEC2EF00A500501BC6FBC51D8B4F3EFDF
:1035E0001AF0F5EF1AF016EF1BF061007CF6D9F433
:1035F000610080F6DAF4610078F3A3F5610074F3FA
:10360000A4F5020EA327000EA42361008CF6F6F4A5
:10361000610090F6F7F4000EF86E0800F5500A6E9F
:103620000B6AFCEC2EF00A500501BD6F660EBB194B
:10363000D8A41DEF1BF01FEF1BF070EF1BF0610013
:103640007CF6D9F4610080F6DAF4DEC4F6F4DDC469
:10365000F7F4000EF86E08006100D4F3BEF56100C7
:103660007CF6D9F4610080F6DAF4DE2A000EDD2261
:10367000610084F6D9F4610088F6DAF461007CF325
:10368000A3F5040EDE2661007CF3A4F5000EDD2216
:1036900061008CF6D9F4610090F6DAF4610078F3F9
:1036A000B7F5610078F3B8F5610078F3B9F561001A
:1036B00078F3BAF59DC550F59EC551F5B7C552F5DD
:1036C000B8C553F5B9C554F5BAC555F5BEC556F5D7
:1036D000AEEC12F050C59DF551C59EF5E9EF1CF01A
:1036E000BB0E046E050E056E580E066E250E076E97
:1036F000000E096E020E086EDBEC2AF00450051075
:10370000D8A485EF1BF087EF1BF026EF1CF06100BB
:103710007CF6D9F4610080F6DAF4610078F3A3F561
:10372000610074F3A4F5010E0501A327000EA42384
:1037300061008CF6F6F4610090F6F7F4000EF86E76
:1037400008006100D4F3BEF5BF0EA36FFF0EA46F97
:1037500061007CF6D9F4610080F6DAF4DEC4F6F498
:10376000DDC4F7F4000EF86E0800F550A56FA66BE7
:10377000A351A527A451A623A6510AE11A0EA55DBF
:10378000D8A0C5EF1BF0C8EF1BF0010EC9EF1BF06E
:10379000000EB56FB66BB551B611D8B4D2EF1BF0B1
:1037A000D4EF1BF0F8EF1BF0610084F6D9F4610050
:1037B00088F6DAF461007CF3A3F5040EDE266100DE
:1037C0007CF3A4F5000EDD2261008CF6D9F46100D3
:1037D00090F6DAF4610078F3B7F5610078F3B8F5A4
:1037E000610078F3B9F5610078F3BAF51AEF1CF0CF
:1037F000610084F6D9F4610088F6DAF461007CF3A4
:10380000A3F5040EDE2661007CF3A4F5000EDD2294
:1038100061008CF6D9F4610090F6DAF4610078F377
:10382000B7F5610078F3B8F5610078F3B9F5610098
:1038300078F3BAF5020E61007CF6D9F4610080F6E7
:10384000DAF4DE26000EDD225AEF1BF061007CF672
:10385000D9F4610080F6DAF4DEC4F6F4DDC4F7F4DE
:10386000000EF86E0800F550750AD8A43AEF1CF067
:103870003CEF1CF088EF1CF061007CF6D9F461008D
:1038800080F6DAF4DE2A000EDD22610084F6D9F437
:10389000610088F6DAF461007CF3A3F5020EDE26FF
:1038A00061007CF3A4F5000EDD2261008CF6D9F4F2
:1038B000610090F6DAF4610078F3A5F5610074F325
:1038C000A6F5A5C5A7F5A6C5A8F50501A96BAA6B20
:1038D000AB6BAC6BAD6BAE6B9DC51FF59EC520F59C
:1038E000A7C521F5A8C522F5A9C523F5AAC524F5C4
:1038F000ABC525F5ACC526F5ADC527F5AEC528F594
:103900000AEC26F01FC59DF520C59EF5E9EF1CF0D9
:1039100061007CF6D9F4610080F6DAF4DEC4F6F4D6
:10392000DDC4F7F4000EF86E0800F550250AD8A49F
:103930009CEF1CF09EEF1CF0B8EF1CF061007CF6D1
:10394000D9F4610080F6DAF4DE2A000EDD22000EE2
:10395000056E250E046E9DC506F59EC507F5D0ECD7
:103960002BF0000E05019E6F010E9D6FE9EF1CF01C
:1039700061007CF6D9F4610080F6DAF4DE2A000EEC
:10398000DD22000E05019E6F000E9D6FE9EF1CF019
:1039900061007CF6D9F4610080F6DAF4DEC4F6F456
:1039A000DDC4F7F4000EF86E0800F550046E056AE9
:1039B0009DC506F59EC507F5D0EC2BF061007CF6A1
:1039C000D9F4610080F6DAF4DE2A000EDD22B1EFD0
:1039D0001CF012000750800B106E07500724126E67
:1039E00006AEF5EF1CF0F7EF1CF0F8EF1CF01280BC
:1039F0001250D8B4FEEF1CF000EF1DF015EF1DF0D3
:103A00001228D8A406EF1DF008EF1DF010EF1DF0EE
:103A1000000E046E000E056E000E066E000E076EA0
:103A2000068E000E076E1DEF1DF0000E046E000ED8
:103A3000056E000E066E000E076E0B50800B116EA9
:103A400010501118D8B427EF1DF029EF1DF02AEF00
:103A50001DF0108C0B500B24116E0AAE32EF1DF0CE
:103A600034EF1DF035EF1DF011801150D8B43BEF4D
:103A70001DF03DEF1DF052EF1DF01128D8A443EFCB
:103A80001DF045EF1DF04DEF1DF0000E086E000E0D
:103A9000096E000E0A6E000E0B6E0A8E000E0B6E83
:103AA0005AEF1DF0000E086E000E096E000E0A6E31
:103AB000000E0B6E1250115CD8B061EF1DF063EF79
:103AC0001DF08AEF1DF010AC68EF1DF06AEF1DF0DD
:103AD0006CEF1DF0800E101A12C513F511C512F50A
:103AE00013C511F504C513F508C504F513C508F58C
:103AF00005C513F509C505F513C509F506C513F583
:103B00000AC506F513C50AF507C513F50BC507F574
:103B100013C50BF5000E136E125011C50CF50D6A8E
:103B20000C5E000E0D5A0DBE9FEF1DF00D5009E109
:103B30001A0E0C5CD8A09FEF1DF0A1EF1DF0D8EF7E
:103B40001DF00450051006100710D8A4AAEF1DF0B0
:103B5000ADEF1DF0010EAEEF1DF0000E136E000E66
:103B6000046E000E056E000E066E000E076E11C587
:103B700012F5E1EF1DF013A0C0EF1DF0C2EF1DF034
:103B8000C8EF1DF0D89013300109136ECAEF1DF075
:103B9000D890133204A0CFEF1DF0D1EF1DF0D2EF7B
:103BA0001DF0138E07340732063205320432122A12
:103BB0001150125CD8A0DFEF1DF0E1EF1DF0BBEF5C
:103BC0001DF010BCE6EF1DF0E8EF1DF028EF1EF031
:103BD0001250D8A4EEEF1DF0F0EF1DF0FAEF1DF03B
:103BE000000E046E000E056E000E066E000E076ECF
:103BF00049EF1FF008500426095005220A500622FA
:103C00000B50072207A007EF1EF009EF1EF0B5EFDB
:103C10001EF013A00EEF1EF010EF1EF016EF1EF0B8
:103C2000D89013300109136E18EF1EF0D89013329C
:103C300004A01DEF1EF01FEF1EF020EF1EF0138EEC
:103C400007340732063205320432122AB5EF1EF06D
:103C50000850045C095005580A5006580750800A5D
:103C60000C6E0B50800A0C58D8B039EF1EF03BEFA9
:103C70001EF066EF1EF00450085C0C6E05500958EB
:103C80000D6E06500A580E6E07500B580F6EFF0E41
:103C90000C24046EFF0E0D20056EFF0E0E20066E26
:103CA000FF0E0F20076E800E101A136C1350D8A44D
:103CB0005CEF1EF05EEF1EF06EEF1EF0010E0426AC
:103CC000000E0522062207226EEF1EF00850045E49
:103CD0000950055A0A50065A0B50075A045005104D
:103CE00006100710D8A477EF1EF079EF1EF0AEEFA4
:103CF0001EF01350D8A47FEF1EF081EF1EF0AEEF40
:103D00001EF0000E046E000E056E000E066E000E14
:103D1000076E49EF1FF0D890043605360636073691
:103D200013AE95EF1EF097EF1EF098EF1EF0048093
:103D300013A09DEF1EF09FEF1EF0A3EF1EF0D880A2
:103D40001336A5EF1EF0D89013361250D8B4ABEF4F
:103D50001EF0ADEF1EF0AEEF1EF0120606AEB3EF92
:103D60001EF0B5EF1EF08BEF1EF0000E116E13AEBD
:103D7000BCEF1EF0BEEF1EF0D6EF1EF013C50CF523
:103D80007F0E0C16D8B4C7EF1EF0C9EF1EF0CDEFB2
:103D90001EF0010E116ED6EF1EF004A0D2EF1EF041
:103DA000D4EF1EF0D6EF1EF0C9EF1EF01150D8B4BC
:103DB000DCEF1EF0DEEF1EF009EF1FF0010E04260F
:103DC000000E05220622072207A0E9EF1EF0EBEF06
:103DD0001EF009EF1FF004C50CF505C50DF506C56D
:103DE0000EF507C50FF50F340F320E320D320C32BF
:103DF0000CC504F50DC505F50EC506F50FC507F58F
:103E00001228D8B406EF1FF008EF1FF009EF1FF0DB
:103E1000122A1228D8B40FEF1FF011EF1FF019EF7C
:103E20001FF01250D8A417EF1FF019EF1FF02BEF5F
:103E30001FF0000E046E000E056E000E066E000EE2
:103E4000076E1250D8A427EF1FF029EF1FF02BEFB9
:103E50001FF0000E106E12A030EF1FF032EF1FF0B7
:103E600035EF1FF0068E36EF1FF0069ED890123009
:103E7000076E10AE3EEF1FF040EF1FF041EF1FF056
:103E8000078E04C504F505C505F506C506F507C585
:103E900007F512002E50800B376E2E502E243D6EEB
:103EA0002DAE55EF1FF057EF1FF058EF1FF03D807C
:103EB0003D50D8B45EEF1FF060EF1FF073EF1FF0BE
:103EC0003D28D8A466EF1FF068EF1FF070EF1FF0D9
:103ED000000E2B6E000E2C6E000E2D6E000E2E6E40
:103EE0002D8E7BEF1FF0000E2B6E000E2C6E000E41
:103EF0002D6E000E2E6E3250800B371A3250322447
:103F0000386E31AE86EF1FF088EF1FF089EF1FF09B
:103F100038803850D8B48FEF1FF091EF1FF0A4EF26
:103F20001FF03828D8A497EF1FF099EF1FF0A1EFEA
:103F30001FF0000E2F6E000E306E000E316E000E60
:103F4000326E318EACEF1FF0000E2F6E000E306E11
:103F5000000E316E000E326E3850D8B4B2EF1FF042
:103F6000B4EF1FF0BCEF1FF03D50D8A4BAEF1FF024
:103F7000BCEF1FF0C6EF1FF0000E2B6E000E2C6E74
:103F8000000E2D6E000E2E6E70EF21F031502B02C0
:103F90006100CCF342F56100D0F343F54250396E35
:103FA0003A6A3B6A3C6A43503E6E3F6A406A416AE5
:103FB00030502C026100CCF342F56100D0F343F5A0
:103FC00042503926000E3A223B223C2243503E26E4
:103FD000000E3F22402241222F502D026100CCF3DF
:103FE00042F56100D0F343F542503926000E3A22E3
:103FF0003B223C2243503E26000E3F2240224122DB
:104000003BC53CF53AC53BF539C53AF5396A2F5001
:104010002C026100CCF342F56100D0F343F542502D
:10402000392643503A22000E3B22000E3C223050EB
:104030002B026100CCF342F56100D0F343F542500E
:10404000392643503A22000E3B22000E3C223BC54B
:104050003CF53AC53BF539C53AF5396A2F502B0284
:104060006100CCF342F56100D0F343F542503926AC
:1040700043503A22000E3B22000E3C2231502C02CB
:104080006100CCF342F56100D0F343F542503E2687
:1040900043503F22000E4022000E412230502D029C
:1040A0006100CCF342F56100D0F343F542503E2667
:1040B00043503F22000E4022000E412231502D027B
:1040C0006100CCF342F56100D0F343F54250336E0A
:1040D0004350346E356A366A35C536F534C535F524
:1040E00033C534F5336A33503E2634503F223550C1
:1040F00040223650412239C533F53AC534F53BC527
:1041000035F53CC536F5190E8BEF20F0D8903632D8
:10411000353234323332E82E86EF20F033503E26EB
:1041200034503F2235504022365041223BC53CF5A9
:104130003AC53BF539C53AF5396A38503DC533F5CE
:10414000346A3326000E3422820E3324426EFF0E70
:104150003420436EC1EF20F0D8903E363F364036D3
:1041600041363CAEB6EF20F0B8EF20F0B9EF20F0CA
:104170003E80D89039363A363B363C364206D8A097
:10418000430640AEC6EF20F0C8EF20F0ACEF20F0C1
:10419000000E386E3CAECFEF20F0D1EF20F0F5EFFF
:1041A00020F0FF0E3914336EFF0E3A14346EFF0EFA
:1041B0003B14356E7F0E3C14366E33503410351080
:1041C0003610D8B4E6EF20F0E8EF20F0ECEF20F066
:1041D000010E386EF5EF20F03EA0F1EF20F0F3EF86
:1041E00020F0F5EF20F0E8EF20F03850D8B4FBEFE6
:1041F00020F0FDEF20F021EF21F0010E3E26000E11
:104200003F224022412241A008EF21F00AEF21F095
:1042100021EF21F03EC533F53FC534F540C535F5F6
:1042200041C536F53634363235323432333233C561
:104230003EF534C53FF535C540F536C541F5424A32
:10424000432A43BE2CEF21F0435008E14228D8A076
:104250002CEF21F02EEF21F038EF21F0000E3E6E12
:10426000000E3F6E800E406E7F0E416E66EF21F0B5
:1042700043BE45EF21F0435006E14204D8B043EF7E
:1042800021F045EF21F051EF21F0000E3E6E000EBF
:104290003F6E000E406E000E416E000E376E66EFF0
:1042A00021F042C53DF5FF0E3E16FF0E3F167F0E74
:1042B0004016000E41163DA060EF21F062EF21F0A4
:1042C00063EF21F0408ED8903D30416E375041125F
:1042D0003EC52BF53FC52CF540C52DF541C52EF546
:1042E00012001550800B226E15501524296E14AE45
:1042F0007CEF21F07EEF21F07FEF21F02980295023
:10430000D8B485EF21F087EF21F09CEF21F0292828
:10431000D8A48DEF21F08FEF21F097EF21F0000E60
:10432000126E000E136E000E146E000E156E148EBB
:10433000000E156EA4EF21F0000E126E000E136E2B
:10434000000E146E000E156E1950800B221A1950B3
:1043500019242A6E18AEAFEF21F0B1EF21F0B2EFC1
:1043600021F02A802A50D8B4B8EF21F0BAEF21F01A
:10437000CFEF21F02A28D8A4C0EF21F0C2EF21F01E
:10438000CAEF21F0000E166E000E176E000E186EAA
:10439000000E196E188E000E196ED7EF21F0000E68
:1043A000166E000E176E000E186E000E196E165067
:1043B000171018101910D8A4E0EF21F0E2EF21F047
:1043C000FAEF21F0000E126E000E136E000E146E46
:1043D000000E156E800E14127F0E1512225015124B
:1043E00012C512F513C513F514C514F515C515F549
:1043F0003DEF23F02950D8A400EF22F002EF22F085
:104400000CEF22F0000E126E000E136E000E146EF2
:10441000000E156E3DEF23F02A5029C51AF51B6AD0
:104420001A5E000E1B5A7F0E1A24236E000E1B20EC
:10443000246E12C51EF513C51FF514C520F515C54C
:1044400021F5000E126E000E136E000E146E000E9B
:10445000156E000E256E000E266E000E276E000EE5
:10446000286E000E2A6E6DEF22F02A50D8B43BEF72
:1044700022F03DEF22F054EF22F0D8901E361F3686
:1044800020362136D890123613361436153628AE1B
:104490004CEF22F04EEF22F04FEF22F01280D89036
:1044A000253626362736283616501E5C17501F58DC
:1044B0001850205819502158D8A061EF22F063EF0E
:1044C00022F06CEF22F0288C16501E5E17501F5AF7
:1044D0001850205A1950215A2A2A190E2A6473EFAB
:1044E00022F075EF22F035EF22F01E501F10201041
:1044F0002110D8B47EEF22F080EF22F098EF22F066
:10450000258098EF22F0D8901236133614361536DF
:1045100028AE8DEF22F08FEF22F090EF22F0128084
:10452000D89025362636273628362306D8A02406E6
:1045300014AE9DEF22F09FEF22F083EF22F0000EE9
:104540002A6E28AEA6EF22F0A8EF22F0CCEF22F0E0
:10455000FF0E25141A6EFF0E26141B6EFF0E271475
:104560001C6E7F0E28141D6E1A501B101C101D107F
:10457000D8B4BDEF22F0BFEF22F0C3EF22F0010E5E
:104580002A6ECCEF22F012A0C8EF22F0CAEF22F080
:10459000CCEF22F0BFEF22F02A50D8B4D2EF22F0B5
:1045A000D4EF22F0F8EF22F0010E1226000E1322B3
:1045B0001422152215A0DFEF22F0E1EF22F0F8EF30
:1045C00022F012C51AF513C51BF514C51CF515C547
:1045D0001DF51D341D321C321B321A321AC512F55C
:1045E0001BC513F51CC514F51DC515F5234A242A52
:1045F00024BE03EF23F0245008E12328D8A003EFC2
:1046000023F005EF23F010EF23F0000E246E236853
:10461000000E126E000E136E000E146E000E156E5C
:1046200024BE1DEF23F0245006E12304D8B01BEF75
:1046300023F01DEF23F02BEF23F0000E246E000E6D
:10464000236E000E126E000E136E000E146E000E1E
:10465000156E000E226E23C529F529A032EF23F036
:1046600034EF23F037EF23F0148E38EF23F0149E4D
:10467000D8902930156EEEEF21F0120055EC31F094
:10468000C18E010EACEC31F0020E096E000E17EC7B
:1046900030F0250E096E250E0A6E14EC2EF0020E77
:1046A000096E010E17EC30F0320E096E250E0A6EFF
:1046B00014EC2EF0520E0501D86F2B0ED76F000EA2
:1046C000E82EFED7D72FFCD7D82FFAD700F0010E4F
:1046D000ACEC31F0000E9BEC30F004C597F605C54C
:1046E00098F6010E9BEC30F004C594F605C595F6DE
:1046F000000E166EF00E176E7F0E186E450E196EB8
:1047000094C604F595C605F5066A076A000EE6EC40
:1047100027F004C512F505C513F506C514F507C540
:1047200015F571EC21F012C52BF513C52CF514C548
:104730002DF515C52EF5000E2F6E000E306EA00E55
:10474000316E400E326E4AEC1FF02BC584F62CC53C
:1047500085F62DC586F62EC587F6000E2F6E000E47
:10476000306EC80E316E420E326E000E166EF00EB6
:10477000176E7F0E186E450E196E97C604F598C613
:1047800005F5066A076A000EE6EC27F004C512F587
:1047900005C513F506C514F507C515F571EC21F02F
:1047A00012C52BF513C52CF514C52DF515C52EF521
:1047B0004AEC1FF02BC544F52CC545F52DC546F533
:1047C0002EC547F557EC29F044500601966F97C661
:1047D000D7F598C6D8F50501D890D737D837D890EF
:1047E000D737D83761005CF740F3610060F741F3D9
:1047F000D69EE751E327E851E423E54BE62BD68E1E
:10480000E65109E1040EE55DD8A009EF24F00BEFB5
:1048100024F023EF24F0E3C5D7F5E4C5D8F5D8900C
:10482000D833D733D890D833D733060ED725EB6F8C
:10483000000ED821EC6F000EE66F000EE56F000E43
:10484000E46F000EE36FEA51D8B429EF24F02BEFA8
:1048500024F06AEF23F0880EEB5D130EEC59D8A01C
:1048600034EF24F036EF24F054EF24F0010EACECDA
:1048700031F0010E096E000E17EC30F0160E096EC5
:10488000250E0A6E14EC2EF0C080150E0501D86FAF
:104890004B0ED76FBE0EE82EFED7D72FFCD7D82FE2
:1048A000FAD700F06AEF23F06F0E2F6E120E306E03
:1048B000830E316E3A0E326EEBC504F5ECC505F58C
:1048C000066A076A000EE6EC27F004C52BF505C55D
:1048D0002CF506C52DF507C52EF54AEC1FF02BC5A6
:1048E00016F52CC517F52DC518F52EC519F5000EB2
:1048F000126E000E136E800E146E3F0E156E71EC6C
:1049000021F012C58CF613C58DF614C58EF615C5AB
:104910008FF68CC62BF58DC62CF58EC62DF58FC661
:104920002EF5000E2F6E000E306E700E316E420EA0
:10493000326E4AEC1FF02BC588F62CC589F62DC5C2
:104940008AF62EC58BF6740E0501C56F060EC66F6E
:10495000010EC76F250EC86F96C6C9F5CA6B88C60B
:10496000CBF589C6CCF58AC6CDF58BC6CEF55CEC09
:104970002FF084C612F585C613F586C614F587C6D2
:1049800015F5000E166E000E176E200E186E410EF5
:10499000196E71EC21F012C590F613C591F614C58D
:1049A00092F615C593F6640E0501C56F060EC66F27
:1049B0003E0EC76F250EC86F90C6C9F591C6CAF5E1
:1049C00092C6CBF593C6CCF55CEC2FF0000E096EC9
:1049D000000E17EC30F0740E096E060E0A6E14EC21
:1049E0002EF0000E096E010E17EC30F0640E096E09
:1049F000060E0A6E14EC2EF0C0906AEF23F00DEF55
:104A000000F008C63BF509C63CF50AC63DF50BC6E5
:104A10003EF52BC53BF52CC53CF52DC53DF52EC50A
:104A20003EF5810E2F6EFF0E306E3BC531F53CC555
:104A300032F53DC533F53EC534F5180E25EF25F0AA
:104A4000D8903432333232323132E82E20EF25F032
:104A500031502F24396E000E30203A6E3ABE3AEFB4
:104A600025F03A5009E1170E395CD8A03AEF25F04D
:104A70003CEF25F046EF25F02BC52BF52CC52CF58A
:104A80002DC52DF52EC52EF509EF26F03ABE4BEFBC
:104A900025F04DEF25F0BDEF25F039C52FF5FF0EC0
:104AA000306EFF0E316E7F0E326E000E336E2F664B
:104AB0005CEF25F064EF25F033343332323231329B
:104AC00030322F2E57EF25F030C535F531C536F58C
:104AD00032C537F533C538F535503B142F6E365097
:104AE0003C14306E37503D14316E38503E14326EE7
:104AF0002F50301031103210D8A481EF25F083EF01
:104B000025F085EF25F03CEF25F03BC52FF53CC5A2
:104B100030F53DC531F53EC532F5200E95EF25F057
:104B2000D8903232313230322F32E82E90EF25F0E9
:104B30002F50301031103210D8B4A1EF25F0A3EF70
:104B400025F0ABEF25F035503B2636503C22375050
:104B50003D2238503E22351C2F6E361C306E371CDD
:104B6000316E381C326E2F503B1630503C1631508F
:104B70003D1632503E1601EF26F03BC52FF53CC5E1
:104B800030F53DC531F53EC532F5200ECDEF25F0AF
:104B9000D8903232313230322F32E82EC8EF25F041
:104BA0002F50301031103210D8A4D9EF25F0DBEFA0
:104BB00025F0E5EF25F0000E3B6E000E3C6E000E7A
:104BC0003D6E000E3E6E01EF26F0D8903B342F6E06
:104BD0003C34306E3D34316E3E34326E2F503010E6
:104BE00031103210D8B4F7EF25F0F9EF25F001EFCE
:104BF00026F0000E3B6E000E3C6E800E3D6EBF0E2A
:104C00003E6E3BC52BF53CC52CF53DC52DF53EC58F
:104C10002EF512005ABE0FEF26F011EF26F012EF1C
:104C200026F05B925ABE1FEF26F05A5006E1590457
:104C3000D8B01DEF26F01FEF26F025EF26F0000E6E
:104C4000326E010E316E29EF26F059C531F55AC585
:104C500032F5E1C533F5E2C534F521C535F522C598
:104C600036F523C537F524C538F525C539F526C5EC
:104C70003AF527C53BF528C53CF5000E3E6E4F0EB4
:104C80003D6E000E0601636FBCEF26F03D06D8A016
:104C90003E06140E3D24D96E060E3E20DA6E35C552
:104CA00004F536C505F537C506F538C507F539C528
:104CB00008F53AC509F53BC50AF53CC50BF50A0EE2
:104CC0000C6E000E0D6E000E0E6E000E0F6E000EBE
:104CD000106E000E116E000E126E000E136E3CEC84
:104CE0002CF004C529F505C52AF506C52BF507C521
:104CF0002CF508C52DF509C52EF50AC52FF50BC5F0
:104D000030F52950300FDF6E3106D8A03206330659
:104D1000D8A0340635C504F536C505F537C506F502
:104D200038C507F539C508F53AC509F53BC50AF593
:104D30003CC50BF50A0E0C6E000E0D6E000E0E6ECD
:104D4000000E0F6E000E106E000E116E000E126E31
:104D5000000E136E58EC2BF004C535F505C536F57D
:104D600006C537F507C538F508C539F509C53AF55B
:104D70000AC53BF50BC53CF53D503E10D8B4C3EF1A
:104D800026F0C5EF26F0F5EF26F035503610371037
:104D9000381039103A103B103C10D8A4D2EF26F04E
:104DA000D4EF26F046EF26F032BEE1EF26F0325087
:104DB00006E13104D8B0DFEF26F0E1EF26F046EF50
:104DC00026F034BEECEF26F0345008E13304D8A0CE
:104DD000ECEF26F0EEEF26F0F5EF26F05BB2F3EF06
:104DE00026F0F5EF26F046EF26F01FC514F520C596
:104DF00015F5140E3D24166E060E3E20176E33C5B3
:104E000018F534C519F506EC2DF014C51FF515C5B8
:104E100020F51200000E196E000E186E000E126EB4
:104E2000000E116E16EF27F00B4A0C2A010E176EBA
:104E300061002CF4F6F4610030F4F7F4000EF86E23
:104E40000800F550200AD8B428EF27F02AEF27F001
:104E50004BEF27F0F70E0D6EFF0E0E6E61002CF477
:104E6000F6F4610030F4F7F4000EF86E0800F55027
:104E70000F6E106A0D500F260E501022105009E1CF
:104E8000050E0F5CD8A047EF27F049EF27F04BEF56
:104E900027F0000E176E17C513F5146A135014107F
:104EA000D8A455EF27F057EF27F014EF27F061EF64
:104EB00027F0000E126E010E116E0B4A0C2A9EEFA7
:104EC00027F061002CF4F6F4610030F4F7F4000EE2
:104ED000F86E0800F5500D6E0E6A0E50000AD8B438
:104EE00074EF27F09EEF27F00D502B0AD8B45DEF3A
:104EF00027F0060AD8B459EF27F09EEF27F018C51F
:104F000004F519C505F5000E076E0A0E066E40EC95
:104F100031F061002CF4F6F4610030F4F7F4000E87
:104F2000F86E0800F550045E000E055A300E042499
:104F3000186E000E0520196E5DEF27F0D00E0D6E75
:104F4000FF0E0E6E61002CF4F6F4610030F4F7F4FD
:104F5000000EF86E0800F5500F6E106A0D500F2607
:104F60000E50102210500AE10A0E0F5CD8A0BBEFC1
:104F700027F0BEEF27F0010EBFEF27F0000E156EF1
:104F8000166A15501610D8A4C8EF27F0CAEF27F0FC
:104F90007FEF27F011501210D8A4D1EF27F0D3EFF4
:104FA00027F0E1EF27F018C50DF519C50EF50D1E18
:104FB0000E1E0D4A0E2A0DC50BF50EC50CF5E5EFBC
:104FC00027F018C50BF519C50CF512000C6E0C5026
:104FD000D8B4EDEF27F0EFEF27F011EF28F007BE80
:104FE000F6EF27F0F4EF27F011EF28F004C508F5ED
:104FF00005C509F506C50AF507C50BF5081E091E06
:105000000A1E0B1E082A000E09220A220B2208C5BE
:105010000EF509C50FF50AC510F50BC511F519EF09
:1050200028F004C50EF505C50FF506C510F507C532
:1050300011F50450051006100710D8A422EF28F02F
:1050400024EF28F02EEF28F0000E046E000E056EFF
:10505000000E066E000E076EBFEF28F0960E0D6E66
:1050600038EF28F00D2AD890113210320F320E325C
:10507000000E0E14086E000E0F14096E000E1014B0
:105080000A6EFE0E11140B6E085009100A100B1058
:10509000D8A44DEF28F04FEF28F032EF28F05DEF65
:1050A00028F00D2A010E0E26000E0F2210221122CA
:1050B000D890113210320F320E32000E0E14086EDC
:1050C000000E0F14096E000E10140A6EFF0E11145C
:1050D0000B6E085009100A100B10D8A472EF28F0BC
:1050E00074EF28F051EF28F07CEF28F00D06D890EF
:1050F0000E360F361036113610BE81EF28F083EFD2
:1051000028F08BEF28F0020E0D6089EF28F08BEF6E
:1051100028F076EF28F00DB090EF28F092EF28F00D
:1051200093EF28F0109ED8900D320DC508F5096A4E
:105130000A6A0B6A08C50BF50A6A096A086A085008
:105140000E1209500F120A5010120B5011120C506F
:10515000D8B4ADEF28F0AFEF28F0B7EF28F007BED6
:10516000B6EF28F0B4EF28F0B7EF28F0118E0EC597
:1051700004F50FC505F510C506F511C507F51200B4
:10518000B1AEC5EF28F0C7EF28F056EF29F0010EB9
:1051900006010027000E0123022303230423052315
:1051A00006230723010E0501D927000EDA23DB238E
:1051B000DC23DD23DE23DF23E0230601124B132B48
:1051C000135109E1320E125DD8A0E9EF28F0EBEFA0
:1051D00028F0FCEF28F00501EA51D8B4F2EF28F0EE
:1051E000F5EF28F0010EF6EF28F0000EEA6F000E42
:1051F0000601136F000E126F0751061105110411FD
:1052000003110211011109E1FA0E005DD8A00BEFA4
:1052100029F00DEF29F015EF29F0080EC31A21EE41
:1052200000F2070EDE6AE806FDE22CEC2FF0000922
:10523000D8B41DEF29F01FEF29F02BEF29F0D9C5C5
:10524000E7F5DAC5E8F521EED9F1070EDE6AE806E2
:10525000FDE252EF29F00501E051DF11DE11DD1111
:10526000DC11DB110BE1880ED95D130EDA59D8A0E1
:105270003CEF29F03EEF29F052EF29F0880ED96F6C
:10528000130EDA6F000EDB6F000EDC6F000EDD6FA9
:10529000000EDE6F000EDF6F000EE06FD9C5EBF57C
:1052A000DAC5ECF5060E0301186FB19E1100463405
:1052B00047344D6E4D50D8A460EF29F062EF29F0CD
:1052C0006CEF29F0000E446E000E456E000E466E27
:1052D000000E476ED9EF29F044C548F545C549F59C
:1052E00046C54AF547C54BF5200E7CEF29F0D8900E
:1052F0004B324A3249324832E82E77EF29F0485093
:105300004C6E468EFF0E4416FF0E4516FF0E4616D7
:10531000000E4716960E4D5E4DBE93EF29F091EFAD
:1053200029F0A9EF29F04D50800A970FD8B09BEFD4
:1053300029F09DEF29F09FEF29F062EF29F0D89036
:1053400047324632453244324D3E9FEF29F0C1EF9D
:1053500029F01F0E4D64AFEF29F0B1EF29F0B9EF3E
:1053600029F062EF29F0D890443645364636473664
:105370004D064D50D8A4BFEF29F0C1EF29F0B3EF8F
:1053800029F04C50D8B4C7EF29F0C9EF29F0D1EF7C
:1053900029F0471E461E451E446C000E452246223B
:1053A000472244C544F545C545F546C546F547C5BC
:1053B00047F51200000E44144C6E000E45144D6E5D
:1053C000800E46144E6E7F0E47144F6E4C504D109B
:1053D0004E104F10D8A4EFEF29F0F1EF29F0F9EFBC
:1053E00029F0000E446E000E456E000E466E000E53
:1053F000476E000E48144C6E000E49144D6E800E20
:105400004A144E6E7F0E4B144F6E4C504D104E1082
:105410004F10D8A40EEF2AF010EF2AF018EF2AF060
:10542000000E486E000E496E000E4A6E000E4B6E66
:1054300047AE1DEF2AF01FEF2AF028EF2AF0446C48
:10544000451ED8B0452A461ED8B0462A800E47567B
:105450004BAE2DEF2AF02FEF2AF038EF2AF0486CF0
:10546000491ED8B0492A4A1ED8B04A2A800E4B5647
:10547000000E441A000E451A000E461A800E471AF6
:10548000000E481A000E491A000E4A1A800E4B1AD6
:105490004850445C495045584A5046584B5047582C
:1054A000D8B055EF2AF057EF2AF05AEF2AF0D890EB
:1054B0005BEF2AF0D88012000CC60EF50DC60FF572
:1054C0000EC610F50FC611F504C50EF505C50FF58E
:1054D00006C510F507C511F50EC508F50FC509F588
:1054E00010C50AF511C50BF5180E7CEF2AF0D890FF
:1054F0000B320A3209320832E82E77EF2AF00850D0
:105500000C6E0D6A0C500D10D8A489EF2AF08BEFA9
:105510002AF0ABEF2AF0D8900E34086E0F34096EE3
:1055200010340A6E11340B6E085009100A100B105B
:10553000D8A49DEF2AF09FEF2AF0A5EF2AF0000EE5
:10554000056E020E046EDAEF2AF0000E056E030EF1
:10555000046EDAEF2AF00C280D10D8A4B2EF2AF06E
:10556000B4EF2AF0D6EF2AF00EC508F50FC509F5FD
:1055700010C50AF511C50BF5090ED8900836093685
:105580000A360B36E82EBDEF2AF0085009100A1033
:105590000B10D8B4CEEF2AF0D1EF2AF0010ED2EFE3
:1055A0002AF0000E046E056ADAEF2AF0000E056E8E
:1055B000040E046E120004C50BF505C50CF506C5F6
:1055C0000DF507C50EF50806D8A00906082806E15E
:1055D0000928D8A4EEEF2AF0F0EF2AF0FDEF2AF028
:1055E000000E056E000E046E57EF2BF00B4A0C2ACE
:1055F0000D4A0E2A0806D8A0090661002CF4D9F439
:10560000610030F4DAF4DF50D8B409EF2BF00BEF7F
:105610002BF040EF2BF0610034F4F6F4610038F425
:10562000F7F4000EF86E0800F5500009D8B41BEF2F
:105630002BF01DEF2BF040EF2BF008500910D8B4E1
:1056400024EF2BF026EF2BF040EF2BF061002CF431
:10565000D9F4610030F4DAF4DF500A6E610034F4FA
:10566000F6F4610038F4F7F4000EF86E0800F55017
:105670000A18D8B43EEF2BF040EF2BF0F6EF2AF0EB
:1056800061002CF4D9F4610030F4DAF4DF500A6ED2
:10569000610034F4F6F4610038F4F7F4000EF86EAB
:1056A0000800F5500A5C046E056AD8A005061200D1
:1056B00021EE14F1070EDE6AE806FDE20C500D1033
:1056C0000E100F101010111012101310D8B46BEF31
:1056D0002BF06DEF2BF0BFEF2BF0010E1C6E7BEF6C
:1056E0002BF0D8900C360D360E360F36103611369C
:1056F000123613361C2A13AE80EF2BF082EF2BF0FC
:1057000071EF2BF0D890143615361636173618363A
:1057100019361A361B360C50045C0D5005580E50C5
:1057200006580F5007581050085811500958125079
:105730000A5813500B58D8A0A0EF2BF0A2EF2BF073
:10574000B3EF2BF00C50045E0D50055A0E50065A64
:105750000F50075A1050085A1150095A12500A5A3D
:1057600013500B5A1480D890133212321132103267
:105770000F320E320D320C321C2E82EF2BF014C57C
:1057800004F515C505F516C506F517C507F518C5C1
:1057900008F519C509F51AC50AF51BC50BF5120060
:1057A00006500710D8B4D7EF2BF0D9EF2BF0E2EF6B
:1057B0002BF006500710D8A4E0EF2BF0E2EF2BF00F
:1057C000E7EF2BF00450B8EC31F03BEF2CF020EE7B
:1057D00004F00650D9260750DA22DE50DE10D8B485
:1057E000F4EF2BF0F6EF2BF011EF2CF020EE04F09D
:1057F0000650D9260750DA2210EE02F00650E126B4
:105800000750E222DE50E65CE650800A0C6EDE5065
:10581000800A0C58D8B00FEF2CF011EF2CF03BEFB2
:105820002CF020EE02F00650D9260750DA22610053
:1058300078F308F5610074F309F5610018F4D9F400
:1058400061001CF4DAF4610078F30AF5610074F386
:105850000BF508500A24D96E09500B20DA6E61004E
:1058600010F4DFF420EE02F00650D9260750DA22B9
:10587000DE2A000EDD2212000C500D100E100F104B
:105880001010111012101310D8B449EF2CF04BEF78
:105890002CF093EF2CF0010E146E59EF2CF0D890F1
:1058A0000C360D360E360F361036113612361336CC
:1058B000142A13AE5EEF2CF060EF2CF04FEF2CF0BB
:1058C0000C50045C0D5005580E5006580F500758E8
:1058D000105008581150095812500A5813500B58BC
:1058E000D8A075EF2CF077EF2CF087EF2CF00C5050
:1058F000045E0D50055A0E50065A0F50075A1050AC
:10590000085A1150095A12500A5A13500B5AD8907B
:1059100013321232113210320F320E320D320C327B
:10592000142E60EF2CF004C504F505C505F506C579
:1059300006F507C507F508C508F509C509F50AC53F
:105940000AF50BC50BF51200000E096E07BEADEF90
:105950002CF0ABEF2CF0B3EF2CF0066C071ED8B098
:10596000072A010E096E05BEBAEF2CF0B8EF2CF035
:10597000C0EF2CF0046C051ED8B0052A010E091AE0
:10598000000E0B6E000E0A6E06500710D8B4CBEF57
:105990002CF0CDEF2CF0F5EF2CF0010E086ED5EFCA
:1059A0002CF0D89006360736082A07AEDAEF2CF02E
:1059B000DCEF2CF0D1EF2CF0D8900A360B360650E5
:1059C000045C07500558D8A0E8EF2CF0EAEF2CF063
:1059D000EFEF2CF00650045E0750055A0A80D8906D
:1059E00007320632082EDCEF2CF00950D8B4FBEF5A
:1059F0002CF0FDEF2CF001EF2DF00A6C0B1ED8B04F
:105A00000B2A0AC504F50BC505F512005BA00BEFC8
:105A10002DF00DEF2DF017EF2DF016C50DF517C574
:105A20000EF514C50FF515C510F5F5EC2FF019BEE0
:105A30001CEF2DF01EEF2DF024EF2DF018C51DF5F5
:105A400019C51EF528EF2DF0000E1E6E000E1D6EFE
:105A5000000E1C6E000E1B6E3AEF2DF0000E056E50
:105A6000200E046E14C506F515C507F5D0EC2BF015
:105A70001B4A1C2A1D501B5C1C50800A1A6E1E50AB
:105A8000800A1A58D8A047EF2DF049EF2DF02EEFDD
:105A90002DF05BB04EEF2DF050EF2DF05AEF2DF0C2
:105AA00016C50DF517C50EF514C50FF515C510F57E
:105AB000F5EC2FF016C504F517C505F5B9EC30F077
:105AC0001D500424146E1E500520156E1200000E89
:105AD000096E05BE70EF2DF06EEF2DF076EF2DF014
:105AE000046C051ED8B0052A010E096E07BE7DEFB5
:105AF0002DF07BEF2DF081EF2DF0066C071ED8B056
:105B0000072A06500710D8B488EF2DF08AEF2DF041
:105B1000AEEF2DF0010E086E92EF2DF0D890063604
:105B20000736082A07AE97EF2DF099EF2DF08EEF8C
:105B30002DF00650045C07500558D8A0A2EF2DF0B8
:105B4000A4EF2DF0A8EF2DF00650045E0750055A83
:105B5000D89007320632082E99EF2DF00950D8B4AC
:105B6000B4EF2DF0B6EF2DF0BAEF2DF0046C051E5A
:105B7000D8B0052A04C504F505C505F51200000EC8
:105B800004140C6E000E05140D6E800E06140E6EBD
:105B90007F0E07140F6E0C500D100E100F10D8A4AE
:105BA000D4EF2DF0D6EF2DF0DEEF2DF0000E046EC9
:105BB000000E056E000E066E000E076E000E081435
:105BC0000C6E000E09140D6E800E0A140E6E7F0E00
:105BD0000B140F6E0C500D100E100F10D8A4F3EF15
:105BE0002DF0F5EF2DF0FDEF2DF0000E086E000EFC
:105BF000096E000E0A6E000E0B6E085004180FE1BD
:105C0000095005180CE10A50061809E10B50071855
:105C1000D8B40DEF2EF00FEF2EF012EF2EF0D8903B
:105C200013EF2EF0D8801200000E0D6E34EF2EF020
:105C30000D5009240B6E000E0A200C6E61002CF42E
:105C4000F6F4610030F4F7F4000EF86E240EF764F9
:105C500003D00800F55005D0F6C4E9F4F7C4EAF41F
:105C6000EF50B2EC31F00D2A0D5009240B6E000EEE
:105C70000A200C6E61002CF4F6F4610030F4F7F4A5
:105C8000000EF86E240EF76403D00800F55005D01E
:105C9000F6C4E9F4F7C4EAF4EF500009D8A453EFCE
:105CA0002EF055EF2EF018EF2EF01200056E055075
:105CB000F00B066E05C504F50F0E04160438F00B44
:105CC000076E0650C312C384060E046E300EE82E13
:105CD000FED7042EFCD700D0C394060E046E300EFF
:105CE000E82EFED7042EFCD700D00650FF0AC316BC
:105CF0000750C312C384060E046E300EE82EFED782
:105D0000042EFCD700D0C394060E046E300EE82E8D
:105D1000FED7042EFCD700D00750FF0AC31612008E
:105D2000C1C557F5C2C558F5000E0601116F000E2A
:105D3000106FB2EF2EF0BFC59DF5C0C59EF5570E92
:105D400005019F6F050EA06FC3C5A1F5C4C5A2F5DF
:105D5000DDEC18F005019D510601102705019E514B
:105D60000601112361005CF5F6F4610060F5F7F4BB
:105D7000000EF86E0800F5500009D8A4C2EF2EF00E
:105D8000C4EF2EF09BEF2EF010C6BFF511C6C0F584
:105D9000120006C50AF507C50BF504C50CF505C5C7
:105DA0000DF50A50086E0B50096E0A4A0B2A610065
:105DB00020F4F6F4610024F4F7F4000EF86E6100AC
:105DC00030F4D9F4610034F4DAF40C4A0D2A240ECC
:105DD000F76403D00800F55005D0F6C4E9F4F7C421
:105DE000EAF4EF50DF6EDF50D8A4F9EF2EF0FBEFAE
:105DF0002EF0D1EF2EF01200BF0E0C6EFF0E0D6EC6
:105E00000AC50EF50BC50FF50C500E260D500F22CE
:105E10000F500AE11A0E0E5CD8A011EF2FF014EF0C
:105E20002FF0010E15EF2FF0000E106E116A1050BA
:105E30001110D8B41EEF2FF020EF2FF027EF2FF026
:105E4000200E0A100A6E0B500B6E2BEF2FF00AC5B6
:105E50000AF50BC50BF51200000E036ECFB033EF41
:105E60002FF036EF2FF0010E37EF2FF0000E036EFC
:105E7000000E026E0501ED51D8B441EF2FF043EF53
:105E80002FF04DEF2FF00350D8A449EF2FF04BEF38
:105E90002FF04DEF2FF0010E026E0250D8A453EFF9
:105EA0002FF056EF2FF0010E57EF2FF0000E016E7E
:105EB00003C5EDF501501200C90E0501CF6F050EA7
:105EC000D06FC5C5D1F5C6C5D2F5000ED46F000E92
:105ED000D36F000ED66F000ED56FD10EBF6F050EBB
:105EE000C06FC7C5C1F5C8C5C2F5CF0EC36F050EDB
:105EF000C46F90EC2EF00501D351C525D96ED45155
:105F0000C621DA6E000EDF6E1200010E0A6E200E40
:105F100004180510D8B48FEF2FF091EF2FF0AAEFEF
:105F20002FF0F70E066EFF0E076E04C508F505C5C7
:105F300009F50650082607500922095009E1050E07
:105F4000085CD8A0A6EF2FF0A8EF2FF0AAEF2FF053
:105F5000000E0A6E0AC504F5056A1200720EF66E8E
:105F6000630EF76E000EF86E09006100D4F3EDF5D4
:105F700001EE00F2840EEE6AE806FDE101EED9F1D1
:105F8000140EEE6AE806FDE15C6A5B6A5A6A596AB9
:105F90000401080E5D6F000E5E6F000E5F6F000162
:105FA0003EEF23F0000E481A000E491A000E4A1A5E
:105FB000800E4B1A44C504F545C505F546C506F5E2
:105FC00047C507F548C508F549C509F54AC50AF5A5
:105FD0004BC50BF5EAEC1CF004C544F505C545F5C9
:105FE00006C546F507C547F51200000E136E000EF4
:105FF000126E06EF30F011C504F5056A0FC506F5FF
:1060000010C507F5D0EC2BF0124A132A12500D24BC
:10601000D96E13500E20DA6EDF50116E1150D8A4D5
:1060200014EF30F016EF30F0FBEF2FF012000A6E95
:10603000000E0B6E0A50D8A420EF30F022EF30F0A3
:1060400026EF30F0800E0B6E33EF30F00A04D8A448
:106050002CEF30F02EEF30F032EF30F0C00E0B6E40
:1060600033EF30F000F009500B260B50ACEC31F060
:106070001200000E0301F36F000EF46F000EF56FB7
:10608000F39FF39DF399F391010EFA6FF385F8995D
:10609000FC0EF817000EEC6FC68004010081000EA4
:1060A0000301F26F000EF16F000EEF6F000EEE6F46
:1060B000F38F1200A5EC31F0020E0A6E040E096E89
:1060C000BA0EE82EFED7092EFCD70A2EFAD700D03A
:1060D000010EACEC31F0020EACEC31F0060EACEC83
:1060E00031F00C0EACEC31F0100EACEC31F02C0EAB
:1060F000ACEC31F012000001AD518F0B6009AD6FB7
:10610000610010F4D9F4610014F4DAF4DF50066E83
:10611000AD510618F00B0618AD6F20EE01F00450DB
:10612000D9260550DA22DF50066EB1510618F00B61
:106130000618B16F1200086E610020F4ECF3030141
:10614000F381F3B1A6EF30F0A8EF30F0A1EF30F01B
:10615000EA516000ACFF06F5076A06C507F5066A56
:106160000610096E07500A6E09C504F50AC505F543
:10617000120004C506F505C507F5C1EF30F0044A65
:10618000052A610010F4D9F4610014F4DAF4DF5048
:10619000D8A4CDEF30F0CFEF30F0BFEF30F00650A5
:1061A000045C046E07500558056E1200BF0E066EA3
:1061B000FF0E076E04C508F505C509F5065008264B
:1061C0000750092209500AE11A0E085CD8A0EBEF2B
:1061D00030F0EEEF30F0010EEFEF30F0000E046E15
:1061E000056A12000450051006100710D8B4FBEF22
:1061F00030F0FDEF30F005EF31F0000E041A000E24
:10620000051A000E061A800E071A04C504F505C506
:1062100005F506C506F507C507F51200D00E066E92
:10622000FF0E076E04C508F505C509F506500826DA
:106230000750092209500AE10A0E085CD8A023EF92
:1062400031F026EF31F0010E27EF31F0000E046E31
:10625000056A1200000E0301426F000E416F000E2E
:10626000406F000E4C6F428F42890C0E42134C81DE
:10627000150E0201126F04011083C892C092120021
:10628000045006026100CCF308F56100D0F309F573
:1062900004500702F350092605500602F350092660
:1062A00008C504F509C505F5120093EC31F09EEC24
:1062B00031F076EC31F039EC30F085EC31F05AEC1D
:1062C00030F066EC31F02AEC31F01200000E0301E0
:1062D000246F000E256F000E276F010E266F249F7E
:1062E000248B2451630E236F248F1200000E0301B0
:1062F0001A6F000E1B6F1A9F1A991A511B8D1B895A
:106300001B85060E186F1A8F1200CB960401289772
:10631000C396C68400950891C780189FC99EC890EF
:106320001091C0901200050E086E000E076E070E49
:10633000046E050E056E7BEC30F01200000ED66E7A
:10634000D68ED69AB19EA18E1200000ECB6E000E94
:106350000401286FC3921200086EC390085056ECD7
:106360002EF01200086EC380085056EC2EF012007A
:0363700012000117
:020000040020DA
:10000000FF0FFF0FFF0FFF0FFF0FFF0FFF0FFF0F80
:10001000FF0FFF0FFF0FFF0FFF0FFF0FFF0FFF0F70
:10002000FF0FFF0FFF0FFF0FFF0FFF0FFF0FFF0F60
:10003000FF0FFF0FFF0FFF0FFF0FFF0FFF0FFF0F50
:020000040030CA
:0A0000008CD5E7C79FFFFFFFFFFF4D
:00000001FF
