:040000000DEF00F010
:0400080040EF29F0AC
:06001800FF007BEF30F059
:10250000004D4F544F522053544F505045442120BA
:102510002020202020004D41582053504545442183
:1025200020202020202000563D252D3375252520F4
:10253000523D252E3266005046204D4F544F5220BA
:1025400052504D00494E46004E414E00696E6600A5
:102550006E616E006C660000000E0501806F000E5B
:102560007F6F52C591F553C592F554C593F555C586
:1025700094F594BFC0EF12F0BEEF12F0D6EF12F058
:10258000000E806F010E7F6F91C504F592C505F5B1
:1025900093C506F594C507F5C2EC31F004C591F575
:1025A00005C592F506C593F507C594F5000E05011E
:1025B000986F000E976FE7C583F5E8C584F57F51E6
:1025C0008011D8A4E6EF12F0E8EF12F0EFEF12F06E
:1025D0005BA4EDEF12F0EFEF12F009EF13F07F5173
:1025E0008011D8A4F6EF12F0F8EF12F0FEEF12F01F
:1025F000000E666F2B0E656F02EF13F0000E666F14
:102600002D0E656F65C50CF6974B982B8307D8A0E8
:10261000840791C504F592C505F593C506F594C5E3
:1026200007F5DBEC2AF004040510D8A41AEF13F028
:102630001CEF13F073EF13F0BF0E0501606FFF0E78
:10264000616F5650626F636B605162276151632303
:1026500063510AE11A0E625DD8A031EF13F034EF36
:1026600013F0010E35EF13F0000E676F686B6751C2
:102670006811D8B43EEF13F040EF13F04EEF13F0B3
:102680000C0E9725046E060E9821056E440E066EFC
:10269000250E076E96EC2FF05AEF13F00C0E9725CF
:1026A000046E060E9821056E4C0E066E250E076E02
:1026B00096EC2FF00501FD0E8327FF0E842350C5F5
:1026C00014F551C515F50C0E166E060E176E83C562
:1026D00018F584C519F585EC2DF014C550F515C510
:1026E00051F5DAEF18F091C504F592C505F593C5DB
:1026F00006F594C507F5DBEC2AF004500510D8A4C4
:1027000084EF13F086EF13F0C6EF13F0BF0E050150
:10271000606FFF0E616F5650626F636B605162278E
:102720006151632363510AE11A0E625DD8A09BEFE9
:1027300013F09EEF13F0010E9FEF13F0000E696F80
:102740006A6B69516A11D8B4A8EF13F0AAEF13F0BD
:10275000B8EF13F00C0E9725046E060E9821056E47
:10276000480E066E250E076E96EC2FF05AEF13F00A
:102770000C0E9725046E060E9821056E500E066EFF
:10278000250E076E96EC2FF05AEF13F0000E0501A0
:10279000996F000E9A6F800E9B6F3F0E9C6F000E1C
:1027A000966F000E956F91C504F592C505F593C51A
:1027B00006F594C507F5000E086E000E096E000EB2
:1027C0000A6E000E0B6E3EEC2EF0D8B0EAEF13F05E
:1027D000ECEF13F06FEF14F00BEF14F099C52BF53D
:1027E0009AC52CF59BC52DF59CC52EF5000E2F6EB8
:1027F000000E306E200E316E410E326E48EC1FF02E
:102800002BC599F52CC59AF52DC59BF52EC59CF5C4
:102810000501954B962B91C544F592C545F593C599
:1028200046F594C547F5000E2F6E000E306E200E53
:10283000316E410E326E99C52BF59AC52CF59BC5AC
:102840002DF59CC52EF548EC1FF02BC548F52CC581
:1028500049F52DC54AF52EC54BF559EC2AF0D8B0EF
:1028600034EF14F036EF14F0EEEF13F056EF14F0EF
:1028700099C512F59AC513F59BC514F59CC515F5B8
:10288000000E166E000E176E200E186E410E196E99
:102890006FEC21F012C599F513C59AF514C59BF597
:1028A00015C59CF505019507D8A0960791C544F577
:1028B00092C545F593C546F594C547F599C548F5C4
:1028C0009AC549F59BC54AF59CC54BF559EC2AF0CC
:1028D000D8A06DEF14F06FEF14F038EF14F056C578
:1028E0000AF50B6AC9EC2FF00A500501866F86C500
:1028F00085F5670E8619D8A480EF14F082EF14F0E6
:10290000A8EF14F059505A10D8A489EF14F08BEFA7
:1029100014F08FEF14F0000E5A6E010E596E5ABE6D
:102920009CEF14F05A5006E15904D8B09AEF14F015
:102930009CEF14F0A2EF14F0000E826F060E816F70
:10294000B1EF14F059C581F55AC582F5B1EF14F015
:102950005ABEADEF14F0AFEF14F09CEF14F0A2EFFD
:1029600014F0670E8619D8A4B8EF14F0BAEF14F07B
:10297000E9EF14F096AFC8EF14F0FC0E955DFF0E72
:102980009659D8A0C6EF14F0C8EF14F0E7EF14F092
:10299000FF0E606FFF0E616F81C562F582C563F542
:1029A00060516227615163239551625D6351800AD2
:1029B000646F9651800A6459D8A0E1EF14F0E3EFF8
:1029C00014F0E7EF14F0660E856FE9EF14F0650E72
:1029D000856F81C577F582C578F5670E8619D8A40D
:1029E000F4EF14F0F6EF14F006EF15F0660E85190B
:1029F000D8A4FDEF14F0FFEF14F008EF15F096BF28
:102A000006EF15F004EF15F008EF15F0774B782B73
:102A1000660E8519D8A40FEF15F011EF15F031EF00
:102A200015F096BF18EF15F016EF15F024EF15F01E
:102A3000000E996F000E9A6F800E9B6F3F0E9C6F79
:102A4000000E966F000E956F670E8619D8B42BEFA7
:102A500015F02DEF15F031EF15F0955177279651C0
:102A60007823000E906F000E8F6F91C587F592C589
:102A700088F593C589F594C58AF599C579F59AC500
:102A80007AF59BC57BF59CC57CF5C2EF15F087C533
:102A900012F588C513F589C514F58AC515F599C5CC
:102AA00016F59AC517F59BC518F59CC519F56FEC79
:102AB00021F012C52BF513C52CF514C52DF515C540
:102AC0002EF581EC25F02BC58BF52CC58CF52DC58D
:102AD0008DF52EC58EF58BC544F58CC545F58DC598
:102AE00046F58EC547F5D6EC29F044C57DF545C5BC
:102AF0007EF587C544F588C545F589C546F58AC57F
:102B000047F599C52FF59AC530F59BC531F59CC59C
:102B100032F58BC52BF58CC52CF58DC52DF58EC5E5
:102B20002EF548EC1FF02BC548F52CC549F52DC5F1
:102B30004AF52EC54BF59FEC30F044C587F545C5E9
:102B400088F546C589F547C58AF599C512F59AC530
:102B500013F59BC514F59CC515F5000E166E000EF9
:102B6000176E200E186E410E196E6FEC21F012C513
:102B700099F513C59AF514C59BF515C59CF5050186
:102B80008F4B902B77518F5D9051800A606F7851F9
:102B9000800A6059D8A0CFEF15F0D1EF15F047EFBC
:102BA00015F099C52BF59AC52CF59BC52DF59CC53F
:102BB0002EF5000E2F6E000E306EA00E316E400E00
:102BC000326E48EC1FF02BC58BF52CC58CF52DC54E
:102BD0008DF52EC58EF587C544F588C545F589C5A3
:102BE00046F58AC547F58BC548F58CC549F58DC5B1
:102BF0004AF58EC54BF559EC2AF0D8B002EF16F025
:102C000004EF16F00FEF16F0000E05018B6F000EAB
:102C10008C6F000E8D6F000E8E6F38EF16F087C52B
:102C200004F588C505F589C506F58AC507F58BC580
:102C300008F58CC509F58DC50AF58EC50BF53EEC7A
:102C40002EF0D8A026EF16F028EF16F038EF16F089
:102C500005017DB12EEF16F030EF16F038EF16F0CB
:102C6000000E8B6F000E8C6F000E8D6F000E8E6F3E
:102C700091C504F592C505F593C506F594C507F50C
:102C80008BC508F58CC509F58DC50AF58EC50BF504
:102C9000E8EC1CF004C587F505C588F506C589F57F
:102CA00007C58AF587C544F588C545F589C546F544
:102CB0008AC547F5000E2F6E000E306E200E316E65
:102CC000410E326E79C52BF57AC52CF57BC52DF5F5
:102CD0007CC52EF548EC1FF02BC548F52CC549F5F1
:102CE0002DC54AF52EC54BF559EC2AF0D8A07BEF3F
:102CF00016F07DEF16F0A6EF16F00501954B962B1A
:102D000079C52BF57AC52CF57BC52DF57CC52EF53F
:102D1000000E2F6E000E306E200E316E410E326EA0
:102D200048EC1FF02BC579F52CC57AF52DC57BF540
:102D30002EC57CF5660E05018519D8A4A2EF16F004
:102D4000A4EF16F0A6EF16F0774B782B79C599F51E
:102D50007AC59AF57BC59BF57CC59CF5650E05018A
:102D60008519D8B4B6EF16F0B8EF16F0BEEF16F02E
:102D700095C575F596C576F5C2EF16F0000E766F1F
:102D8000000E756F000E746F000E736F000E726F81
:102D9000000E716F000E906F000E8F6FBEEF17F078
:102DA00087C512F588C513F589C514F58AC515F5CB
:102DB00099C516F59AC517F59BC518F59CC519F563
:102DC0006FEC21F012C52BF513C52CF514C52DF5AC
:102DD00015C52EF581EC25F02BC58BF52CC58CF592
:102DE0002DC58DF52EC58EF58BC544F58CC545F5E5
:102DF0008DC546F58EC547F5D6EC29F044C57DF561
:102E000045C57EF55BB807EF17F009EF17F027EF20
:102E100017F005017D517E11D8A411EF17F013EFC3
:102E200017F027EF17F0670E8619D8A41AEF17F0DE
:102E30001CEF17F027EF17F076BF23EF17F021EF05
:102E400017F027EF17F0714B722B72EF17F0050197
:102E500073517411D8A42FEF17F031EF17F05BEF17
:102E600017F076BF38EF17F036EF17F05BEF17F07B
:102E70000C0E9725D96E060E9821DA6E2E0EDF6E97
:102E8000974B982B8307D8A08407000E746F010E10
:102E9000736F5BEF17F00C0E9725D96E060E982115
:102EA000DA6E300EDF6E974B982B8307D8A084071D
:102EB0007107D8A0720771517211D8A462EF17F090
:102EC00064EF17F04BEF17F00C0E9725D96E060E36
:102ED0009821DA6E7D51300FDF6E974B982B830768
:102EE000D8A0840787C544F588C545F589C546F54A
:102EF0008AC547F599C52FF59AC530F59BC531F5BB
:102F00009CC532F58BC52BF58CC52CF58DC52DF5E3
:102F10008EC52EF548EC1FF02BC548F52CC549F59C
:102F20002DC54AF52EC54BF59FEC30F044C587F50D
:102F300045C588F546C589F547C58AF599C512F591
:102F40009AC513F59BC514F59CC515F5000E166EB4
:102F5000000E176E200E186E410E196E6FEC21F0E8
:102F600012C599F513C59AF514C59BF515C59CF5C1
:102F700005017507D8A076078F4B902B77518F5D91
:102F80009051800A606F7851800A6059D8B0CBEFB9
:102F900017F0CDEF17F0DBEF17F098BFD9EF17F070
:102FA000985109E14B0E975DD8A0D9EF17F0DBEFF0
:102FB00017F0D0EF16F073517411D8A4E2EF17F0A8
:102FC000E4EF17F0F5EF17F05BA8E9EF17F0EBEF80
:102FD00017F0F5EF17F00C0E9725D96E060E982115
:102FE000DA6E2E0EDF6E974B982B0C0E9725D96E4E
:102FF000060E9821DA6E000EDF6E650E8519D8A4D4
:1030000004EF18F006EF18F05FEF13F0000E906F6A
:103010004F0E8F6F0C0E8F25D96E060E9021DA6E33
:10302000000EDF6E000E806F000E7F6F96BF1DEFEB
:1030300018F01BEF18F025EF18F0000E806F010E4E
:103040007F6F956D961FD8B0962B000E826F020E83
:10305000816F56EF18F08F07D8A090070C0E8F25C0
:10306000D96E060E9021DA6E95C504F596C505F564
:10307000000E076E0A0E066EE6EC2DF00450300FBF
:10308000DF6E95C504F596C505F5000E076E0A0EB0
:10309000066E23EC2DF004C595F505C596F50501E2
:1030A0008107D8A082078307D8A08407955196117D
:1030B000D8A45DEF18F05FEF18F02BEF18F082BF87
:1030C0006CEF18F0825106E18105D8B06AEF18F074
:1030D0006CEF18F02BEF18F08F07D8A090077F51F6
:1030E0008011D8A476EF18F078EF18F07EEF18F082
:1030F000000E6C6F2B0E6B6F82EF18F0000E6C6F72
:103100002D0E6B6F0C0E8F25D96E060E9021DA6E88
:103110006100ACF5DFF48307D8A084078F07D8A03F
:103120009007BF0E606FFF0E616F5650626F636B4A
:10313000605162276151632363510AE11A0E625D97
:10314000D8A0A5EF18F0A8EF18F0010EA9EF18F01D
:10315000000E6F6F706B6F517011D8A4B2EF18F042
:10316000B4EF18F0BAEF18F0000E6E6F650E6D6FC9
:10317000BEEF18F0000E6E6F450E6D6F0C0E8F25B2
:10318000D96E060E9021DA6E6100B4F5DFF4830784
:10319000D8A084070C0E9725046E060E9821056EA4
:1031A0000C0E8F25066E060E9021076E96EC2FF002
:1031B0005FEF13F0120061007CF6D9F4610080F635
:1031C000DAF4DEC4F6F4DDC4F7F4000EF86E08009D
:1031D000F550250AD8A4EFEF18F0F1EF18F0C6EF7C
:1031E0001CF061007CF6D9F4610080F6DAF4DE2A86
:1031F000000EDD22000E0501E86F000EE76FE7C547
:103200005BF5E8C55CF559685A68000EB06F000EB2
:10321000AF6F57EF19F05B8061007CF6D9F4610065
:1032200080F6DAF4DE2A000EDD2257EF19F05B8219
:103230000CEF19F05B840CEF19F05B860CEF19F0C2
:103240005B880CEF19F0000EB06F010EAF6F57EFF7
:1032500019F061007CF6D9F4610080F6DAF4DEC47E
:10326000F6F4DDC4F7F4000EF86E0800F550A36F15
:10327000A46BA451000AD8B440EF19F023EF19F061
:10328000A351200AD8B41DEF19F0030AD8B420EFD7
:1032900019F0080AD8B41AEF19F0060AD8B40BEFDF
:1032A00019F01D0AD8B417EF19F023EF19F0AF5138
:1032B000B011D8B45EEF19F060EF19F029EF19F0F2
:1032C0005BA065EF19F067EF19F068EF19F05B92FA
:1032D00061007CF6D9F4610080F6DAF4DEC4F6F41D
:1032E000DDC4F7F4000EF86E0800F5502A0AD8A4E1
:1032F0007CEF19F07EEF19F0B1EF19F061007CF668
:10330000D9F4610080F6DAF4DE2A000EDD226100D5
:1033100084F6D9F4610088F6DAF461007CF3A3F551
:10332000020EDE2661007CF3A4F5000EDD226100B2
:103330008CF6D9F4610090F6DAF4610078F3E7F5E1
:10334000610074F3E8F5E8BFAAEF19F0A8EF19F0EF
:10335000FFEF19F05B80E76DE81FD8B0E82BFFEFB7
:1033600019F061007CF6D9F4610080F6DAF46100AE
:1033700078F30BF5610074F30CF58AEC27F00BC5BC
:10338000E7F50CC5E8F5CEEF19F061007CF6D9F44D
:10339000610080F6DAF4DE2A000EDD22D00E05018F
:1033A000A36FFF0EA46F61007CF6D9F4610080F674
:1033B000DAF4DEC4F6F4DDC4F7F4000EF86E0800AB
:1033C000F550A56FA66BA351A527A451A623A6511E
:1033D0000AE10A0EA55DD8A0F0EF19F0F3EF19F09D
:1033E000010EF4EF19F0000EB16FB26BB151B211D2
:1033F000D8A4FDEF19F0FFEF19F0C5EF19F0610047
:103400007CF6D9F4610080F6DAF4DEC4F6F4DDC4AB
:10341000F7F4000EF86E0800F5502E0AD8A413EF4A
:103420001AF015EF1AF0ADEF1AF0000E5A6E000EFA
:10343000596E61007CF6D9F4610080F6DAF4DE2A78
:10344000000EDD2261007CF6D9F4610080F6DAF42A
:10345000DEC4F6F4DDC4F7F4000EF86E0800F55093
:103460002A0AD8A436EF1AF038EF1AF05FEF1AF0F4
:1034700061007CF6D9F4610080F6DAF4DE2A000EF1
:10348000DD22610084F6D9F4610088F6DAF4610087
:103490007CF3A3F5020EDE2661007CF3A4F5000E9A
:1034A000DD2261008CF6D9F4610090F6DAF4610057
:1034B00078F359F5610074F35AF5ADEF1AF0610035
:1034C0007CF6D9F4610080F6DAF4610078F30BF54C
:1034D000610074F30CF58AEC27F00BC559F50CC5A7
:1034E0005AF57CEF1AF061007CF6D9F4610080F6A1
:1034F000DAF4DE2A000EDD22D00E0501A36FFF0EE6
:10350000A46F61007CF6D9F4610080F6DAF4DEC4C1
:10351000F6F4DDC4F7F4000EF86E0800F550A56F60
:10352000A66BA351A527A451A623A6510AE10A0E12
:10353000A55DD8A09EEF1AF0A1EF1AF0010EA2EF40
:103540001AF0000EB36FB46BB351B411D8A4ABEF43
:103550001AF0ADEF1AF073EF1AF061007CF6D9F4AF
:10356000610080F6DAF4DEC4F6F4DDC4F7F4000E90
:10357000F86E0800F5500A6E0B6AC9EC2FF00A507D
:103580000501BB6FBB51D8B4C8EF1AF0CAEF1AF0EF
:1035900014EF1BF061007CF6D9F4610080F6DAF4D8
:1035A000610078F3A3F5610074F3A4F5010EA3277D
:1035B000000EA42361008CF6F6F4610090F6F7F497
:1035C000000EF86E0800F5500A6E0B6AC9EC2FF079
:1035D0000A500501BC6FBC51D8B4F1EF1AF0F3EFFB
:1035E0001AF014EF1BF061007CF6D9F4610080F64C
:1035F000DAF4610078F3A3F5610074F3A4F5020E28
:10360000A327000EA42361008CF6F6F4610090F667
:10361000F7F4000EF86E0800F5500A6E0B6AC9EC5C
:103620002FF00A500501BD6F660EBB19D8A41BEF21
:103630001BF01DEF1BF06EEF1BF061007CF6D9F460
:10364000610080F6DAF4DEC4F6F4DDC4F7F4000EAF
:10365000F86E08006100D4F3BEF561007CF6D9F481
:10366000610080F6DAF4DE2A000EDD22610084F6C5
:10367000D9F4610088F6DAF461007CF3A3F5040E56
:10368000DE2661007CF3A4F5000EDD2261008CF6DD
:10369000D9F4610090F6DAF4610078F3B7F56100CF
:1036A00078F3B8F5610078F3B9F5610078F3BAF50D
:1036B0009DC550F59EC551F5B7C552F5B8C553F532
:1036C000B9C554F5BAC555F5BEC556F5ACEC12F002
:1036D00050C59DF551C59EF5E7EF1CF0BB0E046E7D
:1036E000050E056E540E066E250E076E000E096E51
:1036F000020E086E5AEC2BF004500510D8A483EF8C
:103700001BF085EF1BF024EF1CF061007CF6D9F470
:10371000610080F6DAF4610078F3A3F5610074F3D8
:10372000A4F5010E0501A327000EA42361008CF669
:10373000F6F4610090F6F7F4000EF86E08006100F0
:10374000D4F3BEF5BF0EA36FFF0EA46F61007CF62D
:10375000D9F4610080F6DAF4DEC4F6F4DDC4F7F4DF
:10376000000EF86E0800F550A56FA66BA351A527B3
:10377000A451A623A6510AE11A0EA55DD8A0C3EF55
:103780001BF0C6EF1BF0010EC7EF1BF0000EB56F6C
:10379000B66BB551B611D8B4D0EF1BF0D2EF1BF019
:1037A000F6EF1BF0610084F6D9F4610088F6DAF4D4
:1037B00061007CF3A3F5040EDE2661007CF3A4F522
:1037C000000EDD2261008CF6D9F4610090F6DAF487
:1037D000610078F3B7F5610078F3B8F5610078F32C
:1037E000B9F5610078F3BAF518EF1CF0610084F6C2
:1037F000D9F4610088F6DAF461007CF3A3F5040ED5
:10380000DE2661007CF3A4F5000EDD2261008CF65B
:10381000D9F4610090F6DAF4610078F3B7F561004D
:1038200078F3B8F5610078F3B9F5610078F3BAF58B
:10383000020E61007CF6D9F4610080F6DAF4DE262F
:10384000000EDD2258EF1BF061007CF6D9F4610018
:1038500080F6DAF4DEC4F6F4DDC4F7F4000EF86E98
:103860000800F550750AD8A438EF1CF03AEF1CF0A8
:1038700086EF1CF061007CF6D9F4610080F6DAF482
:10388000DE2A000EDD22610084F6D9F4610088F69C
:10389000DAF461007CF3A3F5020EDE2661007CF30E
:1038A000A4F5000EDD2261008CF6D9F4610090F6DB
:1038B000DAF4610078F3A5F5610074F3A6F5A5C507
:1038C000A7F5A6C5A8F50501A96BAA6BAB6BAC6BF8
:1038D000AD6BAE6B9DC51FF59EC520F5A7C521F547
:1038E000A8C522F5A9C523F5AAC524F5ABC525F5BC
:1038F000ACC526F5ADC527F5AEC528F58AEC26F092
:103900001FC59DF520C59EF5E7EF1CF061007CF614
:10391000D9F4610080F6DAF4DEC4F6F4DDC4F7F41D
:10392000000EF86E0800F550250AD8A49AEF1CF096
:103930009CEF1CF0B6EF1CF061007CF6D9F461003E
:1039400080F6DAF4DE2A000EDD22000E056E250E6A
:10395000046E9DC506F59EC507F54FEC2CF0000ED4
:1039600005019E6F010E9D6FE7EF1CF061007CF674
:10397000D9F4610080F6DAF4DE2A000EDD22000EB2
:1039800005019E6F000E9D6FE7EF1CF061007CF655
:10399000D9F4610080F6DAF4DEC4F6F4DDC4F7F49D
:1039A000000EF86E0800F550046E056A9DC506F518
:1039B0009EC507F54FEC2CF061007CF6D9F4610050
:1039C00080F6DAF4DE2A000EDD22AFEF1CF01200E2
:1039D0000750800B106E07500724126E06AEF3EFEF
:1039E0001CF0F5EF1CF0F6EF1CF012801250D8B46A
:1039F000FCEF1CF0FEEF1CF013EF1DF01228D8A412
:103A000004EF1DF006EF1DF00EEF1DF0000E046E2A
:103A1000000E056E000E066E000E076E068E000E7E
:103A2000076E1BEF1DF0000E046E000E056E000EFB
:103A3000066E000E076E0B50800B116E10501118A1
:103A4000D8B425EF1DF027EF1DF028EF1DF0108CE6
:103A50000B500B24116E0AAE30EF1DF032EF1DF04B
:103A600033EF1DF011801150D8B439EF1DF03BEF4A
:103A70001DF050EF1DF01128D8A441EF1DF043EFC9
:103A80001DF04BEF1DF0000E086E000E096E000ECB
:103A90000A6E000E0B6E0A8E000E0B6E58EF1DF0B4
:103AA000000E086E000E096E000E0A6E000E0B6E00
:103AB0001250115CD8B05FEF1DF061EF1DF088EF80
:103AC0001DF010AC66EF1DF068EF1DF06AEF1DF001
:103AD000800E101A12C513F511C512F513C511F594
:103AE00004C513F508C504F513C508F505C513F598
:103AF00009C505F513C509F506C513F50AC506F58B
:103B000013C50AF507C513F50BC507F513C50BF566
:103B1000000E136E125011C50CF50D6A0C5E000EEE
:103B20000D5A0DBE9DEF1DF00D5009E11A0E0C5CF3
:103B3000D8A09DEF1DF09FEF1DF0D6EF1DF00450B3
:103B4000051006100710D8A4A8EF1DF0ABEF1DF06C
:103B5000010EACEF1DF0000E136E000E046E000E91
:103B6000056E000E066E000E076E11C512F5DFEF32
:103B70001DF013A0BEEF1DF0C0EF1DF0C6EF1DF04D
:103B8000D89013300109136EC8EF1DF0D89013328E
:103B900004A0CDEF1DF0CFEF1DF0D0EF1DF0138E80
:103BA00007340732063205320432122A1150125CF1
:103BB000D8A0DDEF1DF0DFEF1DF0B9EF1DF010BC58
:103BC000E4EF1DF0E6EF1DF026EF1EF01250D8A432
:103BD000ECEF1DF0EEEF1DF0F8EF1DF0000E046E9F
:103BE000000E056E000E066E000E076E47EF1FF00A
:103BF00008500426095005220A5006220B500722BD
:103C000007A005EF1EF007EF1EF0B3EF1EF013A0A4
:103C10000CEF1EF00EEF1EF014EF1EF0D8901330D4
:103C20000109136E16EF1EF0D890133204A01BEF9B
:103C30001EF01DEF1EF01EEF1EF0138E073407322C
:103C4000063205320432122AB3EF1EF00850045C2B
:103C5000095005580A5006580750800A0C6E0B5040
:103C6000800A0C58D8B037EF1EF039EF1EF064EF21
:103C70001EF00450085C0C6E055009580D6E06507D
:103C80000A580E6E07500B580F6EFF0E0C24046E70
:103C9000FF0E0D20056EFF0E0E20066EFF0E0F208C
:103CA000076E800E101A136C1350D8A45AEF1EF032
:103CB0005CEF1EF06CEF1EF0010E0426000E0522D4
:103CC000062207226CEF1EF00850045E0950055AC8
:103CD0000A50065A0B50075A0450051006100710D8
:103CE000D8A475EF1EF077EF1EF0ACEF1EF0135066
:103CF000D8A47DEF1EF07FEF1EF0ACEF1EF0000E9B
:103D0000046E000E056E000E066E000E076E47EF85
:103D10001FF0D890043605360636073613AE93EFFB
:103D20001EF095EF1EF096EF1EF0048013A09BEF9F
:103D30001EF09DEF1EF0A1EF1EF0D8801336A3EF0A
:103D40001EF0D89013361250D8B4A9EF1EF0ABEF86
:103D50001EF0ACEF1EF0120606AEB1EF1EF0B3EF90
:103D60001EF089EF1EF0000E116E13AEBAEF1EF0BA
:103D7000BCEF1EF0D4EF1EF013C50CF57F0E0C1631
:103D8000D8B4C5EF1EF0C7EF1EF0CBEF1EF0010E4A
:103D9000116ED4EF1EF004A0D0EF1EF0D2EF1EF093
:103DA000D4EF1EF0C7EF1EF01150D8B4DAEF1EF0BA
:103DB000DCEF1EF007EF1FF0010E0426000E0522B7
:103DC0000622072207A0E7EF1EF0E9EF1EF007EF3B
:103DD0001FF004C50CF505C50DF506C50EF507C5A4
:103DE0000FF50F340F320E320D320C320CC504F5C4
:103DF0000DC505F50EC506F50FC507F51228D8B493
:103E000004EF1FF006EF1FF007EF1FF0122A122831
:103E1000D8B40DEF1FF00FEF1FF017EF1FF0125087
:103E2000D8A415EF1FF017EF1FF029EF1FF0000EB9
:103E3000046E000E056E000E066E000E076E125028
:103E4000D8A425EF1FF027EF1FF029EF1FF0000E79
:103E5000106E12A02EEF1FF030EF1FF033EF1FF0A7
:103E6000068E34EF1FF0069ED8901230076E10AE0B
:103E70003CEF1FF03EEF1FF03FEF1FF0078E04C531
:103E800004F505C505F506C506F507C507F51200D5
:103E90002E50800B376E2E502E243D6E2DAE53EFDC
:103EA0001FF055EF1FF056EF1FF03D803D50D8B486
:103EB0005CEF1FF05EEF1FF071EF1FF03D28D8A4FC
:103EC00064EF1FF066EF1FF06EEF1FF0000E2B6E19
:103ED000000E2C6E000E2D6E000E2E6E2D8E79EFC4
:103EE0001FF0000E2B6E000E2C6E000E2D6E000EBD
:103EF0002E6E3250800B371A32503224386E31AE6B
:103F000084EF1FF086EF1FF087EF1FF038803850E6
:103F1000D8B48DEF1FF08FEF1FF0A2EF1FF03828FD
:103F2000D8A495EF1FF097EF1FF09FEF1FF0000E42
:103F30002F6E000E306E000E316E000E326E318E1E
:103F4000AAEF1FF0000E2F6E000E306E000E316EC5
:103F5000000E326E3850D8B4B0EF1FF0B2EF1FF041
:103F6000BAEF1FF03D50D8A4B8EF1FF0BAEF1FF022
:103F7000C4EF1FF0000E2B6E000E2C6E000E2D6E87
:103F8000000E2E6E6EEF21F031502B026100CCF34B
:103F900042F56100D0F343F54250396E3A6A3B6A0C
:103FA0003C6A43503E6E3F6A406A416A30502C0280
:103FB0006100CCF342F56100D0F343F5425039265D
:103FC000000E3A223B223C2243503E26000E3F2266
:103FD000402241222F502D026100CCF342F56100B6
:103FE000D0F343F542503926000E3A223B223C22C0
:103FF00043503E26000E3F22402241223BC53CF565
:104000003AC53BF539C53AF5396A2F502C026100A3
:10401000CCF342F56100D0F343F5425039264350CA
:104020003A22000E3B22000E3C2230502B0261004F
:10403000CCF342F56100D0F343F5425039264350AA
:104040003A22000E3B22000E3C223BC53CF53AC50D
:104050003BF539C53AF5396A2F502B026100CCF394
:1040600042F56100D0F343F54250392643503A22DD
:10407000000E3B22000E3C2231502C026100CCF39A
:1040800042F56100D0F343F542503E2643503F22B3
:10409000000E4022000E412230502D026100CCF370
:1040A00042F56100D0F343F542503E2643503F2293
:1040B000000E4022000E412231502D026100CCF34F
:1040C00042F56100D0F343F54250336E4350346EF5
:1040D000356A366A35C536F534C535F533C534F538
:1040E000336A33503E2634503F22355040223650FA
:1040F000412239C533F53AC534F53BC535F53CC5E4
:1041000036F5190E89EF20F0D89036323532343238
:104110003332E82E84EF20F033503E2634503F22D5
:1041200035504022365041223BC53CF53AC53BF55F
:1041300039C53AF5396A38503DC533F5346A332606
:10414000000E3422820E3324426EFF0E3420436E62
:10415000BFEF20F0D8903E363F36403641363CAE79
:10416000B4EF20F0B6EF20F0B7EF20F03E80D8900B
:1041700039363A363B363C364206D8A0430640AE86
:10418000C4EF20F0C6EF20F0AAEF20F0000E386E4A
:104190003CAECDEF20F0CFEF20F0F3EF20F0FF0E9C
:1041A0003914336EFF0E3A14346EFF0E3B14356E25
:1041B0007F0E3C14366E3350341035103610D8B4A0
:1041C000E4EF20F0E6EF20F0EAEF20F0010E386E89
:1041D000F3EF20F03EA0EFEF20F0F1EF20F0F3EF4F
:1041E00020F0E6EF20F03850D8B4F9EF20F0FBEFE4
:1041F00020F01FEF21F0010E3E26000E3F2240224C
:10420000412241A006EF21F008EF21F01FEF21F03D
:104210003EC533F53FC534F540C535F541C536F5E6
:104220003634363235323432333233C53EF534C566
:104230003FF535C540F536C541F5424A432A43BEF0
:104240002AEF21F0435008E14228D8A02AEF21F0BC
:104250002CEF21F036EF21F0000E3E6E000E3F6E87
:10426000800E406E7F0E416E64EF21F043BE43EF3F
:1042700021F0435006E14204D8B041EF21F043EF72
:1042800021F04FEF21F0000E3E6E000E3F6E000E4B
:10429000406E000E416E000E376E64EF21F042C595
:1042A0003DF5FF0E3E16FF0E3F167F0E4016000E28
:1042B00041163DA05EEF21F060EF21F061EF21F0AB
:1042C000408ED8903D30416E375041123EC52BF59F
:1042D0003FC52CF540C52DF541C52EF512001550F2
:1042E000800B226E15501524296E14AE7AEF21F042
:1042F0007CEF21F07DEF21F029802950D8B483EFA5
:1043000021F085EF21F09AEF21F02928D8A48BEF36
:1043100021F08DEF21F095EF21F0000E126E000ECE
:10432000136E000E146E000E156E148E000E156EB8
:10433000A2EF21F0000E126E000E136E000E146E2E
:10434000000E156E1950800B221A195019242A6E6E
:1043500018AEADEF21F0AFEF21F0B0EF21F02A80E1
:104360002A50D8B4B6EF21F0B8EF21F0CDEF21F00C
:104370002A28D8A4BEEF21F0C0EF21F0C8EF21F029
:10438000000E166E000E176E000E186E000E196EDF
:10439000188E000E196ED5EF21F0000E166E000E6D
:1043A000176E000E186E000E196E165017101810AA
:1043B0001910D8A4DEEF21F0E0EF21F0F8EF21F0A2
:1043C000000E126E000E136E000E146E000E156EAF
:1043D000800E14127F0E15122250151212C512F5FE
:1043E00013C513F514C514F515C515F53BEF23F0EA
:1043F0002950D8A4FEEF21F000EF22F00AEF22F0BE
:10440000000E126E000E136E000E146E000E156E6E
:104410003BEF23F02A5029C51AF51B6A1A5E000EDD
:104420001B5A7F0E1A24236E000E1B20246E12C509
:104430001EF513C51FF514C520F515C521F5000E91
:10444000126E000E136E000E146E000E156E000E2E
:10445000256E000E266E000E276E000E286E000ED2
:104460002A6E6BEF22F02A50D8B439EF22F03BEFDE
:1044700022F052EF22F0D8901E361F362036213619
:10448000D890123613361436153628AE4AEF22F07D
:104490004CEF22F04DEF22F01280D89025362636D0
:1044A0002736283616501E5C17501F5818502058B3
:1044B00019502158D8A05FEF22F061EF22F06AEF87
:1044C00022F0288C16501E5E17501F5A1850205A82
:1044D0001950215A2A2A190E2A6471EF22F073EF1B
:1044E00022F033EF22F01E501F1020102110D8B4FC
:1044F0007CEF22F07EEF22F096EF22F0258096EFFF
:1045000022F0D890123613361436153628AE8BEFBB
:1045100022F08DEF22F08EEF22F01280D890253617
:104520002636273628362306D8A0240614AE9BEF5D
:1045300022F09DEF22F081EF22F0000E2A6E28AECD
:10454000A4EF22F0A6EF22F0CAEF22F0FF0E25140E
:104550001A6EFF0E26141B6EFF0E27141C6E7F0EA4
:1045600028141D6E1A501B101C101D10D8B4BBEF60
:1045700022F0BDEF22F0C1EF22F0010E2A6ECAEF49
:1045800022F012A0C6EF22F0C8EF22F0CAEF22F00C
:10459000BDEF22F02A50D8B4D0EF22F0D2EF22F0B3
:1045A000F6EF22F0010E1226000E1322142215221D
:1045B00015A0DDEF22F0DFEF22F0F6EF22F012C5BA
:1045C0001AF513C51BF514C51CF515C51DF51D34CD
:1045D0001D321C321B321A321AC512F51BC513F5D7
:1045E0001CC514F51DC515F5234A242A24BE01EF68
:1045F00023F0245008E12328D8A001EF23F003EF93
:1046000023F00EEF23F0000E246E2368000E126ECE
:10461000000E136E000E146E000E156E24BE1BEFFE
:1046200023F0245006E12304D8B019EF23F01BEF48
:1046300023F029EF23F0000E246E000E236E000EEF
:10464000126E000E136E000E146E000E156E000E2C
:10465000226E23C529F529A030EF23F032EF23F095
:1046600035EF23F0148E36EF23F0149ED8902930C6
:10467000156EECEF21F012000FEC32F0010E5CEC45
:1046800032F0020E096E000EE4EC30F0370E096EC7
:10469000250E0A6EE5EC2EF00301F381F3B153EF22
:1046A00023F055EF23F04EEF23F0EA516000ACFF0A
:1046B000D7F50501D86BD7C5D8F5D76BD71106014B
:1046C000746F0501D8510601756F000E2F6E000E34
:1046D000306EC80E316E420E326E000E166EF00E47
:1046E000176E7F0E186E450E196E74C604F575C6EA
:1046F00005F5066A076A000E66EC28F004C512F597
:1047000005C513F506C514F507C515F56FEC21F0C1
:1047100012C52BF513C52CF514C52DF515C52EF5B1
:1047200048EC1FF02BC544F52CC545F52DC546F5C5
:104730002EC547F5D6EC29F044500601766FD69E7B
:104740000501ED51E927EE51EA23EB4BEC2BD68E18
:10475000EC5109E1040EEB5DD8A0B1EF23F0B3EF0B
:1047600023F0CBEF23F0E9C5D7F5EAC5D8F5D8900B
:10477000D833D733D890D833D733060ED725F36F35
:10478000000ED821F46F000EEC6F000EEB6F000EE0
:10479000EA6F000EE96FF251D8B4D1EF23F0D3EFF6
:1047A00023F04CEF23F0F45107E1650EF35DD8B030
:1047B000DCEF23F0DEEF23F0EBEF23F0000E096EC9
:1047C000010EE4EC30F0160E096E250E0A6EE5ECD3
:1047D0002EF04CEF23F0880EF35D130EF459D8A0A1
:1047E000F4EF23F0F6EF23F003EF24F0000E096E50
:1047F000010EE4EC30F0010E096E250E0A6EE5ECB8
:104800002EF04CEF23F06F0E2F6E120E306E830ED3
:10481000316E3A0E326EF3C504F5F4C505F5066A3D
:10482000076A000E66EC28F004C52BF505C52CF5CB
:1048300006C52DF507C52EF548EC1FF02BC516F55E
:104840002CC517F52DC518F52EC519F5000E126EDD
:10485000000E136E800E146E3F0E156E6FEC21F07D
:1048600012C570F613C571F614C572F615C573F648
:1048700070C62BF571C62CF572C62DF573C62EF5D4
:10488000000E2F6E000E306E700E316E420E326EC4
:1048900048EC1FF02BC56CF62CC56DF62DC56EF6D9
:1048A0002EC56FF65C0E0501C56F060EC66F270E8E
:1048B000C76F250EC86F76C6C9F5CA6B6CC6CBF537
:1048C0006DC6CCF56EC6CDF56FC6CEF529EC30F0D1
:1048D000000E096E010EE4EC30F05C0E096E060E5F
:1048E0000A6EE5EC2EF04CEF23F00DEF00F0000E19
:1048F0000201C96F000EC76F000ED16F000ED26F9C
:10490000000ED36F20EE02F01150D9261250DA2299
:10491000DF50136E000E13B0800E136E1350D113C0
:1049200020EE03F01150D9261250DA22DF50136E18
:10493000060E146ED8901336142E9AEF24F01350EE
:10494000D11320EE04F01150D9261250DA22DF5094
:10495000136E050E146ED8901336142EABEF24F0A0
:104960001350D11320EE05F01150D9261250DA223F
:10497000DF50136E1338F00BD11320EE06F01150F8
:10498000D9261250DA22DF50D11320EE07F0115051
:10499000D9261250DA22DF50136E000E13B0800EAB
:1049A000136E1350D21320EE08F01150D926125076
:1049B000DA22DF50136E1338F00BD21320EE09F019
:1049C0001150D9261250DA22DF50136E060E146EE3
:1049D000D8901336142EE8EF24F01350D31320EEA2
:1049E0000AF01150D9261250DA22DF50136ED890F7
:1049F0001336D8901334D31320EE0BF01150D92670
:104A00001250DA22DF50136E1338F00BD31320EE5E
:104A10000CF01150D9261250DA22DF50D313D1AF47
:104A200014EF25F016EF25F04CEF25F0000E046E84
:104A3000090E056E3D0E066E000E076E610044F411
:104A4000D9F4610048F4DAF4610078F313F56100F9
:104A500074F314F51350156E1450166E176A186A15
:104A6000020ED8901536163617361836E82E31EF66
:104A700025F015C508F516C509F517C50AF518C5B9
:104A80000BF593EC2EF0FF0E04240201D46FFF0E01
:104A90000520D56F80EF25F0000E046E090E056E1F
:104AA0003D0E066E000E076E610044F4D9F46100FD
:104AB00048F4DAF4610078F313F5610074F314F547
:104AC0001350156E1450166E176A186A040ED8909B
:104AD0001536163617361836E82E67EF25F015C549
:104AE00008F516C509F517C50AF518C50BF593ECB9
:104AF0002EF0FF0E04240201D46FFF0E0520D56FA7
:104B0000120008C63BF509C63CF50AC63DF50BC6C2
:104B10003EF52BC53BF52CC53CF52DC53DF52EC509
:104B20003EF5810E2F6EFF0E306E3BC531F53CC554
:104B300032F53DC533F53EC534F5180EA5EF25F029
:104B4000D8903432333232323132E82EA0EF25F0B1
:104B500031502F24396E000E30203A6E3ABEBAEF33
:104B600025F03A5009E1170E395CD8A0BAEF25F0CC
:104B7000BCEF25F0C6EF25F02BC52BF52CC52CF589
:104B80002DC52DF52EC52EF589EF26F03ABECBEFBB
:104B900025F0CDEF25F03DEF26F039C52FF5FF0EBE
:104BA000306EFF0E316E7F0E326E000E336E2F664A
:104BB000DCEF25F0E4EF25F033343332323231329A
:104BC00030322F2ED7EF25F030C535F531C536F50B
:104BD00032C537F533C538F535503B142F6E365096
:104BE0003C14306E37503D14316E38503E14326EE6
:104BF0002F50301031103210D8A401EF26F003EFFF
:104C000026F005EF26F0BCEF25F03BC52FF53CC59F
:104C100030F53DC531F53EC532F5200E15EF26F0D5
:104C2000D8903232313230322F32E82E10EF26F067
:104C30002F50301031103210D8B421EF26F023EF6E
:104C400026F02BEF26F035503B2636503C223750CD
:104C50003D2238503E22351C2F6E361C306E371CDC
:104C6000316E381C326E2F503B1630503C1631508E
:104C70003D1632503E1681EF26F03BC52FF53CC560
:104C800030F53DC531F53EC532F5200E4DEF26F02D
:104C9000D8903232313230322F32E82E48EF26F0BF
:104CA0002F50301031103210D8A459EF26F05BEF9E
:104CB00026F065EF26F0000E3B6E000E3C6E000EF7
:104CC0003D6E000E3E6E81EF26F0D8903B342F6E85
:104CD0003C34306E3D34316E3E34326E2F503010E5
:104CE00031103210D8B477EF26F079EF26F081EF4B
:104CF00026F0000E3B6E000E3C6E800E3D6EBF0E29
:104D00003E6E3BC52BF53CC52CF53DC52DF53EC58E
:104D10002EF512005ABE8FEF26F091EF26F092EF9B
:104D200026F05B925ABE9FEF26F05A5006E15904D6
:104D3000D8B09DEF26F09FEF26F0A5EF26F0000EED
:104D4000326E010E316EA9EF26F059C531F55AC504
:104D500032F5E7C533F5E8C534F521C535F522C58B
:104D600036F523C537F524C538F525C539F526C5EB
:104D70003AF527C53BF528C53CF5000E3E6E4F0EB3
:104D80003D6E000E06015B6F3CEF27F03D06D8A09C
:104D90003E060C0E3D24D96E060E3E20DA6E35C559
:104DA00004F536C505F537C506F538C507F539C527
:104DB00008F53AC509F53BC50AF53CC50BF50A0EE1
:104DC0000C6E000E0D6E000E0E6E000E0F6E000EBD
:104DD000106E000E116E000E126E000E136EBBEC04
:104DE0002CF004C529F505C52AF506C52BF507C520
:104DF0002CF508C52DF509C52EF50AC52FF50BC5EF
:104E000030F52950300FDF6E3106D8A03206330658
:104E1000D8A0340635C504F536C505F537C506F501
:104E200038C507F539C508F53AC509F53BC50AF592
:104E30003CC50BF50A0E0C6E000E0D6E000E0E6ECC
:104E4000000E0F6E000E106E000E116E000E126E30
:104E5000000E136ED7EC2BF004C535F505C536F5FD
:104E600006C537F507C538F508C539F509C53AF55A
:104E70000AC53BF50BC53CF53D503E10D8B443EF99
:104E800027F045EF27F075EF27F035503610371033
:104E9000381039103A103B103C10D8A452EF27F0CC
:104EA00054EF27F0C6EF26F032BE61EF27F0325004
:104EB00006E13104D8B05FEF27F061EF27F0C6EFCD
:104EC00026F034BE6CEF27F0345008E13304D8A04C
:104ED0006CEF27F06EEF27F075EF27F05BB273EF02
:104EE00027F075EF27F0C6EF26F01FC514F520C593
:104EF00015F50C0E3D24166E060E3E20176E33C5BA
:104F000018F534C519F585EC2DF014C51FF515C538
:104F100020F51200000E196E000E186E000E126EB3
:104F2000000E116E96EF27F00B4A0C2A010E176E39
:104F300061002CF4F6F4610030F4F7F4000EF86E22
:104F40000800F550200AD8B4A8EF27F0AAEF27F000
:104F5000CBEF27F0F70E0D6EFF0E0E6E61002CF4F6
:104F6000F6F4610030F4F7F4000EF86E0800F55026
:104F70000F6E106A0D500F260E501022105009E1CE
:104F8000050E0F5CD8A0C7EF27F0C9EF27F0CBEFD5
:104F900027F0000E176E17C513F5146A135014107E
:104FA000D8A4D5EF27F0D7EF27F094EF27F0E1EF63
:104FB00027F0000E126E010E116E0B4A0C2A1EEF26
:104FC00028F061002CF4F6F4610030F4F7F4000EE0
:104FD000F86E0800F5500D6E0E6A0E50000AD8B437
:104FE000F4EF27F01EEF28F00D502B0AD8B4DDEFB8
:104FF00027F0060AD8B4D9EF27F01EEF28F018C51D
:1050000004F519C505F5000E076E0A0E066EFAECDA
:1050100031F061002CF4F6F4610030F4F7F4000E86
:10502000F86E0800F550045E000E055A300E042498
:10503000186E000E0520196EDDEF27F0D00E0D6EF4
:10504000FF0E0E6E61002CF4F6F4610030F4F7F4FC
:10505000000EF86E0800F5500F6E106A0D500F2606
:105060000E50102210500AE10A0E0F5CD8A03BEF40
:1050700028F03EEF28F0010E3FEF28F0000E156EED
:10508000166A15501610D8A448EF28F04AEF28F0F9
:10509000FFEF27F011501210D8A451EF28F053EF72
:1050A00028F061EF28F018C50DF519C50EF50D1E95
:1050B0000E1E0D4A0E2A0DC50BF50EC50CF565EF3B
:1050C00028F018C50BF519C50CF512000C6E0C5024
:1050D000D8B46DEF28F06FEF28F091EF28F007BEFD
:1050E00076EF28F074EF28F091EF28F004C508F56A
:1050F00005C509F506C50AF507C50BF5081E091E05
:105100000A1E0B1E082A000E09220A220B2208C5BD
:105110000EF509C50FF50AC510F50BC511F599EF88
:1051200028F004C50EF505C50FF506C510F507C531
:1051300011F50450051006100710D8A4A2EF28F0AE
:10514000A4EF28F0AEEF28F0000E046E000E056EFE
:10515000000E066E000E076E3FEF29F0960E0D6EE4
:10516000B8EF28F00D2AD890113210320F320E32DB
:10517000000E0E14086E000E0F14096E000E1014AF
:105180000A6EFE0E11140B6E085009100A100B1057
:10519000D8A4CDEF28F0CFEF28F0B2EF28F0DDEF64
:1051A00028F00D2A010E0E26000E0F2210221122C9
:1051B000D890113210320F320E32000E0E14086EDB
:1051C000000E0F14096E000E10140A6EFF0E11145B
:1051D0000B6E085009100A100B10D8A4F2EF28F03B
:1051E000F4EF28F0D1EF28F0FCEF28F00D06D8906E
:1051F0000E360F361036113610BE01EF29F003EFD0
:1052000029F00BEF29F0020E0D6009EF29F00BEFEA
:1052100029F0F6EF28F00DB010EF29F012EF29F089
:1052200013EF29F0109ED8900D320DC508F5096ACC
:105230000A6A0B6A08C50BF50A6A096A086A085007
:105240000E1209500F120A5010120B5011120C506E
:10525000D8B42DEF29F02FEF29F037EF29F007BE52
:1052600036EF29F034EF29F037EF29F0118E0EC513
:1052700004F50FC505F510C506F511C507F51200B3
:10528000B1AE45EF29F047EF29F0D5EF29F0010E37
:1052900006010027000E0123022303230423052314
:1052A00006230723010E0501D927000EDA23DB238D
:1052B000DC23DD23DE23DF23E023EF4BF02BF05153
:1052C00009E1320EEF5DD8A068EF29F06AEF29F00E
:1052D00079EF29F0F251D8B470EF29F073EF29F08B
:1052E000010E74EF29F0000EF26F000EF06F000E49
:1052F000EF6F060107510611051104110311021188
:105300000BE1F40E005D010E0159D8A08AEF29F0DF
:105310008CEF29F094EF29F0080EC31A21EE00F269
:10532000070EDE6AE806FDE2F9EC2FF00009D8B4BA
:105330009CEF29F09EEF29F0AAEF29F0D9C5EDF5F1
:10534000DAC5EEF521EED9F1070EDE6AE806FDE2D8
:10535000D1EF29F00501E051DF11DE11DD11DC1183
:10536000DB110BE1880ED95D130EDA59D8A0BBEF23
:1053700029F0BDEF29F0D1EF29F0880ED96F130E77
:10538000DA6F000EDB6F000EDC6F000EDD6F000EBB
:10539000DE6F000EDF6F000EE06FD9C5F3F5DAC5E2
:1053A000F4F5060E0301186FB19E11004634473420
:1053B0004D6E4D50D8A4DFEF29F0E1EF29F0EBEF6F
:1053C00029F0000E446E000E456E000E466E000E73
:1053D000476E58EF2AF044C548F545C549F546C51E
:1053E0004AF547C54BF5200EFBEF29F0D8904B321C
:1053F0004A3249324832E82EF6EF29F048504C6ED6
:10540000468EFF0E4416FF0E4516FF0E4616000E82
:105410004716960E4D5E4DBE12EF2AF010EF2AF0A1
:1054200028EF2AF04D50800A970FD8B01AEF2AF0D3
:105430001CEF2AF01EEF2AF0E1EF29F0D890473256
:105440004632453244324D3E1EEF2AF040EF2AF0FC
:105450001F0E4D642EEF2AF030EF2AF038EF2AF0BD
:10546000E1EF29F0D89044364536463647364D06AA
:105470004D50D8A43EEF2AF040EF2AF032EF2AF048
:105480004C50D8B446EF2AF048EF2AF050EF2AF0FB
:10549000471E461E451E446C000E452246224722EA
:1054A00044C544F545C545F546C546F547C547F5E8
:1054B0001200000E44144C6E000E45144D6E800E0A
:1054C00046144E6E7F0E47144F6E4C504D104E10CA
:1054D0004F10D8A46EEF2AF070EF2AF078EF2AF080
:1054E000000E446E000E456E000E466E000E476EB6
:1054F000000E48144C6E000E49144D6E800E4A1476
:105500004E6E7F0E4B144F6E4C504D104E104F1080
:10551000D8A48DEF2AF08FEF2AF097EF2AF0000E33
:10552000486E000E496E000E4A6E000E4B6E47AE7E
:105530009CEF2AF09EEF2AF0A7EF2AF0446C451E5C
:10554000D8B0452A461ED8B0462A800E47564BAEE4
:10555000ACEF2AF0AEEF2AF0B7EF2AF0486C491E04
:10556000D8B0492A4A1ED8B04A2A800E4B56000E9F
:10557000441A000E451A000E461A800E471A000EF5
:10558000481A000E491A000E4A1A800E4B1A48504B
:10559000445C495045584A5046584B504758D8B03B
:1055A000D4EF2AF0D6EF2AF0D9EF2AF0D890DAEF2C
:1055B0002AF0D8801200E1C50EF5E2C50FF5E3C56B
:1055C00010F5E4C511F504C50EF505C50FF506C5C2
:1055D00010F507C511F50EC508F50FC509F510C57D
:1055E0000AF511C50BF5180EFBEF2AF0D8900B3217
:1055F0000A3209320832E82EF6EF2AF008500C6E13
:105600000D6A0C500D10D8A408EF2BF00AEF2BF008
:105610002AEF2BF0D8900E34086E0F34096E103438
:105620000A6E11340B6E085009100A100B10D8A422
:105630001CEF2BF01EEF2BF024EF2BF0000E056E6D
:10564000020E046E59EF2BF0000E056E030E046E71
:1056500059EF2BF00C280D10D8A431EF2BF033EFBD
:105660002BF055EF2BF00EC508F50FC509F510C549
:105670000AF511C50BF5090ED890083609360A3619
:105680000B36E82E3CEF2BF0085009100A100B10D7
:10569000D8B44DEF2BF050EF2BF0010E51EF2BF063
:1056A000000E046E056A59EF2BF0000E056E040E15
:1056B000046E120004C50BF505C50CF506C50DF505
:1056C00007C50EF50806D8A00906082806E109282E
:1056D000D8A46DEF2BF06FEF2BF07CEF2BF0000ECA
:1056E000056E000E046ED6EF2BF00B4A0C2A0D4A05
:1056F0000E2A0806D8A0090661002CF4D9F461002E
:1057000030F4DAF4DF50D8B488EF2BF08AEF2BF0C6
:10571000BFEF2BF0610034F4F6F4610038F4F7F4D5
:10572000000EF86E0800F5500009D8B49AEF2BF07F
:105730009CEF2BF0BFEF2BF008500910D8B4A3EF6B
:105740002BF0A5EF2BF0BFEF2BF061002CF4D9F478
:10575000610030F4DAF4DF500A6E610034F4F6F4DC
:10576000610038F4F7F4000EF86E0800F5500A18DE
:10577000D8B4BDEF2BF0BFEF2BF075EF2BF061002D
:105780002CF4D9F4610030F4DAF4DF500A6E6100D1
:1057900034F4F6F4610038F4F7F4000EF86E080003
:1057A000F5500A5C046E056AD8A00506120021EEC9
:1057B00014F1070EDE6AE806FDE20C500D100E1023
:1057C0000F101010111012101310D8B4EAEF2BF0B4
:1057D000ECEF2BF03EEF2CF0010E1C6EFAEF2BF0ED
:1057E000D8900C360D360E360F361036113612366E
:1057F00013361C2A13AEFFEF2BF001EF2CF0F0EF65
:105800002BF0D8901436153616361736183619364A
:105810001A361B360C50045C0D5005580E500658B5
:105820000F500758105008581150095812500A5874
:1058300013500B58D8A01FEF2CF021EF2CF032EFB3
:105840002CF00C50045E0D50055A0E50065A0F50A5
:10585000075A1050085A1150095A12500A5A135038
:105860000B5A1480D89013321232113210320F3288
:105870000E320D320C321C2E01EF2CF014C504F543
:1058800015C505F516C506F517C507F518C508F5BC
:1058900019C509F51AC50AF51BC50BF51200065006
:1058A0000710D8B456EF2CF058EF2CF061EF2CF025
:1058B00006500710D8A45FEF2CF061EF2CF066EFD4
:1058C0002CF0045068EC32F0BAEF2CF020EE04F02B
:1058D0000650D9260750DA22DE50DE10D8B473EF16
:1058E0002CF075EF2CF090EF2CF020EE04F0065029
:1058F000D9260750DA2210EE02F00650E1260750B2
:10590000E222DE50E65CE650800A0C6EDE50800A31
:105910000C58D8B08EEF2CF090EF2CF0BAEF2CF0A2
:1059200020EE02F00650D9260750DA22610078F303
:1059300008F5610074F309F5610018F4D9F4610009
:105940001CF4DAF4610078F30AF5610074F30BF5E6
:1059500008500A24D96E09500B20DA6E610010F449
:10596000DFF420EE02F00650D9260750DA22DE2AB4
:10597000000EDD2212000C500D100E100F10101032
:10598000111012101310D8B4C8EF2CF0CAEF2CF07D
:1059900012EF2DF0010E146ED8EF2CF0D8900C36CB
:1059A0000D360E360F361036113612361336142ACF
:1059B00013AEDDEF2CF0DFEF2CF0CEEF2CF00C501F
:1059C000045C0D5005580E5006580F5007581050E3
:1059D00008581150095812500A5813500B58D8A0A3
:1059E000F4EF2CF0F6EF2CF006EF2DF00C50045EE7
:1059F0000D50055A0E50065A0F50075A1050085AAB
:105A00001150095A12500A5A13500B5AD890133297
:105A10001232113210320F320E320D320C32142E7D
:105A2000DFEF2CF004C504F505C505F506C506F540
:105A300007C507F508C508F509C509F50AC50AF53A
:105A40000BC50BF51200000E096E07BE2CEF2DF0F2
:105A50002AEF2DF032EF2DF0066C071ED8B0072A82
:105A6000010E096E05BE39EF2DF037EF2DF03FEF37
:105A70002DF0046C051ED8B0052A010E091A000E7F
:105A80000B6E000E0A6E06500710D8B44AEF2DF0C8
:105A90004CEF2DF074EF2DF0010E086E54EF2DF049
:105AA000D89006360736082A07AE59EF2DF05BEF7F
:105AB0002DF050EF2DF0D8900A360B360650045CCE
:105AC00007500558D8A067EF2DF069EF2DF06EEF65
:105AD0002DF00650045E0750055A0A80D890073210
:105AE0000632082E5BEF2DF00950D8B47AEF2DF076
:105AF0007CEF2DF080EF2DF00A6C0B1ED8B00B2A36
:105B00000AC504F50BC505F512005BA08AEF2DF060
:105B10008CEF2DF096EF2DF016C50DF517C50EF58F
:105B200014C50FF515C510F5C2EC30F019BE9BEF8A
:105B30002DF09DEF2DF0A3EF2DF018C51DF519C523
:105B40001EF5A7EF2DF0000E1E6E000E1D6E000E4E
:105B50001C6E000E1B6EB9EF2DF0000E056E200EB0
:105B6000046E14C506F515C507F54FEC2CF01B4A5D
:105B70001C2A1D501B5C1C50800A1A6E1E50800A85
:105B80001A58D8A0C6EF2DF0C8EF2DF0ADEF2DF0CC
:105B90005BB0CDEF2DF0CFEF2DF0D9EF2DF016C586
:105BA0000DF517C50EF514C50FF515C510F5C2ECAA
:105BB00030F016C504F517C505F589EC31F01D5018
:105BC0000424146E1E500520156E1200000E096E7E
:105BD00005BEEFEF2DF0EDEF2DF0F5EF2DF0046C9D
:105BE000051ED8B0052A010E096E07BEFCEF2DF088
:105BF000FAEF2DF000EF2EF0066C071ED8B0072A42
:105C000006500710D8B407EF2EF009EF2EF02DEF55
:105C10002EF0010E086E11EF2EF0D89006360736E2
:105C2000082A07AE16EF2EF018EF2EF00DEF2EF02B
:105C30000650045C07500558D8A021EF2EF023EF42
:105C40002EF027EF2EF00650045E0750055AD8902C
:105C500007320632082E18EF2EF00950D8B433EF71
:105C60002EF035EF2EF039EF2EF0046C051ED8B073
:105C7000052A04C504F505C505F51200000E041437
:105C80000C6E000E05140D6E800E06140E6E7F0E47
:105C900007140F6E0C500D100E100F10D8A453EFF8
:105CA0002EF055EF2EF05DEF2EF0000E046E000E7C
:105CB000056E000E066E000E076E000E08140C6EC8
:105CC000000E09140D6E800E0A140E6E7F0E0B145A
:105CD0000F6E0C500D100E100F10D8A472EF2EF096
:105CE00074EF2EF07CEF2EF0000E086E000E096EA1
:105CF000000E0A6E000E0B6E085004180FE10950DA
:105D000005180CE10A50061809E10B500718D8B421
:105D10008CEF2EF08EEF2EF091EF2EF0D89092EFC8
:105D20002EF0D8801200000E0C6E000E0D6E000ECC
:105D30000E6E000E0F6E085009100A100B10D8B42A
:105D4000A4EF2EF0A6EF2EF0DCEF2EF0010E106E79
:105D5000B0EF2EF0D890083609360A360B36102AE6
:105D60000BAEB5EF2EF0B7EF2EF0AAEF2EF0D890D5
:105D70000C360D360E360F360850045C09500558A7
:105D80000A5006580B500758D8A0C9EF2EF0CBEF99
:105D90002EF0D4EF2EF00850045E0950055A0A5038
:105DA000065A0B50075A0C80D8900B320A3209322F
:105DB0000832102EB7EF2EF00CC504F50DC505F511
:105DC0000EC506F50FC507F51200000E0D6E05EFA6
:105DD0002FF00D5009240B6E000E0A200C6E61008E
:105DE0002CF4F6F4610030F4F7F4000EF86E240E93
:105DF000F76403D00800F55005D0F6C4E1F4F7C409
:105E0000E2F4E75062EC32F00D2A0D5009240B6EDB
:105E1000000E0A200C6E61002CF4F6F4610030F4E0
:105E2000F7F4000EF86E240EF76403D00800F55066
:105E300005D0F6C4E1F4F7C4E2F4E7500009D8A4B1
:105E400024EF2FF026EF2FF0E9EF2EF01200056E71
:105E50000550F00B066E05C504F50F0E0416043848
:105E6000F00B076E0650C312C384060E046E300E8C
:105E7000E82EFED7042EFCD700D0C394060E046E85
:105E8000300EE82EFED7042EFCD700D00650FF0AB5
:105E9000C3160750C312C384060E046E300EE82EDC
:105EA000FED7042EFCD700D0C394060E046E300E2D
:105EB000E82EFED7042EFCD700D00750FF0AC316E9
:105EC0001200C1C557F5C2C558F5000E0501E66FB1
:105ED000000EE56F7FEF2FF0BFC59DF5C0C59EF5A5
:105EE000570E9F6F050EA06FC3C5A1F5C4C5A2F5DF
:105EF000DBEC18F005019D51E5279E51E62361007A
:105F00005CF5F6F4610060F5F7F4000EF86E080039
:105F1000F5500009D8A48FEF2FF091EF2FF06CEF20
:105F20002FF0E5C5BFF5E6C5C0F5120006C50AF5B8
:105F300007C50BF504C50CF505C50DF50A50086E2F
:105F40000B50096E0A4A0B2A610020F4F6F4610036
:105F500024F4F7F4000EF86E610030F4D9F4610017
:105F600034F4DAF40C4A0D2A240EF76403D0080046
:105F7000F55005D0F6C4E1F4F7C4E2F4E750DF6E63
:105F8000DF50D8A4C6EF2FF0C8EF2FF09EEF2FF010
:105F90001200BF0E0C6EFF0E0D6E0AC50EF50BC57E
:105FA0000FF50C500E260D500F220F500AE11A0E5D
:105FB0000E5CD8A0DEEF2FF0E1EF2FF0010EE2EF44
:105FC0002FF0000E106E116A10501110D8B4EBEFC4
:105FD0002FF0EDEF2FF0F4EF2FF0200E0A100A6EE5
:105FE0000B500B6EF8EF2FF00AC50AF50BC50BF539
:105FF0001200000E036ECFB000EF30F003EF30F070
:10600000010E04EF30F0000E036E000E026E05016B
:10601000F551D8B40EEF30F010EF30F01AEF30F049
:106020000350D8A416EF30F018EF30F01AEF30F02C
:10603000010E026E0250D8A420EF30F023EF30F0B2
:10604000010E24EF30F0000E016E03C5F5F501508E
:106050001200C90E0501CF6F050ED06FC5C5D1F571
:10606000C6C5D2F5000ED46F000ED36F000ED66FEA
:10607000000ED56FD10EBF6F050EC06FC7C5C1F53D
:10608000C8C5C2F5CF0EC36F050EC46F61EC2FF00B
:106090000501D351C525D96ED451C621DA6E000E43
:1060A000DF6E1200010E0A6E200E04180510D8B41F
:1060B0005CEF30F05EEF30F077EF30F0F70E066E09
:1060C000FF0E076E04C508F505C509F5065008263C
:1060D00007500922095009E1050E085CD8A073EFAA
:1060E00030F075EF30F077EF30F0000E0A6E0AC531
:1060F00004F5056A1200D20EF66E640EF76E000EFD
:10610000F86E09006100D4F3F5F501EE00F26C0EB3
:10611000EE6AE806FDE101EED9F11C0EEE6AE80632
:10612000FDE15C6A5B6A5A6A596A0401080E5D6F98
:10613000000E5E6F000E5F6F00013CEF23F0000E5B
:10614000481A000E491A000E4A1A800E4B1A44C50E
:1061500004F545C505F546C506F547C507F548C527
:1061600008F549C509F54AC50AF54BC50BF5E8EC34
:106170001CF004C544F505C545F506C546F507C53B
:1061800047F51200000E136E000E126ED3EF30F0C2
:1061900011C504F5056A0FC506F510C507F54FECE6
:1061A0002CF0124A132A12500D24D96E13500E20CF
:1061B000DA6EDF50116E1150D8A4E1EF30F0E3EF4A
:1061C00030F0C8EF30F012000A6E000E0B6E0A506D
:1061D000D8A4EDEF30F0EFEF30F0F3EF30F0800EB9
:1061E0000B6E00EF31F00A04D8A4F9EF30F0FBEFAA
:1061F00030F0FFEF30F0C00E0B6E00EF31F000F02A
:1062000009500B260B505CEC32F01200000E1C6E95
:10621000250E1A6E800E196E000E256E000E1F6E72
:10622000000E1B6E010E206E010E1E6E010E1D6E05
:10623000000E226E000E236E000E246E000E216EE4
:10624000190E116E050E126E77EC24F01200000E7E
:106250000301F36F000EF46F000EF56FF39FF39DD3
:10626000F399F391010EFA6FF385F899FC0EF81784
:10627000000EEC6FC68004010081000E0301F26F76
:10628000000EF16F000EEF6F000EEE6FF38F120035
:1062900055EC32F0020E0A6E040E096EBA0EE82EAC
:1062A000FED7092EFCD70A2EFAD700D0010E5CECDF
:1062B00032F0020E5CEC32F0060E5CEC32F00C0EAA
:1062C0005CEC32F0100E5CEC32F02C0E5CEC32F038
:1062D00012000001AD518F0B6009AD6F610010F429
:1062E000D9F4610014F4DAF4DF50066EAD510618EB
:1062F000F00B0618AD6F20EE01F00450D9260550C2
:10630000DA22DF50066EB1510618F00B0618B16F95
:10631000120004C506F505C507F591EF31F0044AF2
:10632000052A610010F4D9F4610014F4DAF4DF50A6
:10633000D8A49DEF31F09FEF31F08FEF31F0065090
:10634000045C046E07500558056E1200BF0E066E01
:10635000FF0E076E04C508F505C509F506500826A9
:106360000750092209500AE11A0E085CD8A0BBEFB9
:1063700031F0BEEF31F0010EBFEF31F0000E046ED0
:10638000056A12000450051006100710D8B4CBEFB0
:1063900031F0CDEF31F0D5EF31F0000E041A000EE0
:1063A000051A000E061A800E071A04C504F505C565
:1063B00005F506C506F507C507F51200D00E066EF1
:1063C000FF0E076E04C508F505C509F50650082639
:1063D0000750092209500AE10A0E085CD8A0F3EF21
:1063E00031F0F6EF31F0010EF7EF31F0000E046EF0
:1063F000056A1200045006026100CCF308F5610042
:10640000D0F309F504500702F3500926055006029F
:10641000F350092608C504F509C505F512003AEC44
:1064200032F04EEC32F020EC32F027EC31F045EC5B
:1064300032F048EC31F006EC31F02FEC32F0120083
:10644000000E03011A6F000E1B6F1A9F1A991A5142
:106450001B8D1B891B85060E186F1A8F1200290EC3
:106460000201766F260E296F04012893CB82CB9010
:10647000C3901200050E086E000E076E070E046E24
:10648000050E056E69EC31F01200CB9604012897D9
:10649000C396C68400950891C7801200000ED66E80
:1064A000D68ED69AB19EA18E1200000ECB6E000E33
:1064B0000401286FC3921200086EC390085027ECA5
:1064C0002FF01200086EC380085027EC2FF0120046
:0364D000120001B6
:020000040020DA
:10000000FF0FFF0FFF0FFF0FFF0FFF0FFF0FFF0F80
:10001000FF0FFF0FFF0FFF0FFF0FFF0FFF0FFF0F70
:10002000FF0FFF0FFF0FFF0FFF0FFF0FFF0FFF0F60
:10003000FF0FFF0FFF0FFF0FFF0FFF0FFF0FFF0F50
:020000040030CA
:0A0000008CD5E7C79FFFFFFFFFFF4D
:00000001FF
