:040000000DEF00F010
:0400080081EF1FF075
:06001800FF00EFEF1FF0F6
:10250000005046204D4F544F522052504D00563DE2
:10251000252D3375252500002B50800B346E2B5054
:102520002B243A6E2AAE97EF12F099EF12F09AEF41
:1025300012F03A803A50D8B4A0EF12F0A2EF12F0A5
:10254000B5EF12F03A28D8A4A8EF12F0AAEF12F0D3
:10255000B2EF12F0000E286E000E296E000E2A6EE9
:10256000000E2B6E2A8EBDEF12F0000E286E000EAC
:10257000296E000E2A6E000E2B6E2F50800B341A1F
:102580002F502F24396E2EAEC8EF12F0CAEF12F082
:10259000CBEF12F039803950D8B4D1EF12F0D3EF2D
:1025A00012F0E6EF12F03928D8A4D9EF12F0DBEFE1
:1025B00012F0E3EF12F0000E2C6E000E2D6E000EE6
:1025C0002E6E000E2F6E2E8EEEEF12F0000E2C6E81
:1025D000000E2D6E000E2E6E000E2F6E3950D8B4E8
:1025E000F4EF12F0F6EF12F0FEEF12F03A50D8A42A
:1025F000FCEF12F0FEEF12F008EF13F0000E286E61
:10260000000E296E000E2A6E000E2B6EB2EF14F033
:102610002E5028026100CCF33FF56100D0F340F565
:102620003F50356E366A376A386A40503B6E3C6AB6
:102630003D6A3E6A2D5029026100CCF33FF56100EE
:10264000D0F340F53F503526000E3622372238228F
:1026500040503B26000E3C223D223E222C502A02B6
:102660006100CCF33FF56100D0F340F53F503526D3
:10267000000E36223722382240503B26000E3C22E4
:102680003D223E2237C538F536C537F535C536F516
:10269000356A2C5029026100CCF33FF56100D0F37C
:1026A00040F53F50352640503622000E3722000EAE
:1026B00038222D5028026100CCF33FF56100D0F3A1
:1026C00040F53F50352640503622000E3722000E8E
:1026D000382237C538F536C537F535C536F5356A8C
:1026E0002C5028026100CCF33FF56100D0F340F597
:1026F0003F50352640503622000E3722000E382239
:102700002E5029026100CCF33FF56100D0F340F573
:102710003F503B2640503C22000E3D22000E3E2200
:102720002D502A026100CCF33FF56100D0F340F553
:102730003F503B2640503C22000E3D22000E3E22E0
:102740002E502A026100CCF33FF56100D0F340F532
:102750003F50306E4050316E326A336A32C533F5C5
:1027600031C532F530C531F5306A30503B26315035
:102770003C2232503D2233503E2235C530F536C51D
:1027800031F537C532F538C533F5190ECDEF13F0F5
:10279000D8903332323231323032E82EC8EF13F073
:1027A00030503B2631503C2232503D2233503E22A5
:1027B00037C538F536C537F535C536F5356A39507C
:1027C0003AC530F5316A3026000E3122820E3024AF
:1027D0003F6EFF0E3120406E03EF14F0D8903B3671
:1027E0003C363D363E3638AEF8EF13F0FAEF13F0D4
:1027F000FBEF13F03B80D890353636363736383617
:102800003F06D8A040063DAE08EF14F00AEF14F0E2
:10281000EEEF13F0000E396E38AE11EF14F013EF37
:1028200014F037EF14F0FF0E3514306EFF0E36142F
:10283000316EFF0E3714326E7F0E3814336E305007
:10284000311032103310D8B428EF14F02AEF14F0FE
:102850002EEF14F0010E396E37EF14F03BA033EF7A
:1028600014F035EF14F037EF14F02AEF14F039506C
:10287000D8B43DEF14F03FEF14F063EF14F0010E05
:102880003B26000E3C223D223E223EA04AEF14F0A1
:102890004CEF14F063EF14F03BC530F53CC531F557
:1028A0003DC532F53EC533F5333433323232313241
:1028B000303230C53BF531C53CF532C53DF533C549
:1028C0003EF53F4A402A40BE6EEF14F0405008E10A
:1028D0003F28D8A06EEF14F070EF14F07AEF14F0E8
:1028E000000E3B6E000E3C6E800E3D6E7F0E3E6E07
:1028F000A8EF14F040BE87EF14F0405006E13F040B
:10290000D8B085EF14F087EF14F093EF14F0000EB9
:102910003B6E000E3C6E000E3D6E000E3E6E000ED5
:10292000346EA8EF14F03FC53AF5FF0E3B16FF0ECC
:102930003C167F0E3D16000E3E163AA0A2EF14F094
:10294000A4EF14F0A5EF14F03D8ED8903A303E6E0F
:1029500034503E123BC528F53CC529F53DC52AF546
:102960003EC52BF512006100F8F4D9F46100FCF4C7
:10297000DAF4DEC4F6F4DDC4F7F4000EF86E0800F5
:10298000F550250AD8A4C7EF14F0C9EF14F07BEF77
:1029900016F06100F8F4D9F46100FCF4DAF4DE2AF0
:1029A000000EDD22000E0501636F000E626F62C52E
:1029B00066F563C567F564696569000E4F6E000EC4
:1029C0004E6E34EF15F0050166816100F8F4D9F41C
:1029D0006100FCF4DAF4DE2A000EDD2234EF15F09B
:1029E00005016683E5EF14F005016685E5EF14F057
:1029F00005016687E5EF14F005016689E5EF14F03F
:102A0000000E4F6E010E4E6E34EF15F06100F8F4BB
:102A1000D9F46100FCF4DAF4DEC4F6F4DDC4F7F4B2
:102A2000000EF86E0800F550426E436A4350000AEB
:102A3000D8B41DEF15F000EF15F04250200AD8B4BD
:102A4000F8EF14F0030AD8B4FCEF14F0080AD8B475
:102A5000F4EF14F0060AD8B4E3EF14F01D0AD8B46A
:102A6000F0EF14F000EF15F04E504F10D8B43BEFDC
:102A700015F03DEF15F006EF15F0050166A143EFE7
:102A800015F045EF15F046EF15F066936100F8F488
:102A9000D9F46100FCF4DAF4DEC4F6F4DDC4F7F432
:102AA000000EF86E0800F5502A0AD8A45AEF15F067
:102AB0005CEF15F08FEF15F06100F8F4D9F46100C8
:102AC000FCF4DAF4DE2A000EDD22610000F5D9F410
:102AD000610004F5DAF461007CF342F5020EDE26B3
:102AE00061007CF343F5000EDD22610008F5D9F4A6
:102AF00061000CF5DAF4610078F362F5610074F3BB
:102B000063F563BF88EF15F086EF15F0DCEF15F085
:102B10006681626D631FD8B0632BDCEF15F0610036
:102B2000F8F4D9F46100FCF4DAF4610078F308F504
:102B3000610074F309F56BEC19F008C562F509C57D
:102B400063F5ACEF15F06100F8F4D9F46100FCF422
:102B5000DAF4DE2A000EDD22D00E426EFF0E436E46
:102B60006100F8F4D9F46100FCF4DAF4DEC4F6F4A0
:102B7000DDC4F7F4000EF86E0800F550446E456AA7
:102B8000425044264350452245500AE10A0E445C17
:102B9000D8A0CDEF15F0D0EF15F0010ED1EF15F064
:102BA000000E506E516A50505110D8A4DAEF15F053
:102BB000DCEF15F0A3EF15F06100F8F4D9F4610033
:102BC000FCF4DAF4DEC4F6F4DDC4F7F4000EF86EBB
:102BD0000800F550750AD8A4F0EF15F0F2EF15F0E3
:102BE0003DEF16F06100F8F4D9F46100FCF4DAF47A
:102BF000DE2A000EDD22610000F5D9F4610004F543
:102C0000DAF461007CF342F5020EDE2661007CF30B
:102C100043F5000EDD22610008F5D9F461000CF5E2
:102C2000DAF4610078F344F5610074F345F544C5C6
:102C300046F545C547F5486A496A4A6A4B6A4C6A8F
:102C40004D6A3CC51CF53DC51DF546C51EF547C57D
:102C50001FF548C520F549C521F54AC522F54BC5E4
:102C600023F54CC524F54DC525F56AEC18F01CC5B7
:102C70003CF51DC53DF59CEF16F06100F8F4D9F464
:102C80006100FCF4DAF4DEC4F6F4DDC4F7F4000EFF
:102C9000F86E0800F550250AD8A451EF16F053EF4E
:102CA00016F06CEF16F06100F8F4D9F46100FCF452
:102CB000DAF4DE2A000EDD22000E026E250E016E11
:102CC0003CC503F53DC504F5A1EC1CF0000E3D6EBE
:102CD000010E3C6E9CEF16F06100F8F4D9F461002F
:102CE000FCF4DAF4DE2A000EDD22000E3D6E000E4A
:102CF0003C6E9CEF16F06100F8F4D9F46100FCF42E
:102D0000DAF4DEC4F6F4DDC4F7F4000EF86E080061
:102D1000F550016E026A3CC503F53DC504F5A1EC12
:102D20001CF06100F8F4D9F46100FCF4DAF4DE2A56
:102D3000000EDD2266EF16F012001250800B1F6E9F
:102D400012501224266E11AEA8EF16F0AAEF16F05C
:102D5000ABEF16F026802650D8B4B1EF16F0B3EFE3
:102D600016F0C8EF16F02628D8A4B9EF16F0BBEF7E
:102D700016F0C3EF16F0000E0F6E000E106E000E70
:102D8000116E000E126E118E000E126ED0EF16F044
:102D9000000E0F6E000E106E000E116E000E126E01
:102DA0001650800B1F1A16501624276E15AEDBEF37
:102DB00016F0DDEF16F0DEEF16F027802750D8B4BE
:102DC000E4EF16F0E6EF16F0FBEF16F02728D8A494
:102DD000ECEF16F0EEEF16F0F6EF16F0000E136EB5
:102DE000000E146E000E156E000E166E158E000E7F
:102DF000166E03EF17F0000E136E000E146E000E29
:102E0000156E000E166E1350141015101610D8A45F
:102E10000CEF17F00EEF17F026EF17F0000E0F6E05
:102E2000000E106E000E116E000E126E800E11124A
:102E30007F0E12121F5012120FC50FF510C510F59C
:102E400011C511F512C512F569EF18F02650D8A476
:102E50002CEF17F02EEF17F038EF17F0000E0F6E73
:102E6000000E106E000E116E000E126E69EF18F05B
:102E7000275026C517F5186A175E000E185A7F0EE0
:102E80001724206E000E1820216E0FC51BF510C5EB
:102E90001CF511C51DF512C51EF5000E0F6E000EB6
:102EA000106E000E116E000E126E000E226E000EDD
:102EB000236E000E246E000E256E000E276E99EF15
:102EC00017F02750D8B467EF17F069EF17F080EFCD
:102ED00017F0D8901B361C361D361E36D8900F368C
:102EE00010361136123625AE78EF17F07AEF17F05C
:102EF0007BEF17F00F80D890223623362436253604
:102F000013501B5C14501C5815501D5816501E5859
:102F1000D8A08DEF17F08FEF17F098EF17F0258CF2
:102F200013501B5E14501C5A15501D5A16501E5A31
:102F3000272A190E27649FEF17F0A1EF17F061EF12
:102F400017F01B501C101D101E10D8B4AAEF17F05C
:102F5000ACEF17F0C4EF17F02280C4EF17F0D89051
:102F60000F3610361136123625AEB9EF17F0BBEF1B
:102F700017F0BCEF17F00F80D89022362336243696
:102F800025362006D8A0210611AEC9EF17F0CBEFE9
:102F900017F0AFEF17F0000E276E25AED2EF17F047
:102FA000D4EF17F0F8EF17F0FF0E2214176EFF0E94
:102FB0002314186EFF0E2414196E7F0E25141A6E3A
:102FC0001750181019101A10D8B4E9EF17F0EBEFDA
:102FD00017F0EFEF17F0010E276EF8EF17F00FA0C4
:102FE000F4EF17F0F6EF17F0F8EF17F0EBEF17F03C
:102FF0002750D8B4FEEF17F000EF18F024EF18F0C8
:10300000010E0F26000E10221122122212A00BEF29
:1030100018F00DEF18F024EF18F00FC517F510C5D4
:1030200018F511C519F512C51AF51A341A321932E4
:103030001832173217C50FF518C510F519C511F557
:103040001AC512F5204A212A21BE2FEF18F021506F
:1030500008E12028D8A02FEF18F031EF18F03CEF4E
:1030600018F0000E216E2068000E0F6E000E106E1C
:10307000000E116E000E126E21BE49EF18F02150A5
:1030800006E12004D8B047EF18F049EF18F057EFE9
:1030900018F0000E216E000E206E000E0F6E000E56
:1030A000106E000E116E000E126E000E1F6E20C507
:1030B00026F526A05EEF18F060EF18F063EF18F029
:1030C000118E64EF18F0119ED8902630126E1AEF10
:1030D00017F01200050165BF70EF18F072EF18F0DD
:1030E00073EF18F0669365BF80EF18F0655106E145
:1030F0006405D8B07EEF18F080EF18F086EF18F076
:10310000000E2F6E010E2E6E8AEF18F064C52EF59C
:1031100065C52FF562C530F563C531F51EC532F5BD
:103120001FC533F520C534F521C535F522C536F563
:1031300023C537F524C538F525C539F5000E3B6E96
:103140001F0E3A6E000E896F1CEF19F03A06D8A0D8
:103150003B066A0E3A24D96E050E3B20DA6E32C564
:1031600001F533C502F534C503F535C504F536C59B
:1031700005F537C506F538C507F539C508F50A0E52
:10318000096E000E0A6E000E0B6E000E0C6E000E25
:103190000D6E000E0E6E000E0F6E000E106E0DEC1A
:1031A0001DF001C526F502C527F503C528F504C5A0
:1031B00029F505C52AF506C52BF507C52CF508C563
:1031C0002DF52650300FDF6E2E06D8A02F063006C4
:1031D000D8A0310632C501F533C502F534C503F573
:1031E00035C504F536C505F537C506F538C507F507
:1031F00039C508F50A0E096E000E0A6E000E0B6E38
:10320000000E0C6E000E0D6E000E0E6E000E0F6E98
:10321000000E106E29EC1CF001C532F502C533F525
:1032200003C534F504C535F505C536F506C537F5CE
:1032300007C538F508C539F53A503B10D8B423EF27
:1032400019F025EF19F056EF19F032503310341001
:1032500035103610371038103910D8A432EF19F065
:1032600034EF19F0A6EF18F02FBE41EF19F02F50F0
:1032700006E12E04D8B03FEF19F041EF19F0A6EFA8
:1032800018F031BE4CEF19F0315008E13004D8A0ED
:103290004CEF19F04EEF19F056EF19F0050166B337
:1032A00054EF19F056EF19F0A6EF18F01CC511F500
:1032B0001DC512F56A0E3A24136E050E3B20146EDE
:1032C00030C515F531C516F575EC1DF011C51CF5A9
:1032D00012C51DF51200000E166E000E156E000EC2
:1032E0000F6E000E0E6E77EF19F0084A092A010ED4
:1032F000146E610020F4F6F4610024F4F7F4000E7B
:10330000F86E0800F550200AD8B489EF19F08BEF59
:1033100019F0ACEF19F0F70E0A6EFF0E0B6E61009C
:1033200020F4F6F4610024F4F7F4000EF86E0800BF
:10333000F5500C6E0D6A0A500C260B500D220D50E4
:1033400009E1050E0C5CD8A0A8EF19F0AAEF19F05E
:10335000ACEF19F0000E146E14C510F5116A105080
:103360001110D8A4B6EF19F0B8EF19F075EF19F0F5
:10337000C2EF19F0000E0F6E010E0E6E084A092AF8
:10338000FFEF19F0610020F4F6F4610024F4F7F483
:10339000000EF86E0800F5500A6E0B6A0B50000A1A
:1033A000D8B4D5EF19F0FFEF19F00A502B0AD8B4B2
:1033B000BEEF19F0060AD8B4BAEF19F0FFEF19F012
:1033C00015C501F516C502F5000E046E0A0E036E52
:1033D000DAEC1FF0610020F4F6F4610024F4F7F455
:1033E000000EF86E0800F550015E000E025A300E15
:1033F0000124156E000E0220166EBEEF19F0D00EDD
:103400000A6EFF0E0B6E610020F4F6F4610024F4E6
:10341000F7F4000EF86E0800F5500C6E0D6A0A50B5
:103420000C260B500D220D500AE10A0E0C5CD8A0A0
:103430001CEF1AF01FEF1AF0010E20EF1AF0000E29
:10344000126E136A12501310D8A429EF1AF02BEF42
:103450001AF0E0EF19F00E500F10D8A432EF1AF066
:1034600034EF1AF042EF1AF015C50AF516C50BF540
:103470000A1E0B1E0A4A0B2A0AC508F50BC509F5D8
:1034800046EF1AF015C508F516C509F51200096EC4
:103490000950D8B44EEF1AF050EF1AF072EF1AF04C
:1034A00004BE57EF1AF055EF1AF072EF1AF001C58B
:1034B00005F502C506F503C507F504C508F5051EA3
:1034C000061E071E081E052A000E062207220822D5
:1034D00005C50BF506C50CF507C50DF508C50EF5B8
:1034E0007AEF1AF001C50BF502C50CF503C50DF511
:1034F00004C50EF50150021003100410D8A483EF88
:103500001AF085EF1AF08FEF1AF0000E016E000E20
:10351000026E000E036E000E046E20EF1BF0960E7E
:103520000A6E99EF1AF00A2AD8900E320D320C3238
:103530000B32000E0B14056E000E0C14066E000EFE
:103540000D14076EFE0E0E14086E055006100710BF
:103550000810D8A4AEEF1AF0B0EF1AF093EF1AF0FB
:10356000BEEF1AF00A2A010E0B26000E0C220D22C5
:103570000E22D8900E320D320C320B32000E0B148C
:10358000056E000E0C14066E000E0D14076EFF0E75
:103590000E14086E0550061007100810D8A4D3EFBB
:1035A0001AF0D5EF1AF0B2EF1AF0DDEF1AF00A06B2
:1035B000D8900B360C360D360E360DBEE2EF1AF0F3
:1035C000E4EF1AF0ECEF1AF0020E0A60EAEF1AF0DC
:1035D000ECEF1AF0D7EF1AF00AB0F1EF1AF0F3EFB0
:1035E0001AF0F4EF1AF00D9ED8900A320AC505F5CC
:1035F000066A076A086A05C508F5076A066A056A61
:1036000005500B1206500C1207500D1208500E12E6
:103610000950D8B40EEF1BF010EF1BF018EF1BF0A1
:1036200004BE17EF1BF015EF1BF018EF1BF00E8E0A
:103630000BC501F50CC502F50DC503F50EC504F566
:1036400012000EEC20F0020E066E000EFDEC1EF0D5
:10365000010E066E250E076ED8EC1DF00301F381F6
:10366000F3B135EF1BF037EF1BF030EF1BF0EA51F1
:103670006000ACFFA2F50501A36BA2C5A3F5A26B88
:10368000A211A46FA351A56F000E2C6E000E2D6E1B
:10369000C80E2E6E420E2F6E000E136EF00E146EBC
:1036A0007F0E156E450E166EA4C501F5A5C502F573
:1036B000036A046A000E47EC1AF001C50FF502C553
:1036C00010F503C511F504C512F59DEC16F00FC5F4
:1036D00028F510C529F511C52AF512C52BF58CEC76
:1036E00012F028C541F529C542F52AC543F52BC579
:1036F00044F5A6EC1BF041500501A66F8A0E5A6EE8
:10370000050E5B6E0E0E5C6E250E5D6EA6C55EF53B
:103710005F6A89EC1EF0000E066E010EFDEC1EF0D5
:103720008A0E066E050E076ED8EC1DF0030E05011D
:10373000A36F080EA26F770EE82EFED7A22FFCD73C
:10374000A32FFAD72EEF1BF00DEF00F043344434D3
:103750004A6E4A50D8A4AFEF1BF0B1EF1BF0BBEF9D
:103760001BF0000E416E000E426E000E436E000E06
:10377000446E28EF1CF041C545F542C546F543C5EA
:1037800047F544C548F5200ECBEF1BF0D8904832E2
:10379000473246324532E82EC6EF1BF04550496E9F
:1037A000438EFF0E4116FF0E4216FF0E4316000E0B
:1037B0004416960E4A5E4ABEE2EF1BF0E0EF1BF0A5
:1037C000F8EF1BF04A50800A970FD8B0EAEF1BF0D1
:1037D000ECEF1BF0EEEF1BF0B1EF1BF0D890443292
:1037E0004332423241324A3EEEEF1BF010EF1CF002
:1037F0001F0E4A64FEEF1BF000EF1CF008EF1CF0F8
:10380000B1EF1BF0D89041364236433644364A0673
:103810004A50D8A40EEF1CF010EF1CF002EF1CF081
:103820004950D8B416EF1CF018EF1CF020EF1CF034
:10383000441E431E421E416C000E4222432244227B
:1038400041C541F542C542F543C543F544C544F57C
:10385000120021EE11F1070EDE6AE806FDE20950C2
:103860000A100B100C100D100E100F101010D8B401
:103870003CEF1CF03EEF1CF090EF1CF0010E196EB7
:103880004CEF1CF0D89009360A360B360C360D3644
:103890000E360F361036192A10AE51EF1CF053EFCA
:1038A0001CF042EF1CF0D890113612361336143645
:1038B00015361636173618360950015C0A5002586C
:1038C0000B5003580C5004580D5005580E50065814
:1038D0000F50075810500858D8A071EF1CF073EF24
:1038E0001CF084EF1CF00950015E0A50025A0B5084
:1038F000035A0C50045A0D50055A0E50065A0F50D8
:10390000075A1050085A1180D89010320F320E32D8
:103910000D320C320B320A320932192E53EF1CF0E1
:1039200011C501F512C502F513C503F514C504F55B
:1039300015C505F516C506F517C507F518C508F52B
:10394000120003500410D8B4A8EF1CF0AAEF1CF02A
:10395000B3EF1CF003500410D8A4B1EF1CF0B3EF88
:103960001CF0B8EF1CF0015048EC20F00CEF1DF0FB
:1039700020EE04F00350D9260450DA22DE50DE1087
:10398000D8B4C5EF1CF0C7EF1CF0E2EF1CF020EE3E
:1039900004F00350D9260450DA2210EE02F003504E
:1039A000E1260450E222DE50E65CE650800A096E11
:1039B000DE50800A0958D8B0E0EF1CF0E2EF1CF0AE
:1039C0000CEF1DF020EE02F00350D9260450DA224D
:1039D000610078F305F5610074F306F561000CF4FD
:1039E000D9F4610010F4DAF4610078F307F56100AE
:1039F00074F308F505500724D96E06500820DA6ED6
:103A0000610004F4DFF420EE02F00350D9260450E4
:103A1000DA22DE2A000EDD22120009500A100B10F5
:103A20000C100D100E100F101010D8B41AEF1DF05E
:103A30001CEF1DF064EF1DF0010E116E2AEF1DF05A
:103A4000D89009360A360B360C360D360E360F3640
:103A50001036112A10AE2FEF1DF031EF1DF020EFC0
:103A60001DF00950015C0A5002580B5003580C50CD
:103A700004580D5005580E5006580F500758105056
:103A80000858D8A046EF1DF048EF1DF058EF1DF084
:103A90000950015E0A50025A0B50035A0C50045A46
:103AA0000D50055A0E50065A0F50075A1050085A1A
:103AB000D89010320F320E320D320C320B320A32E5
:103AC0000932112E31EF1DF001C501F502C502F5D5
:103AD00003C503F504C504F505C505F506C506F5DA
:103AE00007C507F508C508F51200050166A17BEFBB
:103AF0001DF07DEF1DF087EF1DF013C50AF514C50D
:103B00000BF511C50CF512C50DF5DBEC1EF016BE5C
:103B10008CEF1DF08EEF1DF094EF1DF015C51AF51A
:103B200016C51BF598EF1DF0000E1B6E000E1A6EE9
:103B3000000E196E000E186EAAEF1DF0000E026E38
:103B4000200E016E11C503F512C504F5A1EC1CF0A1
:103B5000184A192A1A50185C1950800A176E1B50FF
:103B6000800A1758D8A0B7EF1DF0B9EF1DF09EEFEF
:103B70001DF0050166B1BFEF1DF0C1EF1DF0CBEFE9
:103B80001DF013C50AF514C50BF511C50CF512C5CA
:103B90000DF5DBEC1EF013C501F514C502F5A1EC23
:103BA0001FF01A500124116E1B500220126E1200D9
:103BB000000E0A6EF8EF1DF00A500624086E000E83
:103BC0000720096E610020F4F6F4610024F4F7F494
:103BD000000EF86E240EF76403D00800F55005D0EF
:103BE000F6C4E1F4F7C4E2F4E7503DEC20F00A2A11
:103BF0000A500624086E000E0720096E610020F4AA
:103C0000F6F4610024F4F7F4000EF86E240EF76465
:103C100003D00800F55005D0F6C4E1F4F7C4E2F48F
:103C2000E7500009D8A417EF1EF019EF1EF0DCEFE3
:103C30001DF01200026E0250F00B036E02C501F57A
:103C40000F0E01160138F00B046E0350C312C3842B
:103C5000060E016E300EE82EFED7012EFCD700D0E6
:103C6000C394060E016E300EE82EFED7012EFCD74F
:103C700000D00350FF0AC3160450C312C384060EBB
:103C8000016E300EE82EFED7012EFCD700D0C39473
:103C9000060E016E300EE82EFED7012EFCD700D0A6
:103CA0000450FF0AC316120054C558F555C559F5FE
:103CB000000E0501616F000E606F72EF1EF052C5BD
:103CC0003CF553C53DF5580E3E6E050E3F6E56C58C
:103CD00040F557C541F5B3EC14F03C5005016027A1
:103CE0003D506123610060F5F6F4610064F5F7F47E
:103CF000000EF86E0800F5500009D8A482EF1EF0FF
:103D000084EF1EF05FEF1EF060C552F561C553F5FC
:103D100012005E0E05019A6F050E9B6F5AC59CF549
:103D20005BC59DF5000E9F6F000E9E6F000EA16F8C
:103D3000000EA06F9C0E526E050E536E5CC554F5BE
:103D40005DC555F59A0E566E050E576E54EC1EF075
:103D500005019E515A24D96E9F515B20DA6E000EE8
:103D6000DF6E1200010E076E200E01180210D8B48B
:103D7000BCEF1EF0BEEF1EF0D7EF1EF0F70E036E85
:103D8000FF0E046E01C505F502C506F503500526B4
:103D900004500622065009E1050E055CD8A0D3EFB9
:103DA0001EF0D5EF1EF0D7EF1EF0000E076E07C510
:103DB00001F5026A1200000E106E000E0F6EECEF9D
:103DC0001EF00EC501F5026A0CC503F50DC504F51C
:103DD000A1EC1CF00F4A102A0F500A24D96E105083
:103DE0000B20DA6EDF500E6E0E50D8A4FAEF1EF0E4
:103DF000FCEF1EF0E1EF1EF01200076E000E086EE1
:103E00000750D8A406EF1FF008EF1FF00CEF1FF0CB
:103E1000800E086E19EF1FF00704D8A412EF1FF0F0
:103E200014EF1FF018EF1FF0C00E086E19EF1FF00F
:103E300000F006500826085037EC20F01200000E63
:103E40000301F36F000EF46F000EF56FF39FF39D07
:103E5000F399F391010EFA6FF385F899FC0EF817B8
:103E6000000EEC6FC68004010081000E0301F26FAA
:103E7000000EF16F000EEF6F000EEE6FF38F120069
:103E800030EC20F0020E076E040E066EBA0EE82E1D
:103E9000FED7062EFCD7072EFAD700D0010E37EC3E
:103EA00020F0020E37EC20F0060E37EC20F00C0E5E
:103EB00037EC20F0100E37EC20F02C0E37EC20F011
:103EC00012000001AD518F0B6009AD6F610004F469
:103ED000D9F4610008F4DAF4DF50036EAD51031831
:103EE000F00B0318AD6F20EE01F00150D9260250FF
:103EF000DA22DF50036EB1510318F00B0318B16FD3
:103F00001200B1AE86EF1FF088EF1FF0A0EF1FF098
:103F10000501684B692BF50E681906E16905D8A4FF
:103F200094EF1FF096EF1FF09CEF1FF0000E696FEB
:103F3000000E686F080EC31A060E0301186FB19EBB
:103F4000110001C503F502C504F5A9EF1FF0014AF0
:103F5000022A610004F4D9F4610008F4DAF4DF50B5
:103F6000D8A4B5EF1FF0B7EF1FF0A7EF1FF0035075
:103F7000015C016E04500258026E1200D00E036EF6
:103F8000FF0E046E01C505F502C506F503500526B2
:103F90000450062206500AE10A0E055CD8A0D3EFB1
:103FA0001FF0D6EF1FF0010ED7EF1FF0000E016ECD
:103FB000026A1200015003026100CCF305F56100B2
:103FC000D0F306F501500402F35006260250030216
:103FD000F350062605C501F506C502F5120001EEEF
:103FE00060F13A0EEE6AE806FDE10401080E5D6F2D
:103FF000000E5E6F000E5F6F000121EF1BF0000EE0
:1040000003011A6F000E1B6F1A9F1A991A511B8D0C
:104010001B891B85060E186F1A8F12001BEC20F0EF
:1040200026EC20F0FFEC1FF01FEC1FF043EC20F01B
:1040300040EC1FF01200050E056E000E046E040E1B
:10404000016E050E026E61EC1FF01200000ED66EBE
:10405000D68ED69AAF909F80D680B19EA18E120048
:10406000000ECB6E000E0401286FC3921200056E85
:10407000C39005501AEC1EF01200056EC380055067
:104080001AEC1EF01200CB9604012897C39612007A
:0240900012001C
:020000040020DA
:10000000FF0FFF0FFF0FFF0FFF0FFF0FFF0FFF0F80
:10001000FF0FFF0FFF0FFF0FFF0FFF0FFF0FFF0F70
:10002000FF0FFF0FFF0FFF0FFF0FFF0FFF0FFF0F60
:10003000FF0FFF0FFF0FFF0FFF0FFF0FFF0FFF0F50
:020000040030CA
:0A0000008CD5E7C79FFFFFFFFFFF4D
:00000001FF
