:04000000FEEFFFF020
:10250000004C6F636B6572205069633A2000434C46
:10251000415645204552524F5200434C41564520AA
:102520004249454E00706173733A2020000058EC18
:1025300014F035EC14F063EC14F0010E6FEC14F0B1
:10254000020E226E000EDCEC13F0010E226E250E40
:10255000236E60EC13F0010E226E010EDCEC13F022
:10256000250E226E250E236E60EC13F0080E226EEF
:10257000010EDCEC13F0170E226E050E236E60ECDC
:1025800013F006EF13F0D1A8C8EF12F0CAEF12F063
:10259000F8EF12F0D1500F0B296ED1B8D2EF12F034
:1025A000D4EF12F0CDEF12F0010E2924D96EDA6AC1
:1025B000050EDA22170E2D24E16EE26A050EE222E4
:1025C000DFC4E7F42D2A080E226E010EDCEC13F0B6
:1025D000170E226E050E236E60EC13F0050E2D64AF
:1025E000F4EF12F0F6EF12F0F8EF12F0010E2C6E8D
:1025F000080EC31A030E286E080E276E770EE82EFB
:10260000FED7272EFCD7282EFAD700F02C50D8B4AE
:102610000CEF13F00EEF13F0C3EF12F0C386000EB1
:102620002A6E000E2B6E170E2B24D96EDA6A050E59
:10263000DA22110E2B24E16EE26A050EE222DE5050
:10264000E618D8B426EF13F028EF13F02AEF13F0B2
:10265000010E2A6E2B2A050E2B6431EF13F033EF97
:1026600013F013EF13F0010E6FEC14F0020E226E54
:10267000000EDCEC13F0010E226E250E236E60ECD2
:1026800013F0020E226E010EDCEC13F02A50D8B4C7
:102690004CEF13F04EEF13F056EF13F00E0E226EC8
:1026A000250E236E60EC13F05CEF13F01A0E226E11
:1026B000250E236E60EC13F05CEF13F0FEEFFFF0DD
:1026C000000E266E80EF13F026502224246E000E9A
:1026D0002320256E610090F4F6F4610094F4F7F481
:1026E000000EF86E240EF76403D00800F55005D0F4
:1026F000F6C4E9F4F7C4EAF4EF5069EC14F0262AC2
:1027000026502224246E000E2320256E610090F4B2
:10271000F6F4610094F4F7F4000EF86E240EF764FA
:1027200003D00800F55005D0F6C4E9F4F7C4EAF484
:10273000EF500009D8A49FEF13F0A1EF13F064EF5E
:1027400013F012001E6E1E50F00B1F6E1EC51DF5FD
:102750000F0E1D161D38F00B206E1F50C312C384C0
:10276000060E1D6E300EE82EFED71D2EFCD700D0B3
:10277000C394060E1D6E300EE82EFED71D2EFCD71C
:1027800000D01F50FF0AC3162050C312C384060E88
:102790001D6E300EE82EFED71D2EFCD700D0C39440
:1027A000060E1D6E300EE82EFED71D2EFCD700D073
:1027B0002050FF0AC3161200236E000E246E235011
:1027C000D8A4E5EF13F0E7EF13F0EBEF13F0800E72
:1027D000246EF8EF13F02304D8A4F1EF13F0F3EF15
:1027E00013F0F7EF13F0C00E246EF8EF13F000F0C3
:1027F0002250242624506FEC14F012000001AD5139
:102800008F0B6009AD6F610074F4D9F4610078F446
:10281000DAF4DF501F6EAD511F18F00B1F18AD6FAB
:1028200020EE01F01D50D9261E50DA22DF501F6E17
:10283000B1511F18F00B1F18B16F1200940EF66EF5
:10284000280EF76E000EF86E01EE01F110EE1CF08E
:102850000900F5C4EEF4E550E150FAE12D6A2C6A66
:10286000000EF86E000197EF12F075EC14F0010EF7
:102870006FEC14F0020E6FEC14F0060E6FEC14F017
:102880000C0E6FEC14F0100E6FEC14F02C0E6FECBD
:1028900014F012003137342A33393623414342448D
:1028A000323835303132333435362A2A2A2A2A2A28
:1028B000000E206E050E216E200E1D6E050E1E6E82
:1028C000FEEC13F01200000E0401186F1F0EC96E0B
:1028D0001200216EC3802150A2EC13F01200216E71
:1028E000C3902150A2EC13F01200000ECB6EC392E5
:0228F0001200D4
:020000040001F9
:04FFFC001EEF14F0F0
:020000040020DA
:10000000FF0FFF0FFF0FFF0FFF0FFF0FFF0FFF0F80
:10001000FF0FFF0FFF0FFF0FFF0FFF0FFF0FFF0F70
:10002000FF0FFF0FFF0FFF0FFF0FFF0FFF0FFF0F60
:10003000FF0FFF0FFF0FFF0FFF0FFF0FFF0FFF0F50
:020000040030CA
:0A0000008CD5E7C79FFFFFFFFFFF4D
:00000001FF
