:0400000081EF00F09C
:1000080040004000400040004000400040004000E8
:1000180040004000400040004000400040004000D8
:1000280040004000400040004000400040004000C8
:100038004000400040004000400040004000770081
:1000480040004000400040004000400040004000A8
:100058004000400040004000400040004000400098
:100068004000400040004000400040004000400088
:100078004000400040004000400040004000400078
:100088004000400040004000400040004000400068
:100098004000400040004000400040004000400058
:1000A8004000400040004000400040004000400048
:1000B8004000400040004000400040004000400038
:1000C8004000400040004000400040004000400028
:1000D8004000400040004000400040004000400018
:1000E8004000400040004000400040004000400008
:1000F8004000400040004000FF0033EF01F0000ED8
:1001080003011A6F000E1B6F610004F4D9F461003B
:1001180008F4DAF4DF50036E000E03B0800E036EAD
:1001280003501A1320EE01F00150D9260250DA22AA
:10013800DF50036E0338F00B1A1320EE02F0015063
:10014800D9260250DA22DF501A1320EE03F00150AC
:10015800D9260250DA22DF50036E050E046ED890BD
:100168000336042EB3EF00F003501B1320EE04F007
:100178000150D9260250DA22DF50036E0338F00B03
:100188001B1320EE05F00150D9260250DA22DF5069
:100198001B1312000001AD518F0B6009AD6F610098
:1001A80004F4D9F4610008F4DAF4DF50036EAD51B9
:1001B8000318F00B0318AD6F20EE01F00150D9269B
:1001C8000250DA22DF50036EB1510318F00B031806
:1001D800B16F1200A1AEF3EF00F0F5EF00F004EFFD
:1001E80001F0B1AEFAEF00F0FCEF00F004EF01F01F
:1001F800080EC31A0B0E0301196FDC0E186FB19E9F
:100208001100010E056E010E066E020E086E010E3B
:10021800096E030E0A6E000E076E050E016E050EBE
:10022800026E83EC00F0DC0E0301186F120028EC5C
:1002380001F03DEC01F005EC01F043EC01F000F0B9
:1002480023EF01F081EF00F0000E046E020E056E40
:10025800040E016E050E026ECEEC00F012000401D1
:10026800080E5D6F000E5E6F000E5F6F00011BEFE2
:1002780001F0D69AD68EA18E800EB1161200CB96BA
:04028800C386120017
:020000040020DA
:10000000FF0FFF0FFF0FFF0FFF0FFF0FFF0FFF0F80
:10001000FF0FFF0FFF0FFF0FFF0FFF0FFF0FFF0F70
:10002000FF0FFF0FFF0FFF0FFF0FFF0FFF0FFF0F60
:10003000FF0FFF0FFF0FFF0FFF0FFF0FFF0FFF0F50
:020000040030CA
:0A0000008CD5EFC79FFFFFFFFFFF45
:00000001FF
