:0400000081EF00F09C
:1000080040004000400040004000400040004000E8
:1000180040004000400040004000400040004000D8
:1000280040004000400040004000400040004000C8
:100038004000400040004000400040004000830075
:1000480040004000400040004000400040004000A8
:100058004000400040004000400040004000400098
:100068004000400040004000400040004000400088
:100078004000400040004000400040004000400078
:100088004000400040004000400040004000400068
:100098004000400040004000400040004000400058
:1000A8004000400040004000400040004000400048
:1000B8004000400040004000400040004000400038
:1000C8004000400040004000400040004000400028
:1000D8004000400040004000400040004000400018
:1000E8004000400040004000400040004000400008
:1000F8004000400040004000FF0035EF01F0000ED6
:1001080003011A6F000E1B6F610004F4D9F461003B
:1001180008F4DAF4DF50036E000E03B0800E036EAD
:1001280003501A1320EE01F00150D9260250DA22AA
:10013800DF50036E0338F00B1A1320EE02F0015063
:10014800D9260250DA22DF501A1320EE03F00150AC
:10015800D9260250DA22DF50036E050E046ED890BD
:100168000336042EB3EF00F003501B1320EE04F007
:100178000150D9260250DA22DF50036E0338F00B03
:100188001B1320EE05F00150D9260250DA22DF5069
:100198001B1312000001AD518F0B6009AD6F610098
:1001A80004F4D9F4610008F4DAF4DF50036EAD51B9
:1001B8000318F00B0318AD6F20EE01F00150D9269B
:1001C8000250DA22DF50036EB1510318F00B031806
:1001D800B16F1200010E056E010E066E020E086E5A
:1001E800000E096E030E0A6E000E076E0B0E030159
:1001F800196FDC0E186F050E016E050E026E83EC8A
:1002080000F01200A1AE0BEF01F00DEF01F01CEFB2
:1002180001F0B1AE12EF01F014EF01F01CEF01F0A4
:100228000B0E0301196FDC0E186F080EC31AB19E6E
:1002380011002AEC01F03FEC01F0EEEC00F045EC87
:1002480001F000F025EF01F081EF00F0000E046EE0
:10025800020E056E040E016E050E026ECEEC00F065
:1002680012000401080E5D6F000E5E6F000E5F6FD6
:1002780000011DEF01F0D69AD68EA18E800EB11620
:080288001200CB96C3861200A0
:020000040020DA
:10000000FF0FFF0FFF0FFF0FFF0FFF0FFF0FFF0F80
:10001000FF0FFF0FFF0FFF0FFF0FFF0FFF0FFF0F70
:10002000FF0FFF0FFF0FFF0FFF0FFF0FFF0FFF0F60
:10003000FF0FFF0FFF0FFF0FFF0FFF0FFF0FFF0F50
:020000040030CA
:0A0000008CD5EFC79FFFFFFFFFFF45
:00000001FF
