:04000000FEEFFFF020
:10260000004C6563742E204D6174726978203478B3
:0D261000340042544E3A2000203A200000D1
:10261E00000E0C6E0ABE18EF13F016EF13F01EEF3D
:10262E0013F0096C0A1ED8B00A2A010E0C6E08BEF1
:10263E0025EF13F023EF13F02BEF13F0076C081EAA
:10264E00D8B0082A010E0C1A000E0E6E000E0D6E7A
:10265E0009500A10D8B436EF13F038EF13F060EFCC
:10266E0013F0010E0B6E40EF13F0D89009360A36B8
:10267E000B2A0AAE45EF13F047EF13F03CEF13F0C1
:10268E00D8900D360E360950075C0A500858D8A05F
:10269E0053EF13F055EF13F05AEF13F00950075E96
:1026AE000A50085A0D80D8900A3209320B2E47EF85
:1026BE0013F00C50D8B466EF13F068EF13F06CEF14
:1026CE0013F00D6C0E1ED8B00E2A0DC507F50EC5F3
:1026DE0008F51200000E066E02BE7AEF13F078EFC8
:1026EE0013F080EF13F0016C021ED8B0022A010E17
:1026FE00066E04BE87EF13F085EF13F08BEF13F029
:10270E00036C041ED8B0042A03500410D8B492EF00
:10271E0013F094EF13F0B8EF13F0010E056E9CEF6B
:10272E0013F0D89003360436052A04AEA1EF13F049
:10273E00A3EF13F098EF13F00350015C045002580E
:10274E00D8A0ACEF13F0AEEF13F0B2EF13F00350CE
:10275E00015E0450025AD89004320332052EA3EFC4
:10276E0013F00650D8B4BEEF13F0C0EF13F0C4EF61
:10277E0013F0016C021ED8B0022A01C501F502C584
:10278E0002F51200146E14C507F5086A000E0A6EE3
:10279E00640E096E0FEC13F00750116E000E046EEE
:1027AE00640E036E14C501F5026A71EC13F001C5D7
:1027BE0007F502C508F5000E0A6E0A0E096E0FEC3B
:1027CE0013F00750126E000E046E640E036E14C5E5
:1027DE0001F5026A71EC13F001C50FF502C510F593
:1027EE000FC501F510C502F5000E046E0A0E036E3C
:1027FE0071EC13F00150136E1150300F3EEC15F0CA
:10280E001250300F3EEC15F01350300F3EEC15F019
:10281E001200026E0250F00B036E02C501F50F0E90
:10282E0001160138F00B046E0350C312C384060E5A
:10283E00016E300EE82EFED7012EFCD700D0C394C9
:10284E00060E016E300EE82EFED7012EFCD700D0FC
:10285E000350FF0AC3160450C312C384060E016E42
:10286E00300EE82EFED7012EFCD700D0C394060EF4
:10287E00016E300EE82EFED7012EFCD700D004508C
:10288E00FF0AC31612002BEC15F016EC15F044ECF3
:10289E0015F0000E066E000EA2EC14F0010E066E80
:1028AE00260E076E7AEC14F0000E066E010EA2ECE8
:1028BE0014F0120E066E260E076E7AEC14F0E2EC91
:1028CE0014F0080EC31A030E176E080E166E770E4E
:1028DE00E82EFED7162EFCD7172EFAD700F05BEF98
:1028EE0014F0FEEFFFF0000E0A6E8DEF14F00A509A
:1028FE000624086E000E0720096E08C5F6F409C5F9
:10290E00F7F40800F5503EEC15F00A2A0A5006249A
:10291E00086E000E0720096E08C5F6F409C5F7F417
:10292E000800F5500009D8A49FEF14F0A1EF14F0A1
:10293E007EEF14F01200076E000E086E0750D8A43A
:10294E00ABEF14F0ADEF14F0B1EF14F0800E086E93
:10295E00BEEF14F00704D8A4B7EF14F0B9EF14F0DB
:10296E00BDEF14F0C00E086EBEEF14F000F006506E
:10297E00082608504AEC15F012000001AD518F0BDD
:10298E006009AD6F01C5D9F402C5DAF4DF50036EEC
:10299E00AD510318F00B0318AD6F20EE01F001508E
:1029AE00D9260250DA22DF50036EB1510318F00B14
:1029BE000318B16F1200D1A8E7EF14F0E9EF14F08D
:1029CE00FEEF14F0D1500F0B156E1550C9EC13F02D
:1029DE00180E066E260E076E7AEC14F0180E1524DD
:1029EE00D96EDA6A050EDA22DF503EEC15F01200CF
:1029FE006C0EF66E2A0EF76E000EF86E01EE18F1E2
:102A0E0010EE10F00900F5C4EEF4E550E150FAE1D5
:102A1E00000EF86E260EF76E00014AEF14F050EC21
:102A2E0015F0010E4AEC15F0020E4AEC15F0060EEA
:102A3E004AEC15F00C0E4AEC15F0100E4AEC15F09F
:102A4E002C0E4AEC15F01200000E046E050E056EEB
:102A5E00040E016E050E026EC4EC14F01200313736
:102A6E00342A333936234143424432383530056EE9
:102A7E00C380055010EC14F01200000E0401186F04
:102A8E001F0EC96E1200056EC390055010EC14F0A7
:0A2A9E001200000ECB6EC39212006E
:020000040001F9
:04FFFC00FFEF14F00F
:020000040020DA
:10000000FF0FFF0FFF0FFF0FFF0FFF0FFF0FFF0F80
:10001000FF0FFF0FFF0FFF0FFF0FFF0FFF0FFF0F70
:10002000FF0FFF0FFF0FFF0FFF0FFF0FFF0FFF0F60
:10003000FF0FFF0FFF0FFF0FFF0FFF0FFF0FFF0F50
:020000040030CA
:0A0000008CD5E7C79FFFFFFFFFFF4D
:00000001FF
